:020000040800F2
:1000000038580120351A00086D9E0008899E0008A6
:10001000A59E0008C19E0008DD9E000800000000AB
:10002000000000000000000000000000F99E000831
:10003000159F000800000000319F000851190008BA
:10004000911A0008911A0008911A0008911A0008E4
:10005000911A0008911A0008911A0008911A0008D4
:10006000911A0008911A0008911A0008911A0008C4
:10007000911A0008911A0008911A0008911A0008B4
:10008000911A0008911A0008911A0008911A0008A4
:10009000911A0008911A0008911A0008911A000894
:1000A000911A000819110008911A0008911A000805
:1000B00061110008AD110008F5110008911A00083F
:1000C000911A0008911A0008911A0008911A000864
:1000D000911A0008911A0008C9500008911A0008E6
:1000E000911A0008911A000859160008CD1200084C
:1000F00085120008911A0008911A0008911A000848
:10010000911A000821A100083D120008911A000868
:10011000911A0008911A0008911A0008911A000813
:10012000911A0008911A0008911A00082DA10008E0
:10013000911A0008911A0008911A0008911A0008F3
:10014000911A0008911A0008911A0008491600082F
:10015000911A0008911A0008911A0008911A0008D3
:10016000911A0008911A0008911A0008911A0008C3
:10017000911A0008911A0008911A0008911A0008B3
:10018000911A0008911A000810B5054C237833B96C
:10019000044B13B10448AFF300800123237010BD5A
:1001A0001009002000000000A0650208084B10B5EF
:1001B0001BB108480849AFF300800848036803B939
:1001C00010BD074B002BFBD0BDE81040184700BF07
:1001D00000000000A06502081409002008090020A2
:1001E0000000000080B584B000AFF8600B467A6074
:1001F000FB72FB7A013B032B52D801A252F823F089
:100200001102000835020008590200087D020008AA
:10021000FB68DB6A184611F003F803461846796854
:1002200011F056F80346184611F03EFA0246FB68F4
:100230005A6336E0FB68DB6A184610F0F1FF0346AC
:100240001846796811F044F80346184611F02CFA64
:100250000246FB689A6324E0FB68DB6A184610F0EC
:10026000DFFF03461846796811F032F80346184656
:1002700011F01AFA0246FB68DA6312E0FB68DB6AE7
:10028000184610F0CDFF03461846796811F020F8A3
:100290000346184611F008FA0246FB681A6400E0AB
:1002A00000BF1037BD4680BD80B582B000AF78601A
:1002B0000B46FB70FB78012B06D17B685B6B184605
:1002C00010F0AEFF03461FE0FB78022B06D17B68DF
:1002D0009B6B184610F0A4FF034615E0FB78032B38
:1002E00006D17B68DB6B184610F09AFF03460BE0E3
:1002F000FB78042B06D17B681B6C184610F090FF2E
:10030000034601E04FF0000318460837BD4680BDA4
:1003100090B5ADB002AFF860B9603B601346FB80AA
:100320000023C7F8A4300023C7F8A0300023C7F883
:100330009C300123C7F898300023A7F896300AF0C4
:1003400067F807F14403184607F046FBFB68B3F172
:10035000804F03D3FB68944A934207D9FB68934AC2
:10036000934211D9FB68924A93420DD8FB6C914A93
:10037000D2F88C20120E02F00102013202FB03F3CC
:100380005B00C7F8A4300CE03B6D8A4AD2F88C20A1
:10039000120E02F00102013202FB03F35B00C7F808
:1003A000A4303B68002B0ADDD7F8A430824A82FBD8
:1003B00003125211DB17D21A3B689A4201DA012369
:1003C000EEE01FE0D7F8A0300133C7F8A030D7F82F
:1003D000A420D7F8A03092FBF3F23B6892FBF3F332
:1003E000C7F89C30D7F89C30B3F5803F02DA002381
:1003F000C7F89830D7F8A0304FF6FE72934201DD6F
:100400000123CDE0D7F89830002BDBD1D7F8A4201A
:10041000D7F8A03092FBF3F2D7F89C3092FBF3F3BD
:100420003B60F8680BF03CFEFA8800230093022042
:10043000B968002300F0C8FDD7F89C30013BFB638E
:10044000D7F8A0309BB2013B9BB23B870023A7F8B3
:10045000403000237B87002387F8423007F13803C0
:10046000F86819460CF0BCFB6023BB8400233B8674
:100470000123FB8404233B8508237B864FF4807390
:10048000BB864FF40073FB8607F12403F868194616
:100490000CF07EFCF86800210CF068FE07F12403E4
:1004A000F86819460CF0EEFCF86800210CF07AFEB2
:1004B00007F12403F86819460CF06CFDF868002178
:1004C0000CF08EFE07F12403F86819460CF0E8FDE5
:1004D000F86800210CF0A0FEFB68384A934203D074
:1004E000FB68374A934211D107F1140318460CF008
:1004F000D9FE4FF480433B8407F11403F868194692
:100500000CF0A8FEF86801210CF0EAFEFA8807F169
:100510005403104619460BF041FC0023A7F896300F
:1005200025E0B7F896305B0007F1A802134433F8D2
:10053000543C012B16D1B7F8963010335B0007F10D
:10054000A802134433F8523C18460BF02DFF034623
:100550009CB2F8680BF09EFF0346B86821461A4625
:1005600009F0E2FEB7F896300133A7F89630B7F8F5
:1005700096300F2BD5D9FB6800225A63FB68002206
:100580009A63FB680022DA63FB6800221A64F86849
:1005900001210CF0BDFBF86801210CF0D9FB002310
:1005A0001846AC37BD4690BD00140040FF17004010
:1005B00000200040003802401F85EB510000014040
:1005C0000004014080B489B000AFF860B960114602
:1005D0001A460B46FB711346BB800023FB76FB6873
:1005E000DB78002B22D100237B610023FB61BB88D9
:1005F0000333002B00DA03339B107B61FB79FA682D
:1006000032339B0013449B683B610023FB6109E08C
:10061000BB681A683B691A60FB690133FB61BB6800
:100620000433BB60FA697B699A42F1D3FB7E1846BA
:100630002437BD465DF8047B704700BF80B489B0A5
:1006400000AFF860B9601346FB800023FB61FB88B4
:100650000333002B00DA03339B10BB61FB68D3F834
:10066000D0307B610023FB6109E07B691A68BB68BD
:100670001A60FB690133FB61BB680433BB60FA6934
:10068000BB699A42F1D3BB6818462437BD465DF872
:10069000047B704780B586B000AF78603960002376
:1006A000FB7400237B610023FB60FB6843F02003A5
:1006B000FB603B68DBB203F01F03DBB203F01F03F8
:1006C0009B01FA6822F4F8621343FB607B68DB68E5
:1006D000FA681A617B68DB681B69FB607B69013320
:1006E0007B617B69094A934200D906E0FB685B099C
:1006F00003F00103DBB2012BECD003200AF0AAF9CE
:10070000FB7C18461837BD4680BD00BF400D030076
:1007100080B483B000AF78607B68DB685B6903F00E
:10072000010318460C37BD465DF8047B704700BFD7
:1007300080B582B000AF78607868FFF7E9FF0346C4
:10074000012B14BF01230023DBB218460837BD4636
:1007500080BD00BF80B485B000AF78600023FB602F
:100760007B68DB685B69FB607B68DB689B69FA68B8
:100770001340FB60FB6818461437BD465DF8047BE8
:10078000704700BF80B485B000AF78600023FB7372
:100790007B681B699B68BB603B7AC3F34103DBB298
:1007A000022B09D0032B04D0012B02D00323FB73AF
:1007B00005E00223FB7302E00123FB7300BFFB7B18
:1007C00018461437BD465DF8047B704780B487B087
:1007D00000AF78600023FB750023BB607B681B695A
:1007E0009B683B617B689B691B68FB603B7CC3F338
:1007F0004103DBB2022B04D0BB896FF30A03BB8138
:1008000005E0BB89032262F30A03BB8100BF7B685A
:100810009B69FA681A607B7A43F001037B727B68FC
:100820001B697A6812695168BA68D2431140BA6884
:100830000A435A60FB7D18461C37BD465DF8047BB1
:10084000704700BF80B487B000AF78603960002384
:10085000FB740023FB600023BB603B685B78012BCB
:100860000FD13B681B787A6804339B0013449B6864
:100870007B613B681B781A46012393409BB23B8106
:100880000EE03B681B787A6814339B0013445B6866
:100890007B613B681B781A46012393409BB27B81A6
:1008A0007B691B68FB607B7B23F07F03DBB2002B43
:1008B00027D13B689B689BB2C3F30A039AB2BB89FA
:1008C00062F30A03BB813B68DB7803F00303DAB20F
:1008D000BB7B62F38303BB733B68DB88DBB203F053
:1008E0000F03DAB2FB8962F38913FB81FB7B43F0D0
:1008F0001003FB737B7B43F080037B73FA687B6997
:100900001A607B681B697A681269D169BA680A4300
:10091000DA61FB7C18461C37BD465DF8047B7047E6
:1009200080B588B000AF786039600023FB77002382
:10093000BB6100237B6100233B613B685B78012B3B
:1009400040F0AB803B681B787A6804339B0013440B
:100950009B681B687B613B681B787A6804339B004B
:1009600013449B681B693B613B685B69002B09D1A1
:100970003B696FF312033B617B8A012262F3CC0374
:100980007B8222E03B685B69C3F312023B6962F33E
:1009900012033B613B685A693B689B6813445A1ECB
:1009A0003B689B68B2FBF3F39BB2C3F309039AB2B3
:1009B0007B8A62F3CC037B823B68DB78012B04D11A
:1009C000FB7C012262F34613FB743B681B787A6858
:1009D00004339B0013449B683A691A617B68DB7897
:1009E000012B0AD13B681B787A6804339B001344BF
:1009F0009B683A6812695A6115E03B68DB78012B05
:100A000011D03B685B69002B0DD03B681B781A4600
:100A100001239340BB617B681B697A681269516B43
:100A2000BA690A435A633B68DB78012B14D17B68AF
:100A30001B699B68FB60FB68C3F30D239BB203F04B
:100A40000103002B04D1FB7D43F02003FB7503E081
:100A5000FB7D43F01003FB75FB7D43F00403FB7546
:100A6000FB7D43F08003FB753B681B787A68043399
:100A70009B0013449B687A691A603B68DB78012B02
:100A800040F089803B68D9683B681A783B685B69AD
:100A90009BB27868FFF796FD7DE03B681B787A682B
:100AA00014339B0013445B681B687B613B681B78B5
:100AB0007A6814339B0013445B681B693B613B6895
:100AC0005B69002B0DD13B689B68C3F312023B6945
:100AD00062F312033B617B8A012262F3CC037B82C7
:100AE00020E03B685A693B689B6813445A1E3B6888
:100AF0009B68B2FBF3F39BB2C3F309039AB27B8A00
:100B000062F3CC037B827B8AC3F3C9039BB21A4690
:100B10003B689B6803FB02F3C3F312023B6962F379
:100B200012033B613B681B787A6814339B001344C3
:100B30005B683A691A617B68DB78012B09D13B68F5
:100B40001B787A6814339B0013445B683A68126917
:100B50005A613B68DB78012B0CD13B685B79002B39
:100B600004D0FB7D43F02003FB7503E0FB7D43F0E5
:100B70001003FB75FB7D43F00403FB75FB7D43F025
:100B80008003FB753B681B787A6814339B00134421
:100B90005B687A691A60FB7F18462037BD4680BDC6
:100BA00080B489B000AF786039600023FB77002300
:100BB000BB6100233B610023BB603B685B78012B7A
:100BC00070D17B689B697B617B691B683B617B693A
:100BD0001B69BB603B685B69002B09D13B7A6FF3F3
:100BE00006033B72BB7A012262F3C403BB7223E0AB
:100BF0003B685A693B689B689A420ED93B689A6881
:100C00003B685A613B689B68DBB203F07F03DAB252
:100C10003B7A62F306033B7209E03B685B69DBB237
:100C200003F07F03DAB23B7A62F306033B72BB7ACE
:100C3000012262F3C403BB72BA687B691A617B68E4
:100C4000DB78012B09D13B681B787A6804339B0061
:100C500013449B683A6812695A61FB7C43F00403B1
:100C6000FB74FB7C43F08003FB743A697B691A6078
:100C70007B68DB78002B76D13B685B69002B72D0F8
:100C80003B681B781A46012393401A46BB691343FD
:100C9000BB617B681B697A681269516BBA690A4348
:100CA0005A6360E03B681B787A6814339B001344F6
:100CB0005B681B683B613B681B787A6814339B0058
:100CC00013445B681B69BB603B685B69002B0FD1F9
:100CD0003B689B68DBB203F07F03DAB23B7A62F3D6
:100CE00006033B72BB7A012262F3C403BB7212E0BB
:100CF0003B689A683B685A613B689B68DBB203F0CB
:100D00007F03DAB23B7A62F306033B72BB7A0122BD
:100D100062F3C403BB723B681B787A6814339B0090
:100D200013445B68BA681A617B68DB78012B09D1D0
:100D30003B681B787A6814339B0013445B683A68FD
:100D400012695A61FB7C43F00403FB74FB7C43F0A3
:100D50008003FB743B681B787A6814339B00134450
:100D60005B683A691A60FB7F18462437BD465DF818
:100D7000047B704780B487B000AF7860396000238F
:100D8000FB750023FB603B685B78012B1CD13B6843
:100D90001B787A6804339B0013449B683B613B6972
:100DA0001B68FB60FB7B23F07F03DBB2002B03D0CF
:100DB000FB7B43F04003FB73BB7B43F02003BB731F
:100DC000FA683B691A6011E03B681B787A68143353
:100DD0009B0013445B683B613B691B68FB60BB7B0A
:100DE00043F02003BB73FA683B691A60FB7D184629
:100DF0001C37BD465DF8047B704700BF80B487B0E8
:100E000000AF786039600023FB740023FB603B680F
:100E10005B78012B08D13B681B787A6804339B0010
:100E200013449B687B6107E03B681B787A68143346
:100E30009B0013445B687B617B691B68FB60BB7B29
:100E40006FF34513BB733B68DB78032B03D03B6820
:100E5000DB78022B03D1FB7B43F01003FB73FA68B2
:100E60007B691A60FB7C18461C37BD465DF8047B25
:100E7000704700BF80B485B000AF78607B681B69A5
:100E80009B69FB607B681B69DB69FA681340FB6048
:100E9000FB681B0C18461437BD465DF8047B704791
:100EA00080B485B000AF78600B46FB70FB787A6841
:100EB00014339B0013445B689B68FB607B681B6971
:100EC0005B69FA681340FB60FB6818461437BD463F
:100ED0005DF8047B704700BF80B485B000AF7860D8
:100EE0007B681B699B69FB607B681B69DB69FA682F
:100EF0001340FB60FB689BB218461437BD465DF893
:100F0000047B704780B487B000AF786000233B61FA
:100F1000FB7C43F0C003FB74BB7C012262F3C4037F
:100F2000BB743B7C182262F306033B747B685B6DE9
:100F30003A691A617B68DB78012B16D10023FB60CC
:100F40007B685B6D7A6802F5B9625A617B685B6D9C
:100F50001B68FB60FB7B43F08003FB734FF0802337
:100F6000FB607B685B6DFA681A601C37BD465DF8F4
:100F7000047B704780B485B000AF78607B689B7A53
:100F8000002B1BD07B681B699B68FB603B7B03F0DD
:100F90000103DBB2002B11D07B6803F586731B685D
:100FA000BB603B7A6FF341033B723B7A6FF3000304
:100FB0003B727B68D3F80C31BA681A601437BD46AF
:100FC0005DF8047B704700BF80B584B000AF396026
:100FD00011461A460346FB710B46BB801346BB7194
:100FE0003B68254A934204D10120012106F09EFD71
:100FF00022E03B68214A934204D10220012106F0FD
:1010000095FD19E03B681E4A934204D1042001215A
:1010100006F08CFD10E03B681A4A934204D1082088
:10102000012106F083FD07E03B68174A934203D194
:101030001020012106F07AFD07F10803184609F097
:1010400009F9BB88BB60FB793B733B7EBB73BB7903
:10105000FB7303237B7307F108033868194609F013
:101060006BF8FB79012B04D1BB883868194609F06D
:101070004DF91037BD4680BD00000240000402401B
:1010800000080240000C02400010024080B483B00F
:1010900000AF78600B46FB70FB78002B06D0094947
:1010A000084BDA6B7B681343CB6306E00549054BBD
:1010B000DA6B7B68DB431340CB630C37BD465DF8CE
:1010C000047B7047002C014080B485B000AF78608D
:1010D0000023FB73084B5A6B7B681340002B02D034
:1010E0000123FB7301E00023FB73FB7B18461437DD
:1010F000BD465DF8047B7047002C014080B483B08E
:1011000000AF7860034A7B6893630C37BD465DF897
:10111000047B7047002C014080B500AF0E4B1B884C
:101120009BB21B099BB2002B05D00C4B1B68013BEB
:101130000A4A13600BE0084B1B889BB21B099BB249
:10114000002B04D1054B1B680133044A136002488D
:1011500001210CF00FF980BD000001402C09002096
:1011600080B500AF4FF080431B889BB21B099BB238
:10117000002B05D00C4B1B68013B0B4A13600CE0A5
:101180004FF080431B889BB21B099BB2002B04D1FC
:10119000054B1B680133044A13604FF08040012166
:1011A0000CF0E8F880BD00BF3009002080B500AF2A
:1011B0000E4B1B889BB21B099BB2002B05D00C4B1E
:1011C0001B68013B0A4A13600BE0084B1B889BB26B
:1011D0001B099BB2002B04D1054B1B680133044A49
:1011E0001360024801210CF0C5F880BD00040040E6
:1011F0003409002080B500AF0E4B1B889BB21B0941
:101200009BB2002B05D00C4B1B68013B0A4A1360B4
:101210000BE0084B1B889BB21B099BB2002B04D12F
:10122000054B1B680133044A1360024801210CF08E
:10123000A1F880BD000800403809002080B500AF4B
:101240000E4B1B889BB21B099BB2002B05D00C4B8D
:101250001B68013B0A4A13600BE0084B1B889BB2DA
:101260001B099BB2002B04D1054B1B680133044AB8
:101270001360024801210CF07DF880BD000C004095
:101280003C09002080B500AF0E4B1B889BB21B09A8
:101290009BB2002B05D00C4B1B68013B0A4A136024
:1012A0000BE0084B1B889BB21B099BB2002B04D19F
:1012B000054B1B680133044A1360024801210CF0FE
:1012C00059F880BD000401404009002080B500AFFE
:1012D0000E4B1B889BB21B099BB2002B05D00C4BFD
:1012E0001B68013B0A4A13600BE0084B1B889BB24A
:1012F0001B099BB2002B04D1054B1B680133044A28
:101300001360024801210CF035F880BD0018004040
:101310004409002080B500AF04480BF0EDFC024604
:10132000034B1B681B041344184680BD000001409A
:101330002C09002080B500AF4FF080400BF0DCFCA2
:101340000246034B1B681B041344184680BD00BFB4
:101350003009002080B500AF04480BF0CDFC0246F8
:10136000034B1B681B041344184680BD0004004057
:101370003409002080B500AF04480BF0BDFC0246E4
:10138000034B1B681B041344184680BD0008004033
:101390003809002080B500AF04480BF0ADFC0246D0
:1013A000034B1B681B041344184680BD000C00400F
:1013B0003C09002080B500AF04480BF09DFC0246BC
:1013C000034B1B681B041344184680BD00040140F6
:1013D0004009002080B500AF04480BF08DFC0246A8
:1013E000034B1B681B041344184680BD00180040C3
:1013F0004409002090B59DB002AFF860B960134673
:10140000FB800023A7F866300023A7F86430F86853
:101410000AF046FEFA88002300930220B9680123EF
:10142000FFF7D2FDFA8807F12003104619460AF0AB
:10143000B5FC0023A7F8663025E0B7F866305B00FE
:1014400007F16802134433F8483C012B16D1B7F872
:10145000663010335B0007F16802134433F8463CF2
:1014600018460AF0A1FF03469CB2F8680BF012F888
:101470000346B86821461A4608F056FFB7F86630AA
:101480000133A7F86630B7F866300F2BD5D91D4B5E
:101490001B681D4AA2FB03235B0E9BB2013BA7F80E
:1014A00064304FF6FE73BB610023BB820023BB8315
:1014B0000023FB8207F11403F86819460BF090FB38
:1014C000B7F86430F868194601220BF0F3FBF868AE
:1014D0000321002200230BF05DFFF86801210122A7
:1014E0000BF024FFF86801210BF032FCF8680AF0D9
:1014F0008DFD034618460AF041FF00F055F86C37A1
:10150000BD4690BD4000002029D9426680B582B01A
:1015100000AF78607B681E4A934203D1FFF7FAFE62
:10152000034630E07B68B3F1804F03D1FFF702FF41
:10153000034628E07B68174A934203D1FFF70AFF6E
:10154000034620E07B68144A934203D1FFF712FF61
:10155000034618E07B68114A934203D1FFF71AFF54
:10156000034610E07B680E4A934203D1FFF722FF47
:10157000034608E07B680B4A934203D1FFF72AFF3A
:10158000034600E0002318460837BD4680BD00BF73
:10159000000001400004004000080040000C004032
:1015A000000401400018004080B500AF194B002234
:1015B0001A60194B00221A60184B00221A60184B4F
:1015C00000221A60174B00221A60174B00221A6083
:1015D000164B00221A60164800210BF07FFB4FF0DB
:1015E000804000210BF07AFB124800210BF076FBC3
:1015F000114800210BF072FB104800210BF06EFB2C
:101600000F4800210BF06AFB0E4800210BF066FB2F
:1016100080BD00BF2C0900203009002034090020C3
:10162000380900203C09002040090020440900201E
:10163000000001400004004000080040000C004091
:10164000000401400018004080B500AF014809F0D7
:1016500067FE80BD4012002080B500AF094B9B7A29
:10166000002B0AD0084A084B1B6823F006031360BE
:1016700008F0A2FE0348FFF77DFC4FF480200AF03B
:101680007FFB80BD4012002010ED00E080B58AB0E5
:1016900000AF7860396000237B6200233B62002347
:1016A000FB610023BB617B681B8A9BB27B627B6A08
:1016B00023F440537B623B68DB881A467B6A134302
:1016C0007B627B6A9AB27B681A827B689B899BB239
:1016D0007B627B6A23F4B05323F00C037B623B688C
:1016E0009A883B681B8913439AB23B685B89134312
:1016F0009BB21A467B6A13437B627B6A9AB27B6811
:101700009A817B689B8A9BB27B627B6A23F44073DD
:101710007B623B689B891A467B6A13437B627B6AC8
:101720009AB27B689A8207F10803184606F054F9CA
:101730007B68314A934203D07B68304A934202D19E
:101740007B693B6201E03B693B627B689B899BB2A2
:101750009BB21BB2002B0CDA3A6A13469B0013446F
:101760009A001A443B681B685B00B2FBF3F3FB6111
:101770000BE03A6A13469B0013449A001A443B68F4
:101780001B689B00B2FBF3F3FB61FB691C4AA2FBE5
:1017900003235B091B017B627B6A1B09642202FB3A
:1017A00003F3FA69D31ABB617B689B899BB29BB236
:1017B0001BB2002B0CDABB69DB003233104AA2FBF0
:1017C00003235B0903F007037A6A13437B620BE090
:1017D000BB691B0132330A4AA2FB03235B0903F0F6
:1017E0000F037A6A13437B627B6A9AB27B681A8121
:1017F0002837BD4680BD00BF0010014000140140E5
:101800001F85EB5180B483B000AF78600B46FB704E
:10181000FB78002B08D07B689B899BB243F4005374
:101820009AB27B689A8107E07B689B899BB223F41C
:1018300000539AB27B689A810C37BD465DF8047BF1
:10184000704700BF80B483B000AF78600B467B80E8
:101850007B88C3F308039AB27B689A800C37BD4635
:101860005DF8047B704700BF80B483B000AF786040
:101870007B689B889BB2C3F308039BB218460C3766
:10188000BD465DF8047B704780B487B000AF7860D8
:101890000B467B8013467B7000233B610023FB607B
:1018A0000023BB6000237B617B687B617B88DBB2AC
:1018B0005B09DBB23B617B8803F01F03FB60FB68C5
:1018C000012202FA03F3BB603B69012B03D17B6960
:1018D0000C337B6109E03B69022B03D17B69103338
:1018E0007B6102E07B6914337B617B78002B06D03F
:1018F0007B697A691168BA680A431A6006E07B69F5
:101900007A691168BA68D2430A401A601C37BD462A
:101910005DF8047B704700BF80B485B000AF78608D
:101920000B467B800023FB737B681B889AB27B8805
:1019300013409BB2002B02D00123FB7301E0002374
:10194000FB73FB7B18461437BD465DF8047B70477C
:1019500080B400AF064BD3E90023013243F100030A
:101960000349C1E90023BD465DF8047B704700BF11
:101970004809002080B500AF00F010F802460B4681
:10198000104619464FF47A724FF000030FF0ACFE88
:1019900002460B461046194680BD00BF80B400AF1A
:1019A000094BD3E90023921843EB0303990041EA62
:1019B00092719000121843EB010310461946BD4680
:1019C0005DF8047B704700BF4809002080B500AF78
:1019D000014808F007FB80BDACC5273780B584B04F
:1019E00000AFC7E900010023FB60FFF7C3FF024619
:1019F0000B461346FB6000BFFFF7BCFFFB681A46AF
:101A00004FEAE273821A61EB0303D7E900019042C7
:101A100071EB0303F0DA1037BD4680BD80B582B0AC
:101A200000AFC7E90001D7E90001FFF7D7FF08378A
:101A3000BD4680BD80B582B000AF104B7B60104BBF
:101A40003B6007E03B681A1D3A607A68111D7960B7
:101A500012681A603B680B4A9342F3D30A480B4959
:101A60004FF000028842B8BF40F8042BFADB06F0C2
:101A7000D5F803F0D9FF0837BD4680BDF0720208E3
:101A8000000000200C09002010090020341800205C
:101A900080B400AFFEE700BF80B584B000AF7860CF
:101AA00007F108037868194609F0CEFB3B7A03F08A
:101AB0001F03012B0AD0022B0FD0002B14D107F1EA
:101AC00008037868194608F0E9FF16E007F10803F3
:101AD0007868194609F032F80FE007F108037868D2
:101AE000194609F05FF808E03B7A23F07F03DBB288
:101AF000786819460AF06EFE00BF002318461037BA
:101B0000BD4680BD80B584B000AF78600B46FB70E9
:101B1000FB78002B44D17B6803F55C73FB607B682A
:101B200093F81131032B4ED1FB68DA69FB689B688F
:101B30009A4220D9FB68DA69FB689B68D21AFB6875
:101B4000DA617B68DB78012B06D1FB68DA68FB6819
:101B50009B681A44FB68DA60FB68D968FB689A687E
:101B6000FB68DB69934228BF13469BB278681A462C
:101B70000AF084FF27E07B68D3F8E0351B69002B6F
:101B80000AD07B6893F81231032B05D17B68D3F818
:101B9000E0351B697868984778680AF083FF12E09F
:101BA0007B68D3F8E0359B69002B0CD07B6893F8F9
:101BB0001231032B07D17B68D3F8E0359B69FA78A3
:101BC000786811469847002318461037BD4680BDF7
:101BD00080B584B000AF78600B46FB70FB78002BBB
:101BE00060D17B6803F58C73FB607B6893F81131DF
:101BF000022B6AD1FB68DA69FB689B689A421CD9A0
:101C0000FB68DA69FB689B68D21AFB68DA617B685B
:101C1000DB78012B06D1FB68DA68FB689B681A4405
:101C2000FB68DA60FB68DA68FB68DB699BB278689E
:101C300011461A460AF00EFF47E0FB681B6AFA6875
:101C40009268B3FBF2F102FB01F29B1A002B14D154
:101C5000FB681A6AFB689B689A420ED3FB681A6A93
:101C6000FB685B6A9A4208D27868002100220AF079
:101C7000F1FEFB6800225A6227E07B68D3F8E0356A
:101C8000DB68002B0AD07B6893F81231032B05D157
:101C90007B68D3F8E035DB687868984778680AF0A5
:101CA00019FF12E07B68D3F8E0355B69002B0CD09C
:101CB0007B6893F81231032B07D17B68D3F8E035AA
:101CC0005B69FA7878681146984700231846103700
:101CD000BD4680BD80B582B000AF786078680021D5
:101CE000402200230AF0A4FC7868802140220023CF
:101CF0000AF09EFC7B68012283F812217B68D3F8EE
:101D0000E4355B687A689278104698470023184655
:101D10000837BD4680BD00BF80B582B000AF786097
:101D20007B68D3F8E4351B6998477B68032283F806
:101D30001221002318460837BD4680BD80B582B009
:101D400000AF78607B68042283F812217B68D3F8A7
:101D5000E435DB689847002318460837BD4680BD48
:101D600080B582B000AF78607B68D3F8E035DB697E
:101D7000002B05D07B68D3F8E035DB69786898479D
:101D8000002318460837BD4680BD00BF80B582B02D
:101D900000AF78600B46FB707B68D3F8E0351B68BA
:101DA000FA787868114698477B68D3F8E4359B68E1
:101DB0009847002318460837BD4680BD80B582B0DD
:101DC00000AF78600B46FB707B68D3F8E0355B684A
:101DD000FA78786811469847002318460837BD46B8
:101DE00080BD00BF80B582B000AF78607B68D3F85B
:101DF000E0351B6A78689847002318460837BD46C7
:101E000080BD00BF80B582B000AF78607B68D3F83A
:101E1000E0355B6A78689847002318460837BD4666
:101E200080BD00BF80B483B000AF786039600C37EC
:101E3000BD465DF8047B704780B582B000AF786026
:101E40007B68064A1A607B681033184603F0D6F99F
:101E50007B6818460837BD4680BD00BF10400208A9
:101E600080B582B000AF786039607B681846FFF7B4
:101E7000E3FF7B68074A1A607B683A68C3F8202151
:101E80007B680022C3F81C217B6818460837BD46D2
:101E900080BD00BFD03B020880B582B000AF786043
:101EA0000B46FB707B6803F11002FB781046194665
:101EB00003F0B8F90346002B0CBF01230023DBB26B
:101EC000002B0AD0FB780D2B13D17B68D3F81C3183
:101ED0005A1C7B68C3F81C210BE07B68D3F81C31CB
:101EE000002B06D1FB780D2B03D17B680122C3F8B0
:101EF0001C210837BD4680BD80B582B000AF786038
:101F00007B681033184603F0BDF90346002B0CBF65
:101F100001230023DBB218460837BD4680BD00BF51
:101F200080B483B000AF78607B68D3F81C3118466A
:101F30000C37BD465DF8047B704700BF80B582B0AA
:101F400000AF78607B681033184603F0B1F90346A0
:101F500018460837BD4680BD90B585B000AF7860A3
:101F600039607B681033184603F08CF90346002B68
:101F700014BF01230023DBB2002B08D03B680022F2
:101F80001A707B680022C3F81C21002354E0002350
:101F9000FB604DE0FB683A68D4187B681033184644
:101FA00003F086F903462370FB683A6813441B78F4
:101FB0000D2B02D0FB68FE2B1FDDFB683A68134433
:101FC00000221A707B681033184603F05BF9034651
:101FD000002B14BF01230023DBB2002B04D07B684D
:101FE0000022C3F81C2106E07B68D3F81C315A1E7E
:101FF0007B68C3F81C21FB681EE07B681033184621
:1020000003F040F90346002B14BF01230023DBB289
:10201000002B0AD0FB683A68134400221A707B68D0
:102020000022C3F81C21FB6806E0FB680133FB605B
:10203000FB68FF2BAEDD002318461437BD4690BD6C
:1020400080B582B000AF78607B689B68012B06D1B9
:102050007B685B681846FFF763FF034600E00023D8
:1020600018460837BD4680BD80B582B000AF7860A5
:1020700039603B6800221A707B689B68012B07D18E
:102080007B685B6818463968FFF766FF034600E027
:10209000002318460837BD4680BD00BF80B582B01A
:1020A00000AF78607B689B68012B06D17B685B681A
:1020B0001846FFF721FF034600E0002318460837C3
:1020C000BD4680BD80B582B000AF78607B689B68FC
:1020D000012B06D17B685B681846FFF72FFF03468C
:1020E00000E0002318460837BD4680BD80B584B0A7
:1020F00000AF786039600023FB600DE07B681B68EF
:1021000004331B68FA6839680A4412787868114603
:102110009847FB680133FB60FB683A6813441B78FF
:10212000002BEBD11037BD4680BD00BF90B587B006
:1021300002AFF860B9607A603B60FB6802229A6087
:10214000FB681B681C683B680093F868B9687A688C
:102150003B6AA047034618461437BD4690BD00BFF2
:1021600090B587B002AFF860B9607A603B60FB68F9
:1021700001229A604FF4927016F0B6FD0446204694
:10218000F968FFF76DFEFB685C60FB681B681C6804
:10219000FB685B681A467B680093F868B9683B681F
:1021A000A047034618461437BD4690BD80B584B09D
:1021B00000AF78607B681B680C331B6878689847B1
:1021C0000346FB60FB68002B01D0FB6803E07B68E3
:1021D00001225A60002318461037BD4680BD00BF5B
:1021E00080B584B000AF78607B681B6810331B68D3
:1021F000786898470346FB60FB68002B01D0FB68BA
:1022000003E07B6802225A60002318461037BD465F
:1022100080BD00BF80B584B000AF78607B681B686C
:1022200014331B68786898470346FB60FB68002BF3
:1022300001D0FB6803E07B6803225A600023184644
:102240001037BD4680BD00BF80B584B000AF786058
:102250007B681B6818331B68786898470346FB60E7
:10226000FB68002B01D0FB6803E07B6804225A6006
:10227000002318461037BD4680BD00BF80B582B030
:1022800000AF786039607B685B68002B00D125E087
:102290007B685B68022B07D17B681B6804331B6873
:1022A00078683968984719E03B68012B06D17B684C
:1022B0001B6824331B68786898470FE03B68002B45
:1022C00006D17B681B6828331B687868984705E04F
:1022D0007B681B681C331B68786898470837BD46C5
:1022E00080BD00BF80B582B000AF78607B685B685E
:1022F000002B01D1002311E07B685B68012B07D123
:102300007B681B6808331B6878689847034605E0BC
:102310007B681B681B68786898470346184608372F
:10232000BD4680BD80B582B000AF78607B681B6819
:102330002C331B687868012198470837BD4680BD5B
:1023400080B582B000AF78607B681B682C331B6857
:102350007868002198470837BD4680BD90B583B0A6
:1023600000AF78607B681B682C331C687B681B6837
:1023700030331B68786898470346002B0CBF012355
:102380000023DBB278681946A0470C37BD4690BDE4
:1023900080B582B000AF78607B681B681B68786886
:1023A0009847034618460837BD4680BD80B582B0C1
:1023B00000AF78607B681B6804331B6878689847B7
:1023C000034618460837BD4680BD00BF80B584B0BF
:1023D00000AFF860B9607A60FB681B681B68F8683A
:1023E000B9687A689847034618461037BD4680BDDD
:1023F00080B582B000AF786039607B681B680433B9
:102400001B687868396898470837BD4680BD00BFAB
:1024100080B582B000AF78607B681B6808331B68AA
:1024200078689847034618460837BD4680BD00BF08
:1024300080B483B000AF786040F6FF7318460C3765
:10244000BD465DF8047B7047A0F10800F0E700BFCF
:1024500080B483B000AF7860034B18460C37BD469C
:102460005DF8047B704700BF33335340A0F1080090
:10247000EEE700BF80B483B000AF786040F6FF7332
:1024800018460C37BD465DF8047B7047A0F1080084
:10249000F0E700BF80B483B000AF7860034B18460C
:1024A0000C37BD465DF8047B704700BF33335340A3
:1024B000A0F10800EEE700BF80B483B000AF786001
:1024C00040F6FF7318460C37BD465DF8047B704735
:1024D000A0F10800F0E700BF80B483B000AF7860DF
:1024E000034B18460C37BD465DF8047B704700BFB0
:1024F00033335340A0F10800EEE700BF80B483B04F
:1025000000AF786040F6FF7318460C37BD465DF8A3
:10251000047B7047A0F10800F0E700BF80B483B0EF
:1025200000AF7860034B18460C37BD465DF8047B5E
:10253000704700BF33335340A0F10800EEE700BFFF
:1025400080B483B000AF786040F6FF7318460C3754
:10255000BD465DF8047B7047A0F10800F0E700BFBE
:1025600080B483B000AF7860034B18460C37BD468B
:102570005DF8047B704700BF33335340A0F108007F
:10258000EEE700BF80B582B000AF786004484FF43A
:10259000805107F093FE034618460837BD4680BDBC
:1025A0000004024080B582B000AF786039603B68BB
:1025B000002B05D106484FF4805107F0A7FE04E038
:1025C00003484FF4805107F093FE0837BD4680BDA5
:1025D0000004024080B582B000AF786004484FF438
:1025E000805107F051FE034618460837BD4680BDAE
:1025F0000004024080B584B002AF786000230093ED
:10260000002005494FF480520023FEF7DDFC002333
:1026100018460837BD4680BD0004024080B584B02E
:1026200002AF786000230093012005494FF48052E7
:102630000023FEF7C9FC002318460837BD4680BDBD
:102640000004024080B584B002AF7860002300939C
:10265000002005494FF480520123FEF7B5FC00230A
:1026600018460837BD4680BD0004024080B584B0DE
:1026700002AF786000230093002005494FF4805298
:102680000223FEF7A1FC002318460837BD4680BD93
:102690000004024080B582B000AF786004484FF477
:1026A000004107F00BFE034618460837BD4680BDC3
:1026B0000010024080B582B000AF786039603B689E
:1026C000002B05D106484FF4004107F01FFE04E03F
:1026D00003484FF4004107F00BFE0837BD4680BDAC
:1026E0000010024080B582B000AF786004484FF41B
:1026F000004107F0C9FD034618460837BD4680BDB6
:102700000010024080B584B002AF786000230093CF
:10271000002005494FF400420023FEF755FC012339
:1027200018460837BD4680BD0010024080B584B011
:1027300002AF786000230093012005494FF4004266
:102740000023FEF741FC002318460837BD4680BD34
:102750000010024080B584B002AF7860002300937F
:10276000002005494FF400420123FEF72DFC012310
:1027700018460837BD4680BD0010024080B584B0C1
:1027800002AF786000230093002005494FF4004217
:102790000223FEF719FC002318460837BD4680BD0A
:1027A0000010024080B582B000AF786004484FF45A
:1027B000804107F083FD034618460837BD4680BDBB
:1027C0000004024080B582B000AF786039603B6899
:1027D000002B05D106484FF4804107F097FD04E037
:1027E00003484FF4804107F083FD0837BD4680BDA4
:1027F0000004024080B582B000AF786004484FF416
:10280000804107F041FD034618460837BD4680BDAC
:102810000004024080B584B002AF786000230093CA
:10282000002005494FF480420023FEF7CDFB002332
:1028300018460837BD4680BD0004024080B584B00C
:1028400002AF786000230093012005494FF48042D5
:102850000023FEF7B9FB002318460837BD4680BDAC
:102860000004024080B584B002AF7860002300937A
:10287000002005494FF480420123FEF7A5FB002309
:1028800018460837BD4680BD0004024080B584B0BC
:1028900002AF786000230093002005494FF4804286
:1028A0000223FEF791FB002318460837BD4680BD82
:1028B0000004024080B582B000AF786004484FF455
:1028C000004107F0FBFC034618460837BD4680BDB3
:1028D0000004024080B582B000AF786039603B6888
:1028E000002B05D106484FF4004107F00FFD04E02E
:1028F00003484FF4004107F0FBFC0837BD4680BD9C
:102900000004024080B582B000AF786004484FF404
:10291000004107F0B9FC034618460837BD4680BDA4
:102920000004024080B584B002AF786000230093B9
:10293000002005494FF400420023FEF745FB002329
:1029400018460837BD4680BD0004024080B584B0FB
:1029500002AF786000230093012005494FF4004244
:102960000023FEF731FB002318460837BD4680BD23
:102970000004024080B584B002AF78600023009369
:10298000002005494FF400420123FEF71DFB002300
:1029900018460837BD4680BD0004024080B584B0AB
:1029A00002AF786000230093002005494FF40042F5
:1029B0000223FEF709FB002318460837BD4680BDF9
:1029C0000004024080B582B000AF786004484FF444
:1029D000004107F073FC034618460837BD4680BD2A
:1029E0000000024080B582B000AF786039603B687B
:1029F000002B05D106484FF4004107F087FC04E0A6
:102A000003484FF4004107F073FC0837BD4680BD12
:102A10000000024080B582B000AF786004484FF4F7
:102A2000004107F031FC034618460837BD4680BD1B
:102A30000000024080B584B002AF786000230093AC
:102A4000002005494FF400420023FEF7BDFA0023A1
:102A500018460837BD4680BD0000024080B483B0F0
:102A600000AF7860012318460C37BD465DF8047B43
:102A7000704700BF80B584B002AF78600023009338
:102A8000002005494FF400420123FEF79DFA002380
:102A900018460837BD4680BD0000024080B584B0AE
:102AA00002AF786000230093002005494FF40042F4
:102AB0000223FEF789FA002318460837BD4680BD79
:102AC0000000024080B582B000AF786004484FF447
:102AD000005107F0F3FB034618460837BD4680BD9A
:102AE0000004024080B582B000AF786039603B6876
:102AF000002B05D106484FF4005107F007FC04E015
:102B000003484FF4005107F0F3FB0837BD4680BD82
:102B10000004024080B582B000AF786004484FF4F2
:102B2000005107F0B1FB034618460837BD4680BD8B
:102B30000004024080B584B002AF786000230093A7
:102B4000002005494FF400520023FEF73DFA002310
:102B500018460837BD4680BD0004024080B483B0EB
:102B600000AF7860012318460C37BD465DF8047B42
:102B7000704700BF80B584B002AF78600023009337
:102B8000002005494FF400520123FEF71DFA0023EF
:102B900018460837BD4680BD0004024080B584B0A9
:102BA00002AF786000230093002005494FF40052E3
:102BB0000223FEF709FA002318460837BD4680BDF8
:102BC0000004024080B582B000AF786004484FF442
:102BD000006107F073FB034618460837BD4680BD09
:102BE000000C024080B582B000AF786039603B686D
:102BF000002B05D106484FF4006107F087FB04E085
:102C000003484FF4006107F073FB0837BD4680BDF1
:102C1000000C024080B582B000AF786004484FF4E9
:102C2000006107F031FB034618460837BD4680BDFA
:102C3000000C024080B584B002AF7860002300939E
:102C4000002005494FF400620023FEF7BDF9002380
:102C500018460837BD4680BD000C024080B483B0E2
:102C600000AF7860012318460C37BD465DF8047B41
:102C7000704700BF80B584B002AF78600023009336
:102C8000002005494FF400620123FEF79DF900235F
:102C900018460837BD4680BD000C024080B584B0A0
:102CA00002AF786000230093002005494FF40062D2
:102CB0000223FEF789F9002318460837BD4680BD78
:102CC000000C024080B582B000AF786004484FF439
:102CD000806107F0F3FA034618460837BD4680BD09
:102CE000000C024080B582B000AF786039603B686C
:102CF000002B05D106484FF4806107F007FB04E084
:102D000003484FF4806107F0F3FA0837BD4680BDF1
:102D1000000C024080B582B000AF786004484FF4E8
:102D2000806107F0B1FA034618460837BD4680BDFA
:102D3000000C024080B584B002AF7860002300939D
:102D4000002005494FF480620023FEF73DF900237F
:102D500018460837BD4680BD000C024080B483B0E1
:102D600000AF7860012318460C37BD465DF8047B40
:102D7000704700BF80B584B002AF78600023009335
:102D8000002005494FF480620123FEF71DF900235E
:102D900018460837BD4680BD000C024080B584B09F
:102DA00002AF786000230093002005494FF4806251
:102DB0000223FEF709F9002318460837BD4680BDF7
:102DC000000C024080B582B000AF78600448022158
:102DD00007F074FA034618460837BD4680BD00BFA9
:102DE0000004024080B582B000AF786039603B6873
:102DF000002B04D10548022107F088FA03E00348BC
:102E0000022107F075FA0837BD4680BD0004024074
:102E100080B582B000AF78600448022107F034FA30
:102E2000034618460837BD4680BD00BF0004024077
:102E300080B584B002AF786000230093002005497C
:102E400002220023FEF7C0F8002318460837BD46CB
:102E500080BD00BF0004024080B584B002AF78603E
:102E6000002300930120054902220023FEF7ACF85D
:102E7000002318460837BD4680BD00BF000402404D
:102E800080B584B002AF786000230093002005492C
:102E900002220123FEF798F8002318460837BD46A2
:102EA00080BD00BF0004024080B584B002AF7860EE
:102EB000002300930020054902220223FEF784F834
:102EC000002318460837BD4680BD00BF00040240FD
:102ED00080B582B000AF78600448102107F0EEF9A9
:102EE000034618460837BD4680BD00BF00000240BB
:102EF00080B582B000AF786039603B68002B04D1A8
:102F00000548102107F002FA03E00348102107F0FA
:102F1000EFF90837BD4680BD0000024080B582B0A1
:102F200000AF78600448102107F0AEF90346184658
:102F30000837BD4680BD00BF0000024080B584B0A8
:102F400002AF78600023009300200549102200237F
:102F5000FEF73AF8002318460837BD4680BD00BF8B
:102F60000000024080B584B002AF78600023009377
:102F70000120054910220023FEF726F800231846F9
:102F80000837BD4680BD00BF0000024080B584B058
:102F900002AF78600023009300200549102201232E
:102FA000FEF712F8002318460837BD4680BD00BF63
:102FB0000000024080B584B002AF78600023009327
:102FC0000020054910220223FDF7FEFF00231846CA
:102FD0000837BD4680BD00BF0000024080B582B00A
:102FE00000AF78600448012107F068F903461846ED
:102FF0000837BD4680BD00BF0008024080B582B0E2
:1030000000AF786039603B68002B04D1054801218E
:1030100007F07CF903E00348012107F069F908375C
:10302000BD4680BD0008024080B582B000AF786028
:103030000448012107F028F9034618460837BD4621
:1030400080BD00BF0008024080B584B002AF786048
:10305000002300930020054901220023FDF7B4FF5F
:10306000002318460837BD4680BD00BF0008024057
:1030700080B584B002AF7860002300930120054939
:1030800001220023FDF7A0FF002318460837BD46A4
:1030900080BD00BF0008024080B584B002AF7860F8
:1030A000002300930020054901220123FDF78CFF36
:1030B000002318460837BD4680BD00BF0008024007
:1030C00080B584B002AF78600023009300200549EA
:1030D00001220223FDF778FF002318460837BD467A
:1030E00080BD00BF0008024080B582B000AF7860AC
:1030F00004484FF4805107F0E1F8034618460837BA
:10310000BD4680BD0010024080B582B000AF78603F
:1031100039603B68002B05D106484FF4805107F019
:10312000F5F804E003484FF4805107F0E1F8083760
:10313000BD4680BD0010024080B582B000AF78600F
:1031400004484FF4805107F09FF8034618460837AB
:10315000BD4680BD0010024080B584B002AF7860EB
:1031600000230093002005494FF480520023FDF70F
:103170002BFF002318460837BD4680BD00100240D3
:1031800080B584B002AF7860002300930120054928
:103190004FF480520023FDF717FF0023184608372D
:1031A000BD4680BD0010024080B584B002AF78609B
:1031B00000230093002005494FF480520123FDF7BE
:1031C00003FF002318460837BD4680BD00100240AB
:1031D00080B584B002AF78600023009300200549D9
:1031E0004FF480520223FDF7EFFE00231846083704
:1031F000BD4680BD0010024080B582B000AF78604F
:103200000448202107F05AF8034618460837BD46FF
:1032100080BD00BF0000024080B582B000AF786082
:1032200039603B68002B04D10548202107F06EF877
:1032300003E00348202107F05BF80837BD4680BD56
:103240000000024080B582B000AF786004482021C1
:1032500007F01AF8034618460837BD4680BD00BF80
:103260000000024080B584B002AF78600023009374
:103270000020054920220023FDF7A6FE0023184662
:103280000837BD4680BD00BF0000024080B584B055
:1032900002AF78600023009301200549202200231B
:1032A000FDF792FE002318460837BD4680BD00BFDB
:1032B0000000024080B584B002AF78600023009324
:1032C0000020054920220123FDF77EFE0023184639
:1032D0000837BD4680BD00BF0000024080B584B005
:1032E00002AF7860002300930020054920220223CA
:1032F000FDF76AFE002318460837BD4680BD00BFB3
:103300000000024080B582B000AF7860044804211C
:1033100006F0D4FF034618460837BD4680BD00BFFF
:103320000004024080B582B000AF786039603B682D
:10333000002B04D10548042106F0E8FF03E0034810
:10334000042106F0D5FF0837BD4680BD00040240C9
:1033500080B582B000AF78600448042106F094FF85
:10336000034618460837BD4680BD00BF0004024032
:1033700080B584B002AF7860002300930020054937
:1033800004220023FDF720FE002318460837BD461F
:1033900080BD00BF0004024080B584B002AF7860F9
:1033A000002300930120054904220023FDF70CFEB1
:1033B000002318460837BD4680BD00BF0004024008
:1033C00080B584B002AF78600023009300200549E7
:1033D00004220123FDF7F8FD002318460837BD46F7
:1033E00080BD00BF0004024080B584B002AF7860A9
:1033F000002300930020054904220223FDF7E4FD89
:10340000002318460837BD4680BD00BF00040240B7
:1034100080B582B000AF78600448802106F04EFF8E
:10342000034618460837BD4680BD00BF0010024065
:1034300080B582B000AF786039603B68002B04D162
:103440000548802106F062FF03E00348802106F072
:103450004FFF0837BD4680BD0010024080B582B0E6
:1034600000AF78600448802106F00EFF034618463E
:103470000837BD4680BD00BF0010024080B584B053
:1034800002AF7860002300930020054980220023CA
:10349000FDF79AFD002318460837BD4680BD00BFE2
:1034A0000010024080B584B002AF78600023009322
:1034B0000120054980220023FDF786FD00231846E0
:1034C0000837BD4680BD00BF0010024080B584B003
:1034D00002AF786000230093002005498022012379
:1034E000FDF772FD002318460837BD4680BD00BFBA
:1034F0000010024080B584B002AF786000230093D2
:103500000020054980220223FDF75EFD00231846B6
:103510000837BD4680BD00BF0010024080B582B0B4
:1035200000AF786004484FF4806106F0C7FE0346A0
:1035300018460837BD4680BD0010024080B582B0F5
:1035400000AF786039603B68002B05D106484FF426
:10355000806106F0DBFE04E003484FF4806106F072
:10356000C7FE0837BD4680BD0010024080B582B05E
:1035700000AF786004484FF4806106F085FE034692
:1035800018460837BD4680BD0010024080B584B0A3
:1035900002AF786000230093002005494FF4806259
:1035A0000023FDF711FD002318460837BD4680BDF6
:1035B0000010024080B584B002AF78600023009311
:1035C000012005494FF480620023FDF7FDFC002334
:1035D00018460837BD4680BD0010024080B584B053
:1035E00002AF786000230093002005494FF4806209
:1035F0000123FDF7E9FC002318460837BD4680BDCE
:103600000010024080B584B002AF786000230093C0
:10361000002005494FF480620223FDF7D5FC00230A
:1036200018460837BD4680BD0010024080B582B004
:1036300000AF78600448012106F040FE03461846BA
:103640000837BD4680BD00BF0004024080B582B08F
:1036500000AF786039603B68002B04D10548012138
:1036600006F054FE03E00348012106F041FE08374E
:10367000BD4680BD0004024080B582B000AF7860D6
:103680000448012106F000FE034618460837BD46EF
:1036900080BD00BF0004024080B584B002AF7860F6
:1036A000002300930020054901220023FDF78CFC34
:1036B000002318460837BD4680BD00BF0004024005
:1036C00080B584B002AF78600023009301200549E3
:1036D00001220023FDF778FC002318460837BD4679
:1036E00080BD00BF0004024080B584B002AF7860A6
:1036F000002300930020054901220123FDF764FC0B
:10370000002318460837BD4680BD00BF00040240B4
:1037100080B584B002AF7860002300930020054993
:1037200001220223FDF750FC002318460837BD464E
:1037300080BD00BF0004024080B582B000AF786059
:103740000448102106F0BAFD034618460837BD4666
:1037500080BD00BF0010024080B582B000AF78602D
:1037600039603B68002B04D10548102106F0CEFDDE
:1037700003E00348102106F0BBFD0837BD4680BDBD
:103780000010024080B582B000AF7860044810217C
:1037900006F07AFD034618460837BD4680BD00BFD7
:1037A0000010024080B584B002AF7860002300931F
:1037B0000020054910220023FDF706FC00231846CF
:1037C0000837BD4680BD00BF0010024080B584B000
:1037D00002AF7860002300930120054910220023E6
:1037E000FDF7F2FB002318460837BD4680BD00BF39
:1037F0000010024080B584B002AF786000230093CF
:103800000020054910220123FDF7DEFB00231846A6
:103810000837BD4680BD00BF0010024080B584B0AF
:1038200002AF786000230093002005491022022394
:10383000FDF7CAFB002318460837BD4680BD00BF10
:103840000010024080B582B000AF786004480421C7
:1038500006F034FD034618460837BD4680BD00BF5C
:103860000010024080B582B000AF786039603B68DC
:10387000002B04D10548042106F048FD03E003486D
:10388000042106F035FD0837BD4680BD001002401A
:1038900080B582B000AF78600448042106F0F4FCE3
:1038A000034618460837BD4680BD00BF00100240E1
:1038B00080B584B002AF78600023009300200549F2
:1038C00004220023FDF780FB002318460837BD467D
:1038D00080BD00BF0010024080B584B002AF7860A8
:1038E000002300930120054904220023FDF76CFB0F
:1038F000002318460837BD4680BD00BF00100240B7
:1039000080B584B002AF78600023009300200549A1
:1039100004220123FDF758FB002318460837BD4653
:1039200080BD00BF0010024080B584B002AF786057
:10393000002300930020054904220223FDF744FBE5
:10394000002318460837BD4680BD00BF0010024066
:1039500080B582B000AF786004484FF4807106F003
:10396000ADFC034618460837BD4680BD0010024036
:1039700080B582B000AF786039603B68002B05D11C
:1039800006484FF4807106F0C1FC04E003484FF490
:10399000807106F0ADFC0837BD4680BD00100240C6
:1039A00080B582B000AF786004484FF4807106F0B3
:1039B0006BFC034618460837BD4680BD0010024028
:1039C00080B584B002AF78600023009300200549E1
:1039D0004FF480720023FDF7F7FA002318460837EA
:1039E000BD4680BD0010024080B584B002AF786053
:1039F00000230093012005494FF480720023FDF756
:103A0000E3FA002318460837BD4680BD0010024087
:103A100080B584B002AF7860002300930020054990
:103A20004FF480720123FDF7CFFA002318460837C0
:103A3000BD4680BD0010024080B584B002AF786002
:103A400000230093002005494FF480720223FDF704
:103A5000BBFA002318460837BD4680BD001002405F
:103A600080B582B000AF78600448082106F026FCDB
:103A7000034618460837BD4680BD00BF001002400F
:103A800080B582B000AF786039603B68002B04D10C
:103A90000548082106F03AFC03E00348082106F037
:103AA00027FC0837BD4680BD0010024080B582B0BB
:103AB00000AF78600448082106F0E6FB034618468C
:103AC0000837BD4680BD00BF0010024080B584B0FD
:103AD00002AF7860002300930020054908220023EC
:103AE000FDF772FA002318460837BD4680BD00BFB7
:103AF0000010024080B584B002AF786000230093CC
:103B00000120054908220023FDF75EFA002318462C
:103B10000837BD4680BD00BF0010024080B584B0AC
:103B200002AF78600023009300200549082201239A
:103B3000FDF74AFA002318460837BD4680BD00BF8E
:103B40000010024080B584B002AF7860002300937B
:103B50000020054908220223FDF736FA0023184603
:103B60000837BD4680BD00BF0010024080B582B05E
:103B700000AF78600448202106F0A0FB03461846F9
:103B80000837BD4680BD00BF0008024080B582B046
:103B900000AF786039603B68002B04D105482021D4
:103BA00006F0B4FB03E00348202106F0A1FB083730
:103BB000BD4680BD0008024080B582B000AF78608D
:103BC0000448202106F060FB034618460837BD462E
:103BD00080BD00BF0008024080B584B002AF7860AD
:103BE000002300930020054920220023FDF7ECF973
:103BF000002318460837BD4680BD00BF00080240BC
:103C000080B584B002AF78607B680222DA6000235E
:103C100000930120044920220023FDF7D5F9002359
:103C200018460837BD4680BD0008024080B584B004
:103C300002AF786000230093002005492022012371
:103C4000FDF7C2F9002318460837BD4680BD00BF06
:103C50000008024080B584B002AF78600023009372
:103C60000020054920220223FDF7AEF90023184663
:103C70000837BD4680BD00BF0008024080B582B055
:103C800000AF78600448022106F018FB034618468E
:103C90000837BD4680BD00BF0008024080B582B035
:103CA00000AF786039603B68002B04D105480221E1
:103CB00006F02CFB03E00348022106F019FB08374D
:103CC000BD4680BD0008024080B582B000AF78607C
:103CD0000448022106F0D8FA034618460837BD46C4
:103CE00080BD00BF0008024080B584B002AF78609C
:103CF000002300930020054902220023FDF764F908
:103D0000002318460837BD4680BD00BF00080240AA
:103D100080B584B002AF78607B680222DA6000234D
:103D200000930120044902220023FDF74DF90023EE
:103D300018460837BD4680BD0008024080B584B0F3
:103D400002AF78600023009300200549022201237E
:103D5000FDF73AF9002318460837BD4680BD00BF7D
:103D60000008024080B584B002AF78600023009361
:103D70000020054902220223FDF726F900231846F8
:103D80000837BD4680BD00BF0008024080B582B044
:103D900000AF78600448042106F090FA0346184604
:103DA0000837BD4680BD00BF0008024080B582B024
:103DB00000AF786039603B68002B04D105480421CE
:103DC00006F0A4FA03E00348042106F091FA08374C
:103DD000BD4680BD0008024080B582B000AF78606B
:103DE0000448042106F050FA034618460837BD4639
:103DF00080BD00BF0008024080B584B002AF78608B
:103E0000002300930020054904220023FDF7DCF87D
:103E1000002318460837BD4680BD00BF0008024099
:103E200080B584B002AF78607B680222DA6000233C
:103E300000930120044904220023FDF7C5F8002364
:103E400018460837BD4680BD0008024080B584B0E2
:103E500002AF78600023009300200549042201236B
:103E6000FDF7B2F8002318460837BD4680BD00BFF5
:103E70000008024080B584B002AF78600023009350
:103E80000020054904220223FDF79EF8002318466E
:103E90000837BD4680BD00BF0008024080B582B033
:103EA00000AF78600448082106F008FA0346184677
:103EB0000837BD4680BD00BF0008024080B582B013
:103EC00000AF786039603B68002B04D105480821B9
:103ED00006F01CFA03E00348082106F009FA083747
:103EE000BD4680BD0008024080B582B000AF78605A
:103EF0000448082106F0C8F9034618460837BD46AD
:103F000080BD00BF0008024080B584B002AF786079
:103F1000002300930020054908220023FDF754F8F0
:103F2000002318460837BD4680BD00BF0008024088
:103F300080B584B002AF78607B680222DA6000232B
:103F400000930120044908220023FDF73DF80023D7
:103F500018460837BD4680BD0008024080B584B0D1
:103F600002AF786000230093002005490822012356
:103F7000FDF72AF8002318460837BD4680BD00BF6C
:103F80000008024080B584B002AF7860002300933F
:103F90000020054908220223FDF716F800231846E1
:103FA0000837BD4680BD00BF0008024080B582B022
:103FB00000AF78600448102106F080F903461846E7
:103FC0000837BD4680BD00BF0008024080B582B002
:103FD00000AF786039603B68002B04D105481021A0
:103FE00006F094F903E00348102106F081F9083740
:103FF000BD4680BD0008024080B582B000AF786049
:104000000448102106F040F9034618460837BD461B
:1040100080BD00BF0008024080B584B002AF786068
:10402000002300930020054910220023FCF7CCFF59
:10403000002318460837BD4680BD00BF0008024077
:1040400080B584B002AF78607B680222DA6000231A
:1040500000930120044910220023FCF7B5FF002340
:1040600018460837BD4680BD0008024080B584B0C0
:1040700002AF78600023009300200549102201233D
:10408000FCF7A2FF002318460837BD4680BD00BFDD
:104090000008024080B584B002AF7860002300932E
:1040A0000020054910220223FCF78EFF002318464A
:1040B0000837BD4680BD00BF0008024080B582B011
:1040C00000AF786004484FF4006106F0F7F803464B
:1040D00018460837BD4680BD0010024080B582B04A
:1040E00000AF786039603B68002B05D106484FF47B
:1040F000006106F00BF904E003484FF4006106F09C
:10410000F7F80837BD4680BD0010024080B582B088
:1041100000AF786004484FF4006106F0B5F803463C
:1041200018460837BD4680BD0010024080B584B0F7
:1041300002AF786000230093002005494FF400622D
:104140000023FCF741FF002318460837BD4680BD19
:104150000010024080B584B002AF78607B68022214
:10416000DA6000230093012005494FF40062002328
:10417000FCF72AFF002318460837BD4680BD00BF64
:104180000010024080B584B002AF78600023009335
:10419000002005494FF400620123FCF715FF0023BE
:1041A00018460837BD4680BD0010024080B584B077
:1041B00002AF786000230093002005494FF40062AD
:1041C0000223FCF701FF002318460837BD4680BDD7
:1041D0000010024080B582B000AF786004484021F2
:1041E00006F06CF8034618460837BD4680BD00BF90
:1041F0000010024080B582B000AF786039603B6843
:10420000002B04D10548402106F080F803E0034864
:10421000402106F06DF80837BD4680BD0010024011
:1042200080B582B000AF78600448402106F02CF8D9
:10423000034618460837BD4680BD00BF0010024047
:1042400080B584B002AF7860002300930020054958
:1042500040220023FCF7B8FE002318460837BD466D
:1042600080BD00BF0010024080B584B002AF78600E
:104270007B680222DA600023009301200449402277
:104280000023FCF7A1FE002318460837BD4680BD79
:104290000010024080B584B002AF78600023009324
:1042A0000020054940220123FCF78EFE002318461A
:1042B0000837BD4680BD00BF0010024080B584B005
:1042C00002AF7860002300930020054940220223BA
:1042D000FCF77AFE002318460837BD4680BD00BFB4
:1042E0000010024080B582B000AF78600448202101
:1042F00005F0E4FF034618460837BD4680BD00BF01
:104300000010024080B582B000AF786039603B6831
:10431000002B04D10548202105F0F8FF03E00348F5
:10432000202105F0E5FF0837BD4680BD00100240A2
:1043300080B582B000AF78600448202105F0A4FF6A
:10434000034618460837BD4680BD00BF0010024036
:1043500080B584B002AF7860002300930020054947
:1043600020220023FCF730FE002318460837BD4604
:1043700080BD00BF0010024080B584B002AF7860FD
:104380007B680222DA600023009301200449202286
:104390000023FCF719FE002318460837BD4680BDF0
:1043A0000010024080B584B002AF78600023009313
:1043B0000020054920220123FCF706FE00231846B1
:1043C0000837BD4680BD00BF0010024080B584B0F4
:1043D00002AF7860002300930020054920220223C9
:1043E000FCF7F2FD002318460837BD4680BD00BF2C
:1043F0000010024080B582B000AF786004484FF4EE
:10440000007105F05BFF034618460837BD4680BDC6
:104410000010024080B582B000AF786039603B6820
:10442000002B05D106484FF4007105F06FFF04E042
:1044300003484FF4007105F05BFF0837BD4680BDAF
:104440000010024080B582B000AF786004484FF49D
:10445000007105F019FF034618460837BD4680BDB8
:104460000010024080B584B002AF78600023009352
:10447000002005494FF400720023FCF7A5FD00233E
:1044800018460837BD4680BD0010024080B584B094
:1044900002AF78607B680222DA600023009301207B
:1044A00005494FF400720023FCF78EFD00231846E7
:1044B0000837BD4680BD00BF0010024080B584B003
:1044C00002AF786000230093002005494FF400728A
:1044D0000123FCF779FD002318460837BD4680BD4F
:1044E0000010024080B584B002AF786000230093D2
:1044F000002005494FF400720223FCF765FD0023FC
:1045000018460837BD4680BD0010024080B582B015
:1045100000AF786004484FF4804105F0CFFE0346B9
:1045200018460837BD4680BD0010024080B582B0F5
:1045300000AF786039603B68002B05D106484FF426
:10454000804105F0E3FE04E003484FF4804105F0AC
:10455000CFFE0837BD4680BD0010024080B582B056
:1045600000AF786004484FF4804105F08DFE0346AB
:1045700018460837BD4680BD0010024080B584B0A3
:1045800002AF786000230093002005494FF4804279
:104590000023FCF719FD002318460837BD4680BDEF
:1045A0000010024080B584B002AF78607B680222C0
:1045B000DA6000230093012005494FF48042002374
:1045C000FCF702FD002318460837BD4680BD00BF3A
:1045D0000010024080B584B002AF786000230093E1
:1045E000002005494FF480420123FCF7EDFC002335
:1045F00018460837BD4680BD0010024080B584B023
:1046000002AF786000230093002005494FF48042F8
:104610000223FCF7D9FC002318460837BD4680BDAD
:104620000010024080B582B000AF786004484FF4BB
:10463000005105F043FE034618460837BD4680BDCD
:104640000010024080B582B000AF786039603B68EE
:10465000002B05D106484FF4005105F057FE04E049
:1046600003484FF4005105F043FE0837BD4680BDB6
:104670000010024080B582B000AF786004484FF46B
:10468000005105F001FE034618460837BD4680BDBF
:104690000010024080B584B002AF78600023009320
:1046A000002005494FF400520023FCF78DFC002345
:1046B00018460837BD4680BD0010024080B584B062
:1046C00002AF78607B680222DA6000230093012049
:1046D00005494FF400520023FCF776FC00231846EE
:1046E0000837BD4680BD00BF0010024080B584B0D1
:1046F00002AF786000230093002005494FF4005278
:104700000123FCF761FC002318460837BD4680BD35
:104710000010024080B584B002AF7860002300939F
:10472000002005494FF400520223FCF74DFC002302
:1047300018460837BD4680BD0010024080B582B0E3
:1047400000AF78607B680122DA600448202103F022
:10475000E7FC002318460837BD4680BD000802402C
:10476000A0F10800FFF7EABF90B583B000AF786012
:104770000C48202103F0BCFD04467B681B684833CD
:104780001B6878689847034618460CF04DFD0346B1
:10479000204619460CF050FE034618460C37BD461D
:1047A00090BD00BF00080240A0F10800FFF7DCBF89
:1047B00080B582B000AF78607B680122DA6004487F
:1047C000022103F0ADFC002318460837BD4680BD2A
:1047D00000080240A0F10800FFF7EABF90B583B0DF
:1047E00000AF78600C48022103F082FD04467B682C
:1047F0001B6848331B6878689847034618460CF0D6
:1048000013FD0346204619460CF016FE03461846D3
:104810000C37BD4690BD00BF00080240A0F1080063
:10482000FFF7DCBF80B582B000AF78607B68012203
:10483000DA600448042103F073FC002318460837AB
:10484000BD4680BD00080240A0F10800FFF7EABFA6
:1048500090B583B000AF78600C48042103F048FDA8
:1048600004467B681B6848331B6878689847034692
:1048700018460CF0D9FC0346204619460CF0DCFD26
:10488000034618460C37BD4690BD00BF00080240E5
:10489000A0F10800FFF7DCBF80B582B000AF786000
:1048A0007B680122DA600448082103F039FC002308
:1048B00018460837BD4680BD00080240A0F1080038
:1048C000FFF7EABF90B583B000AF78600C480821CD
:1048D00003F00EFD04467B681B6848331B6878684C
:1048E0009847034618460CF09FFC0346204619469D
:1048F0000CF0A2FD034618460C37BD4690BD00BF24
:1049000000080240A0F10800FFF7DCBF80B582B0CC
:1049100000AF78607B680122DA600448102103F060
:10492000FFFB002318460837BD4680BD0008024043
:10493000A0F10800FFF7EABF90B583B000AF786040
:104940000C48102103F0D4FC04467B681B684833F4
:104950001B6878689847034618460CF065FC0346C8
:10496000204619460CF068FD034618460C37BD4634
:1049700090BD00BF00080240A0F10800FFF7DCBFB7
:1049800080B582B000AF7860054806494FF44052C8
:10499000FCF730FD002318460837BD4680BD00BF38
:1049A00000080040000C024080B582B000AF786083
:1049B0007B681B7A002B05D00648FCF7A7FD034651
:1049C0005B4203E00348FCF7A1FD034618460837A5
:1049D000BD4680BD0008004080B582B000AF786061
:1049E00004480549C022FCF705FD00231846083796
:1049F000BD4680BD000400400000024080B582B08A
:104A000000AF78607B681B7A002B05D00648FCF766
:104A10007DFD03465B4203E00348FCF777FD034658
:104A200018460837BD4680BD0004004080B582B0FE
:104A300000AF7860044805490322FCF7DBFC002343
:104A400018460837BD4680BD000C004000000240FB
:104A500080B582B000AF78607B681B7A002B05D0F0
:104A60000648FCF753FD03465B4203E00348FCF7AE
:104A70004DFD034618460837BD4680BD000C00407A
:104A800080B586B000AFF860B9607A60FB6801223B
:104A9000DA60B8680CF0E2FD0346094809494FF4B2
:104AA0000062FBF735FC03467B61054802217A680A
:104AB000FBF798FB7B6918461837BD4680BD00BFE1
:104AC0000000014000100240A0F10800FFF7D8BF2D
:104AD00080B582B000AF78603960044802213A683E
:104AE000FBF780FB0837BD4680BD00BF00000140DA
:104AF000A0F10800FFF7ECBF80B582B000AF78608E
:104B000004480221FBF7D0FB034618460837BD4690
:104B100080BD00BF00000140A0F10800FFF7ECBF1E
:104B200080B586B000AFF860B9607A60FB6801229A
:104B3000DA60B8680CF092FD034608480849402244
:104B4000FBF7E6FB03467B61044802217A68FBF72A
:104B500049FB7B6918461837BD4680BD00400140BF
:104B600000100240A0F10800FFF7DABF80B582B064
:104B700000AF78603960044802213A68FBF732FBE5
:104B80000837BD4680BD00BF00400140A0F10800CD
:104B9000FFF7ECBF80B582B000AF78600448022117
:104BA000FBF782FB034618460837BD4680BD00BFB1
:104BB00000400140A0F10800FFF7ECBF80B586B0CF
:104BC00000AFF860B9607A60FB680122DA60B8680B
:104BD0000CF044FD0346084808492022FBF798FBE7
:104BE00003467B61044801217A68FBF7FBFA7B6985
:104BF00018461837BD4680BD0040014000100240F5
:104C0000A0F10800FFF7DABF80B582B000AF78608E
:104C10003960044801213A68FBF7E4FA0837BD46D9
:104C200080BD00BF00400140A0F10800FFF7ECBFCD
:104C300080B582B000AF786004480121FBF734FBF7
:104C4000034618460837BD4680BD00BF00400140FE
:104C5000A0F10800FFF7ECBF80B586B000AFF860A8
:104C6000B9607A60FB680122DA60B8680CF0F6FC83
:104C70000346094809494FF40072FBF749FB034614
:104C80007B61054801217A68FBF7ACFA7B6918461D
:104C90001837BD4680BD00BF000001400010024033
:104CA000A0F10800FFF7D8BF80B582B000AF7860F0
:104CB0003960044801213A68FBF794FA0837BD4689
:104CC00080BD00BF00000140A0F10800FFF7ECBF6D
:104CD00080B582B000AF786004480121FBF7E4FAA8
:104CE000034618460837BD4680BD00BF000001409E
:104CF000A0F10800FFF7ECBF80B586B000AFF86008
:104D0000B9607A60FB680122DA60B8680CF0A6FC32
:104D10000346094809494FF48042FBF7F9FA034674
:104D20007B61054804217A68FBF75CFA7B691846C9
:104D30001837BD4680BD00BF000001400010024092
:104D4000A0F10800FFF7D8BF80B582B000AF78604F
:104D50003960044804213A68FBF744FA0837BD4635
:104D600080BD00BF00000140A0F10800FFF7ECBFCC
:104D700080B582B000AF786004480421FBF794FA54
:104D8000034618460837BD4680BD00BF00000140FD
:104D9000A0F10800FFF7ECBF80B586B000AFF86067
:104DA000B9607A60FB680122DA60B8680CF056FCE2
:104DB0000346094809494FF40052FBF7A9FA034694
:104DC0007B61054803217A68FBF70CFA7B6918467A
:104DD0001837BD4680BD00BF0000014000100240F2
:104DE000A0F10800FFF7D8BF80B582B000AF7860AF
:104DF0003960044803213A68FBF7F4F90837BD46E7
:104E000080BD00BF00000140A0F10800FFF7ECBF2B
:104E100080B582B000AF786004480321FBF744FA04
:104E2000034618460837BD4680BD00BF000001405C
:104E3000A0F10800FFF7ECBF80B586B000AFF860C6
:104E4000B9607A60FB680122DA60B8680CF006FC91
:104E50000346094809494FF48042FBF759FA0346D3
:104E60007B61054802217A68FBF7BCF97B6918462B
:104E70001837BD4680BD00BF000401400004024059
:104E8000A0F10800FFF7D8BF80B582B000AF78600E
:104E90003960044802213A68FBF7A4F90837BD4697
:104EA00080BD00BF00040140A0F10800FFF7ECBF87
:104EB00080B582B000AF786004480221FBF7F4F9B6
:104EC000034618460837BD4680BD00BF00040140B8
:104ED000A0F10800FFF7ECBF80B586B000AFF86026
:104EE000B9607A60FB680122DA60B8680CF0B6FB42
:104EF0000346094809494FF40042FBF709FA034603
:104F00007B61054803217A68FBF76CF97B691846D9
:104F10001837BD4680BD00BF0004014000040240B8
:104F2000A0F10800FFF7D8BF80B582B000AF78606D
:104F30003960044803213A68FBF754F90837BD4645
:104F400080BD00BF00040140A0F10800FFF7ECBFE6
:104F500080B582B000AF786004480321FBF7A4F964
:104F6000034618460837BD4680BD00BF0004014017
:104F7000A0F10800FFF7ECBF80B586B000AFF86085
:104F8000B9607A60FB680122DA60B8680CF066FBF1
:104F90000346084808490222FBF7BAF903467B6139
:104FA000044803217A68FBF71DF97B691846183716
:104FB000BD4680BD0004014000040240A0F108008D
:104FC000FFF7DABF80B582B000AF7860396004487F
:104FD00003213A68FBF706F90837BD4680BD00BFDC
:104FE00000040140A0F10800FFF7ECBF80B582B0DB
:104FF00000AF786004480321FBF756F903461846D2
:105000000837BD4680BD00BF00040140A0F1080084
:10501000FFF7ECBF90B589B004AFF860B9607A6073
:105020003B60BC683B689AB23B6A9BB209490091FD
:10503000082101910292039307482146054A04235F
:1050400007F060FD054A7B6813600023184614379B
:10505000BD4690BD000002400044004050090020C1
:1050600080B582B000AF78600B46FB7000BF0A4885
:105070008021FCF751FC0346002B0CBF01230023C9
:10508000DBB2002BF3D1FB789BB203481946FCF747
:10509000D9FB0837BD4680BD00440040B0B500AF25
:1050A000074B1B681B681C68054B1D680548FCF70F
:1050B000DBFB0346DBB228461946A047B0BD00BF64
:1050C000500900200044004080B500AFFFF7E6FF24
:1050D00080BD00BF90B589B004AFF860B9607A6058
:1050E0003B60BC683B689AB23B6A9BB20A4900913C
:1050F0004FF4006101910292039308482146064A49
:105100004FF4806307F0FEFC054A7B6813600023C0
:1051100018461437BD4690BD0004024000480040C8
:105120005409002080B582B000AF78600B46FB7058
:1051300000BF0A488021FCF7EFFB0346002B0CBFA1
:1051400001230023DBB2002BF3D1FB789BB2034891
:105150001946FCF777FB0837BD4680BD0048004084
:1051600080B582B000AF0346FB7100BF0A488021C2
:10517000FCF7D2FB0346002B0CBF01230023DBB25C
:10518000002BF3D1FB799BB203481946FCF75AFB7D
:105190000837BD4680BD00BF0044004090B585B0D3
:1051A00004AF4FF48E7013F09FFD044622464FF477
:1051B0008E73104600211A460DF0C4FD2046FCF700
:1051C0003BFE0B4B1C600B4B009308230193002309
:1051D00002930823039308484FF41651054A042309
:1051E00007F090FC002318460437BD4690BD00BF71
:1051F00050090020000002400044004080B483B009
:1052000000AF78607B680022C3F804217B6800222D
:10521000C3F808217B6818460C37BD465DF8047B4F
:10522000704700BF80B485B000AF78600B46FB705C
:105230007B68D3F808315A1C114B83FB0213D91138
:10524000D317C91A0B461B020B44D31AFB607B68A9
:10525000D3F80421FB689A4201D101230AE07B685C
:10526000D3F808317A68F978D1547B68FA68C3F8C2
:105270000821002318461437BD465DF8047B7047AB
:10528000817F807F80B483B000AF78607B68D3F883
:1052900004217B68D3F808319A4201D1012300E050
:1052A000002318460C37BD465DF8047B704700BFED
:1052B00080B485B000AF78607B68D3F804217B6848
:1052C000D3F808319A4201D1002317E07B68D3F864
:1052D00004317A68D35CFB737B68D3F80431591CC2
:1052E000094B83FB0123DA11CB17D21A13461B0299
:1052F0001344CA1A7B68C3F80421FB7B1846143791
:10530000BD465DF8047B7047817F807F80B483B0A9
:1053100000AF78607B68094A1A607B6801225A6096
:105320007B6800221A727B684FF07E52DA607B68DD
:1053300018460C37BD465DF8047B7047103F0208E5
:1053400080B483B000AF78607B68044A1A607B68E1
:1053500018460C37BD465DF8047B7047C83E02080E
:1053600080B483B000AF78607B68044A1A607B68C1
:1053700018460C37BD465DF8047B7047A83E02080E
:1053800080B582B000AF78607B681846FFF7D8FF21
:105390007B6808331846FFF7E3FF7B68064A1A600C
:1053A0007B68064A9A607B680022DA607B68184650
:1053B0000837BD4680BD00BFF03002084831020802
:1053C00080B582B000AF78607B681846FFF7B8FF01
:1053D0007B6808331846FFF7C3FF7B68064A1A60EC
:1053E0007B68064A9A607B680022DA607B68184610
:1053F0000837BD4680BD00BF78300208D0300208B3
:1054000080B582B000AF78607B681846FFF798FFE0
:105410007B6808331846FFF7A3FF7B68064A1A60CB
:105420007B68064A9A607B680022DA607B681846CF
:105430000837BD4680BD00BF003002085830020862
:1054400080B582B000AF78607B681846FFF778FFC0
:105450007B6808331846FFF783FF7B68064A1A60AB
:105460007B68064A9A607B680022DA607B6818468F
:105470000837BD4680BD00BF882F0208E02F020814
:1054800080B483B000AF78607B68044A1A607B68A0
:1054900018460C37BD465DF8047B7047883E02080D
:1054A00080B582B000AF78607B681846FFF748FF90
:1054B0007B6808331846FFF7E3FF7B68064A1A60EB
:1054C0007B68064A9A607B680022DA607B6818462F
:1054D0000837BD4680BD00BF982E0208EC2E02089A
:1054E00080B582B000AF78607B681846FFF728FF70
:1054F0007B6808331846FFF7C3FF7B68064A1A60CB
:105500007B68064A9A607B680022DA607B681846EE
:105510000837BD4680BD00BF202E0208742E020849
:1055200080B582B000AF78607B681846FFF708FF4F
:105530007B6808331846FFF7A3FF7B68064A1A60AA
:105540007B68064A9A607B680022DA607B681846AE
:105550000837BD4680BD00BFA82D0208FC2D0208FB
:1055600080B584B000AFF860B9607A603B60FB68DA
:10557000BA681A60FB683A689A60FB687A685A6091
:10558000FB681B681B680C331B68FA6812681046BE
:105590000D494FF07C529847FB689B681B6820338D
:1055A0001B68FA68926810469847FB685B681B683E
:1055B00020331B68FA68526810469847FB68184603
:1055C0001037BD4680BD00BF00007A4480B584B06E
:1055D00000AFF860B9607A603B60FB68BA681A6037
:1055E000FB687A685A60FB683A689A60FB68BA6937
:1055F000DA60FB68FA691A61FB683A6A5A61BB694A
:105600001B681B68B8699847FB691B681B68F869C9
:1056100098473B6A1B681B68386A9847FB681846BE
:105620001037BD4680BD00BF80B584B000AFF860C4
:10563000B9607A603B60FB684FF000021A60FB685B
:105640004FF000025A60FB684FF000029A60FB685E
:105650004FF00002DA60FB680022DA62FB682D4A34
:105660001A63FB6800225A63FB6800229A63FB6896
:105670000022DA63FB687A681A64FB683A685A6445
:10568000FB68BA699A647B681B681B6878689847EE
:105690003B681B681B6838689847BB691B681B68B8
:1056A000B86998477B681B6804331B68786898471B
:1056B0000246FB685A663B681B6804331B683868FF
:1056C00098470246FB689A66BB691B6804331B68EF
:1056D000B86998470246FB68DA66FCF75FF902464C
:1056E0000B46FB68DA63FB68BA681A63FB684FF025
:1056F00000021A62FB681B6B18460BF055F9024654
:105700000B4605480DF06CFBFB6818461037BD468C
:1057100080BD00BF0000F041403C020880B483B06F
:1057200000AF78607B68044A1A607B6818460C37C3
:10573000BD465DF8047B7047E03F020880B582B04B
:1057400000AF78607B681846FFF7E8FF7B68034A84
:105750001A607B6818460837BD4680BDE02B0208FA
:1057600080B582B000AF78607B681846FFF7E8FD2F
:105770007B68034A1A607B6818460837BD4680BDBF
:105780001836020880B582B000AF78607B68184692
:10579000FFF7D6FD7B68034A1A607B681846083716
:1057A000BD4680BDD035020880B582B000AF7860BC
:1057B0007B681846FFF7C4FD7B68034A1A607B6864
:1057C00018460837BD4680BD8835020880B582B0CE
:1057D00000AF78607B681846FFF7B2FD7B68034A2C
:1057E0001A607B6818460837BD4680BD4035020800
:1057F00080B582B000AF78607B681846FFF7A0FDE7
:105800007B68034A1A607B6818460837BD4680BD2E
:105810009837020880B582B000AF78607B68184680
:10582000FFF78EFD7B68034A1A607B6818460837CD
:10583000BD4680BD5037020880B582B000AF7860A9
:105840007B681846FFF77CFD7B6808331846FFF736
:1058500017FE7B68044A1A607B68044A9A607B687A
:1058600018460837BD4680BDD83602082C370208D6
:1058700080B582B000AF78607B681846FFF760FDA6
:105880007B6808331846FFF7FBFD7B68044A1A6003
:105890007B68044A9A607B6818460837BD4680BD1D
:1058A00060360208B436020880B582B000AF786076
:1058B0007B681846FFF744FD7B6808331846FFF7FE
:1058C000DFFD7B68044A1A607B68044A9A607B6843
:1058D00018460837BD4680BDC83402081C3502088A
:1058E00080B582B000AF78607B681846FFF70EFD88
:1058F0007B68034A1A607B6818460837BD4680BD3E
:10590000302C020880B582B000AF78607B68184602
:10591000FFF7FCFC7B68034A1A607B68184608376F
:10592000BD4680BD202C020880B582B000AF7860F3
:105930007B681846FFF7EAFC7B68034A1A607B68BD
:1059400018460837BD4680BD102C020880B582B0CD
:1059500000AF78607B681846FFF7F2FC7B68034A6B
:105960001A607B6818460837BD4680BD803402083F
:1059700080B582B000AF78607B681846FFF7E0FC26
:105980007B68034A1A607B6818460837BD4680BDAD
:105990003834020880B582B000AF78607B68184662
:1059A000FFF7CEFC7B68034A1A607B68184608370D
:1059B000BD4680BDF033020880B582B000AF78608C
:1059C0007B681846FFF7BCFC7B68034A1A607B685B
:1059D00018460837BD4680BDA833020880B582B09E
:1059E00000AF78607B681846FFF7AAFC7B68034A23
:1059F0001A607B6818460837BD4680BD60330208D0
:105A000080B582B000AF78607B681846FFF798FCDD
:105A10007B68034A1A607B6818460837BD4680BD1C
:105A200018330208000000002DE9F04FADF5797D34
:105A300012AF4FF00003C7F8943307F12803ED4A83
:105A400019464423084611461A460DF0E1F807F1BD
:105A50006C03E94A19464423084611461A460DF0DC
:105A6000D7F84FF00003C7F890334FF00003C7F8A2
:105A70008C33E24BC7F838330023C7F87033002368
:105A8000C7F86C3307F543731846FFF757FE07F561
:105A9000437318464FF4E13100220823FCF760FB02
:105AA00007F53F731846FFF76BFC07F53F73184681
:105AB000FCF77CFB07F53B731846FFF781FC07F505
:105AC0003B731846FCF772FB07F537731846FFF770
:105AD00097FC07F537731846FCF768FB07F5337337
