:020000040800F2
:1000000038580120151A0008015F00081D5F00081C
:10001000395F0008555F0008715F000800000000AC
:100020000000000000000000000000008D5F0008DC
:10003000A95F000800000000C55F00083119000832
:100040006D1A00086D1A00086D1A00086D1A000874
:100050006D1A00086D1A00086D1A00086D1A000864
:100060006D1A00086D1A00086D1A00086D1A000854
:100070006D1A00086D1A00086D1A00086D1A000844
:100080006D1A00086D1A00086D1A00086D1A000834
:100090006D1A00086D1A00086D1A00086D1A000824
:1000A0006D1A0008191100086D1A00086D1A000871
:1000B00061110008AD110008F51100086D1A000863
:1000C0006D1A00086D1A00086D1A00086D1A0008F4
:1000D0006D1A00086D1A00086D1A00086D1A0008E4
:1000E0006D1A00086D1A000859160008CD12000894
:1000F000851200086D1A00086D1A00086D1A0008B4
:100100006D1A0008B56100083D1200086D1A00085C
:100110006D1A00086D1A00086D1A00086D1A0008A3
:100120006D1A00086D1A00086D1A0008C1610008F8
:100130006D1A00086D1A00086D1A00086D1A000883
:100140006D1A00086D1A00086D1A0008491600089B
:100150006D1A00086D1A00086D1A00086D1A000863
:100160006D1A00086D1A00086D1A00086D1A000853
:100170006D1A00086D1A00086D1A00086D1A000843
:100180006D1A00086D1A000810B5054C237833B9B4
:10019000044B13B10448AFF300800123237010BD5A
:1001A0001009002000000000E8FF0108084B10B50E
:1001B0001BB108480849AFF300800848036803B939
:1001C00010BD074B002BFBD0BDE81040184700BF07
:1001D00000000000E8FF01081409002008090020C1
:1001E0000000000080B584B000AFF8600B467A6074
:1001F000FB72FB7A013B032B52D801A252F823F089
:100200001102000835020008590200087D020008AA
:10021000FB68DB6A18460AF08BFF034618467968CC
:100220000AF0DEFF034618460BF0C6F90246FB68EB
:100230005A6336E0FB68DB6A18460AF079FF03462A
:10024000184679680AF0CCFF034618460BF0B4F95B
:100250000246FB689A6324E0FB68DB6A18460AF0F2
:1002600067FF0346184679680AF0BAFF0346184646
:100270000BF0A2F90246FB68DA6312E0FB68DB6A66
:1002800018460AF055FF0346184679680AF0A8FF99
:10029000034618460BF090F90246FB681A6400E02A
:1002A00000BF1037BD4680BD80B582B000AF78601A
:1002B0000B46FB70FB78012B06D17B685B6B184605
:1002C0000AF036FF03461FE0FB78022B06D17B685D
:1002D0009B6B18460AF02CFF034615E0FB78032BB6
:1002E00006D17B68DB6B18460AF022FF03460BE061
:1002F000FB78042B06D17B681B6C18460AF018FFAC
:10030000034601E04FF0000318460837BD4680BDA4
:1003100090B5ADB002AFF860B9603B601346FB80AA
:100320000023C7F8A4300023C7F8A0300023C7F883
:100330009C300123C7F898300023A7F8963006F0C8
:10034000B1F807F14403184605F01EF9FB68B3F154
:10035000804F03D3FB68944A934207D9FB68934AC2
:10036000934211D9FB68924A93420DD8FB6C914A93
:10037000D2F88C20120E02F00102013202FB03F3CC
:100380005B00C7F8A4300CE03B6D8A4AD2F88C20A1
:10039000120E02F00102013202FB03F35B00C7F808
:1003A000A4303B68002B0ADDD7F8A430824A82FBD8
:1003B00003125211DB17D21A3B689A4201DA012369
:1003C000EEE01FE0D7F8A0300133C7F8A030D7F82F
:1003D000A420D7F8A03092FBF3F23B6892FBF3F332
:1003E000C7F89C30D7F89C30B3F5803F02DA002381
:1003F000C7F89830D7F8A0304FF6FE72934201DD6F
:100400000123CDE0D7F89830002BDBD1D7F8A4201A
:10041000D7F8A03092FBF3F2D7F89C3092FBF3F3BD
:100420003B60F86807F086FEFA88002300930220FC
:10043000B968002300F0C8FDD7F89C30013BFB638E
:10044000D7F8A0309BB2013B9BB23B870023A7F8B3
:10045000403000237B87002387F8423007F13803C0
:10046000F868194608F006FC6023BB8400233B862D
:100470000123FB8404233B8508237B864FF4807390
:10048000BB864FF40073FB8607F12403F868194616
:1004900008F0C8FCF868002108F0B2FE07F1240358
:1004A000F868194608F038FDF868002108F0C4FE25
:1004B00007F12403F868194608F0B6FDF868002132
:1004C00008F0D8FE07F12403F868194608F032FE58
:1004D000F868002108F0EAFEFB68384A934203D02E
:1004E000FB68374A934211D107F11403184608F00C
:1004F00023FF4FF480433B8407F11403F868194647
:1005000008F0F2FEF868012108F034FFFA8807F1DC
:1005100054031046194607F08BFC0023A7F89630C9
:1005200025E0B7F896305B0007F1A802134433F8D2
:10053000543C012B16D1B7F8963010335B0007F10D
:10054000A802134433F8523C184607F077FF0346DD
:100550009CB2F86807F0E8FF0346B86821461A46DF
:1005600005F02CFFB7F896300133A7F89630B7F8AE
:1005700096300F2BD5D9FB6800225A63FB68002206
:100580009A63FB680022DA63FB6800221A64F86849
:10059000012108F007FCF868012108F023FC002382
:1005A0001846AC37BD4690BD00140040FF17004010
:1005B00000200040003802401F85EB510000014040
:1005C0000004014080B489B000AFF860B960114602
:1005D0001A460B46FB711346BB800023FB76FB6873
:1005E000DB78002B22D100237B610023FB61BB88D9
:1005F0000333002B00DA03339B107B61FB79FA682D
:1006000032339B0013449B683B610023FB6109E08C
:10061000BB681A683B691A60FB690133FB61BB6800
:100620000433BB60FA697B699A42F1D3FB7E1846BA
:100630002437BD465DF8047B704700BF80B489B0A5
:1006400000AFF860B9601346FB800023FB61FB88B4
:100650000333002B00DA03339B10BB61FB68D3F834
:10066000D0307B610023FB6109E07B691A68BB68BD
:100670001A60FB690133FB61BB680433BB60FA6934
:10068000BB699A42F1D3BB6818462437BD465DF872
:10069000047B704780B586B000AF78603960002376
:1006A000FB7400237B610023FB60FB6843F02003A5
:1006B000FB603B68DBB203F01F03DBB203F01F03F8
:1006C0009B01FA6822F4F8621343FB607B68DB68E5
:1006D000FA681A617B68DB681B69FB607B69013320
:1006E0007B617B69094A934200D906E0FB685B099C
:1006F00003F00103DBB2012BECD0032006F0F4F988
:10070000FB7C18461837BD4680BD00BF400D030076
:1007100080B483B000AF78607B68DB685B6903F00E
:10072000010318460C37BD465DF8047B704700BFD7
:1007300080B582B000AF78607868FFF7E9FF0346C4
:10074000012B14BF01230023DBB218460837BD4636
:1007500080BD00BF80B485B000AF78600023FB602F
:100760007B68DB685B69FB607B68DB689B69FA68B8
:100770001340FB60FB6818461437BD465DF8047BE8
:10078000704700BF80B485B000AF78600023FB7372
:100790007B681B699B68BB603B7AC3F34103DBB298
:1007A000022B09D0032B04D0012B02D00323FB73AF
:1007B00005E00223FB7302E00123FB7300BFFB7B18
:1007C00018461437BD465DF8047B704780B487B087
:1007D00000AF78600023FB750023BB607B681B695A
:1007E0009B683B617B689B691B68FB603B7CC3F338
:1007F0004103DBB2022B04D0BB896FF30A03BB8138
:1008000005E0BB89032262F30A03BB8100BF7B685A
:100810009B69FA681A607B7A43F001037B727B68FC
:100820001B697A6812695168BA68D2431140BA6884
:100830000A435A60FB7D18461C37BD465DF8047BB1
:10084000704700BF80B487B000AF78603960002384
:10085000FB740023FB600023BB603B685B78012BCB
:100860000FD13B681B787A6804339B0013449B6864
:100870007B613B681B781A46012393409BB23B8106
:100880000EE03B681B787A6814339B0013445B6866
:100890007B613B681B781A46012393409BB27B81A6
:1008A0007B691B68FB607B7B23F07F03DBB2002B43
:1008B00027D13B689B689BB2C3F30A039AB2BB89FA
:1008C00062F30A03BB813B68DB7803F00303DAB20F
:1008D000BB7B62F38303BB733B68DB88DBB203F053
:1008E0000F03DAB2FB8962F38913FB81FB7B43F0D0
:1008F0001003FB737B7B43F080037B73FA687B6997
:100900001A607B681B697A681269D169BA680A4300
:10091000DA61FB7C18461C37BD465DF8047B7047E6
:1009200080B588B000AF786039600023FB77002382
:10093000BB6100237B6100233B613B685B78012B3B
:1009400040F0AB803B681B787A6804339B0013440B
:100950009B681B687B613B681B787A6804339B004B
:1009600013449B681B693B613B685B69002B09D1A1
:100970003B696FF312033B617B8A012262F3CC0374
:100980007B8222E03B685B69C3F312023B6962F33E
:1009900012033B613B685A693B689B6813445A1ECB
:1009A0003B689B68B2FBF3F39BB2C3F309039AB2B3
:1009B0007B8A62F3CC037B823B68DB78012B04D11A
:1009C000FB7C012262F34613FB743B681B787A6858
:1009D00004339B0013449B683A691A617B68DB7897
:1009E000012B0AD13B681B787A6804339B001344BF
:1009F0009B683A6812695A6115E03B68DB78012B05
:100A000011D03B685B69002B0DD03B681B781A4600
:100A100001239340BB617B681B697A681269516B43
:100A2000BA690A435A633B68DB78012B14D17B68AF
:100A30001B699B68FB60FB68C3F30D239BB203F04B
:100A40000103002B04D1FB7D43F02003FB7503E081
:100A5000FB7D43F01003FB75FB7D43F00403FB7546
:100A6000FB7D43F08003FB753B681B787A68043399
:100A70009B0013449B687A691A603B68DB78012B02
:100A800040F089803B68D9683B681A783B685B69AD
:100A90009BB27868FFF796FD7DE03B681B787A682B
:100AA00014339B0013445B681B687B613B681B78B5
:100AB0007A6814339B0013445B681B693B613B6895
:100AC0005B69002B0DD13B689B68C3F312023B6945
:100AD00062F312033B617B8A012262F3CC037B82C7
:100AE00020E03B685A693B689B6813445A1E3B6888
:100AF0009B68B2FBF3F39BB2C3F309039AB27B8A00
:100B000062F3CC037B827B8AC3F3C9039BB21A4690
:100B10003B689B6803FB02F3C3F312023B6962F379
:100B200012033B613B681B787A6814339B001344C3
:100B30005B683A691A617B68DB78012B09D13B68F5
:100B40001B787A6814339B0013445B683A68126917
:100B50005A613B68DB78012B0CD13B685B79002B39
:100B600004D0FB7D43F02003FB7503E0FB7D43F0E5
:100B70001003FB75FB7D43F00403FB75FB7D43F025
:100B80008003FB753B681B787A6814339B00134421
:100B90005B687A691A60FB7F18462037BD4680BDC6
:100BA00080B489B000AF786039600023FB77002300
:100BB000BB6100233B610023BB603B685B78012B7A
:100BC00070D17B689B697B617B691B683B617B693A
:100BD0001B69BB603B685B69002B09D13B7A6FF3F3
:100BE00006033B72BB7A012262F3C403BB7223E0AB
:100BF0003B685A693B689B689A420ED93B689A6881
:100C00003B685A613B689B68DBB203F07F03DAB252
:100C10003B7A62F306033B7209E03B685B69DBB237
:100C200003F07F03DAB23B7A62F306033B72BB7ACE
:100C3000012262F3C403BB72BA687B691A617B68E4
:100C4000DB78012B09D13B681B787A6804339B0061
:100C500013449B683A6812695A61FB7C43F00403B1
:100C6000FB74FB7C43F08003FB743A697B691A6078
:100C70007B68DB78002B76D13B685B69002B72D0F8
:100C80003B681B781A46012393401A46BB691343FD
:100C9000BB617B681B697A681269516BBA690A4348
:100CA0005A6360E03B681B787A6814339B001344F6
:100CB0005B681B683B613B681B787A6814339B0058
:100CC00013445B681B69BB603B685B69002B0FD1F9
:100CD0003B689B68DBB203F07F03DAB23B7A62F3D6
:100CE00006033B72BB7A012262F3C403BB7212E0BB
:100CF0003B689A683B685A613B689B68DBB203F0CB
:100D00007F03DAB23B7A62F306033B72BB7A0122BD
:100D100062F3C403BB723B681B787A6814339B0090
:100D200013445B68BA681A617B68DB78012B09D1D0
:100D30003B681B787A6814339B0013445B683A68FD
:100D400012695A61FB7C43F00403FB74FB7C43F0A3
:100D50008003FB743B681B787A6814339B00134450
:100D60005B683A691A60FB7F18462437BD465DF818
:100D7000047B704780B487B000AF7860396000238F
:100D8000FB750023FB603B685B78012B1CD13B6843
:100D90001B787A6804339B0013449B683B613B6972
:100DA0001B68FB60FB7B23F07F03DBB2002B03D0CF
:100DB000FB7B43F04003FB73BB7B43F02003BB731F
:100DC000FA683B691A6011E03B681B787A68143353
:100DD0009B0013445B683B613B691B68FB60BB7B0A
:100DE00043F02003BB73FA683B691A60FB7D184629
:100DF0001C37BD465DF8047B704700BF80B487B0E8
:100E000000AF786039600023FB740023FB603B680F
:100E10005B78012B08D13B681B787A6804339B0010
:100E200013449B687B6107E03B681B787A68143346
:100E30009B0013445B687B617B691B68FB60BB7B29
:100E40006FF34513BB733B68DB78032B03D03B6820
:100E5000DB78022B03D1FB7B43F01003FB73FA68B2
:100E60007B691A60FB7C18461C37BD465DF8047B25
:100E7000704700BF80B485B000AF78607B681B69A5
:100E80009B69FB607B681B69DB69FA681340FB6048
:100E9000FB681B0C18461437BD465DF8047B704791
:100EA00080B485B000AF78600B46FB70FB787A6841
:100EB00014339B0013445B689B68FB607B681B6971
:100EC0005B69FA681340FB60FB6818461437BD463F
:100ED0005DF8047B704700BF80B485B000AF7860D8
:100EE0007B681B699B69FB607B681B69DB69FA682F
:100EF0001340FB60FB689BB218461437BD465DF893
:100F0000047B704780B487B000AF786000233B61FA
:100F1000FB7C43F0C003FB74BB7C012262F3C4037F
:100F2000BB743B7C182262F306033B747B685B6DE9
:100F30003A691A617B68DB78012B16D10023FB60CC
:100F40007B685B6D7A6802F5B9625A617B685B6D9C
:100F50001B68FB60FB7B43F08003FB734FF0802337
:100F6000FB607B685B6DFA681A601C37BD465DF8F4
:100F7000047B704780B485B000AF78607B689B7A53
:100F8000002B1BD07B681B699B68FB603B7B03F0DD
:100F90000103DBB2002B11D07B6803F586731B685D
:100FA000BB603B7A6FF341033B723B7A6FF3000304
:100FB0003B727B68D3F80C31BA681A601437BD46AF
:100FC0005DF8047B704700BF80B584B000AF396026
:100FD00011461A460346FB710B46BB801346BB7194
:100FE0003B68254A934204D10120012104F076FB9D
:100FF00022E03B68214A934204D10220012104F0FF
:101000006DFB19E03B681E4A934204D10420012184
:1010100004F064FB10E03B681A4A934204D10820B4
:10102000012104F05BFB07E03B68174A934203D1C0
:101030001020012104F052FB07F10803184605F0C7
:1010400053F9BB88BB60FB793B733B7EBB73BB79B9
:10105000FB7303237B7307F108033868194605F017
:10106000B5F8FB79012B04D1BB883868194605F027
:1010700097F91037BD4680BD0000024000040240D1
:1010800000080240000C02400010024080B483B00F
:1010900000AF78600B46FB70FB78002B06D0094947
:1010A000084BDA6B7B681343CB6306E00549054BBD
:1010B000DA6B7B68DB431340CB630C37BD465DF8CE
:1010C000047B7047002C014080B485B000AF78608D
:1010D0000023FB73084B5A6B7B681340002B02D034
:1010E0000123FB7301E00023FB73FB7B18461437DD
:1010F000BD465DF8047B7047002C014080B483B08E
:1011000000AF7860034A7B6893630C37BD465DF897
:10111000047B7047002C014080B500AF0E4B1B884C
:101120009BB21B099BB2002B05D00C4B1B68013BEB
:101130000A4A13600BE0084B1B889BB21B099BB249
:10114000002B04D1054B1B680133044A136002488D
:10115000012108F059F980BD000001402C09002050
:1011600080B500AF4FF080431B889BB21B099BB238
:10117000002B05D00C4B1B68013B0B4A13600CE0A5
:101180004FF080431B889BB21B099BB2002B04D1FC
:10119000054B1B680133044A13604FF08040012166
:1011A00008F032F980BD00BF3009002080B500AFE3
:1011B0000E4B1B889BB21B099BB2002B05D00C4B1E
:1011C0001B68013B0A4A13600BE0084B1B889BB26B
:1011D0001B099BB2002B04D1054B1B680133044A49
:1011E00013600248012108F00FF980BD000400409F
:1011F0003409002080B500AF0E4B1B889BB21B0941
:101200009BB2002B05D00C4B1B68013B0A4A1360B4
:101210000BE0084B1B889BB21B099BB2002B04D12F
:10122000054B1B680133044A13600248012108F092
:10123000EBF880BD000800403809002080B500AF01
:101240000E4B1B889BB21B099BB2002B05D00C4B8D
:101250001B68013B0A4A13600BE0084B1B889BB2DA
:101260001B099BB2002B04D1054B1B680133044AB8
:1012700013600248012108F0C7F880BD000C00404F
:101280003C09002080B500AF0E4B1B889BB21B09A8
:101290009BB2002B05D00C4B1B68013B0A4A136024
:1012A0000BE0084B1B889BB21B099BB2002B04D19F
:1012B000054B1B680133044A13600248012108F002
:1012C000A3F880BD000401404009002080B500AFB4
:1012D0000E4B1B889BB21B099BB2002B05D00C4BFD
:1012E0001B68013B0A4A13600BE0084B1B889BB24A
:1012F0001B099BB2002B04D1054B1B680133044A28
:1013000013600248012108F07FF880BD00180040FA
:101310004409002080B500AF044807F037FD0246BD
:10132000034B1B681B041344184680BD000001409A
:101330002C09002080B500AF4FF0804007F026FD5B
:101340000246034B1B681B041344184680BD00BFB4
:101350003009002080B500AF044807F017FD0246B1
:10136000034B1B681B041344184680BD0004004057
:101370003409002080B500AF044807F007FD02469D
:10138000034B1B681B041344184680BD0008004033
:101390003809002080B500AF044807F0F7FC02468A
:1013A000034B1B681B041344184680BD000C00400F
:1013B0003C09002080B500AF044807F0E7FC024676
:1013C000034B1B681B041344184680BD00040140F6
:1013D0004009002080B500AF044807F0D7FC024662
:1013E000034B1B681B041344184680BD00180040C3
:1013F0004409002090B59DB002AFF860B960134673
:10140000FB800023A7F866300023A7F86430F86853
:1014100006F090FEFA88002300930220B9680123A9
:10142000FFF7D2FDFA8807F120031046194606F0AF
:10143000FFFC0023A7F8663025E0B7F866305B00B4
:1014400007F16802134433F8483C012B16D1B7F872
:10145000663010335B0007F16802134433F8463CF2
:10146000184606F0EBFF03469CB2F86807F05CF8FC
:101470000346B86821461A4604F0A0FFB7F8663064
:101480000133A7F86630B7F866300F2BD5D91D4B5E
:101490001B681D4AA2FB03235B0E9BB2013BA7F80E
:1014A00064304FF6FE73BB610023BB820023BB8315
:1014B0000023FB8207F11403F868194607F0DAFBF2
:1014C000B7F86430F8681946012207F03DFCF86867
:1014D00003210022002307F0A7FFF8680121012261
:1014E00007F06EFFF868012107F07CFCF86806F051
:1014F000D7FD0346184606F08BFF00F055F86C3711
:10150000BD4690BD4000002029D9426680B582B01A
:1015100000AF78607B681E4A934203D1FFF7FAFE62
:10152000034630E07B68B3F1804F03D1FFF702FF41
:10153000034628E07B68174A934203D1FFF70AFF6E
:10154000034620E07B68144A934203D1FFF712FF61
:10155000034618E07B68114A934203D1FFF71AFF54
:10156000034610E07B680E4A934203D1FFF722FF47
:10157000034608E07B680B4A934203D1FFF72AFF3A
:10158000034600E0002318460837BD4680BD00BF73
:10159000000001400004004000080040000C004032
:1015A000000401400018004080B500AF194B002234
:1015B0001A60194B00221A60184B00221A60184B4F
:1015C00000221A60174B00221A60174B00221A6083
:1015D000164B00221A601648002107F0C9FB4FF095
:1015E0008040002107F0C4FB1248002107F0C0FB37
:1015F0001148002107F0BCFB1048002107F0B8FBA0
:101600000F48002107F0B4FB0E48002107F0B0FBA3
:1016100080BD00BF2C0900203009002034090020C3
:10162000380900203C09002040090020440900201E
:10163000000001400004004000080040000C004091
:10164000000401400018004080B500AF014805F0DB
:10165000B1FE80BD4012002080B500AF094B9B7ADF
:10166000002B0AD0084A084B1B6823F006031360BE
:1016700004F0ECFE0348FFF77DFC4FF4802006F0F9
:10168000C9FB80BD4012002010ED00E080B58AB09B
:1016900000AF7860396000237B6200233B62002347
:1016A000FB610023BB617B681B8A9BB27B627B6A08
:1016B00023F440537B623B68DB881A467B6A134302
:1016C0007B627B6A9AB27B681A827B689B899BB239
:1016D0007B627B6A23F4B05323F00C037B623B688C
:1016E0009A883B681B8913439AB23B685B89134312
:1016F0009BB21A467B6A13437B627B6A9AB27B6811
:101700009A817B689B8A9BB27B627B6A23F44073DD
:101710007B623B689B891A467B6A13437B627B6AC8
:101720009AB27B689A8207F10803184603F02CFFEF
:101730007B68314A934203D07B68304A934202D19E
:101740007B693B6201E03B693B627B689B899BB2A2
:101750009BB21BB2002B0CDA3A6A13469B0013446F
:101760009A001A443B681B685B00B2FBF3F3FB6111
:101770000BE03A6A13469B0013449A001A443B68F4
:101780001B689B00B2FBF3F3FB61FB691C4AA2FBE5
:1017900003235B091B017B627B6A1B09642202FB3A
:1017A00003F3FA69D31ABB617B689B899BB29BB236
:1017B0001BB2002B0CDABB69DB003233104AA2FBF0
:1017C00003235B0903F007037A6A13437B620BE090
:1017D000BB691B0132330A4AA2FB03235B0903F0F6
:1017E0000F037A6A13437B627B6A9AB27B681A8121
:1017F0002837BD4680BD00BF0010014000140140E5
:101800001F85EB5180B483B000AF78600B46FB704E
:10181000FB78002B08D07B689B899BB243F4005374
:101820009AB27B689A8107E07B689B899BB223F41C
:1018300000539AB27B689A810C37BD465DF8047BF1
:10184000704700BF80B483B000AF78600B467B80E8
:101850007B88C3F308039AB27B689A800C37BD4635
:101860005DF8047B704700BF80B487B000AF78603C
:101870000B467B8013467B7000233B610023FB609B
:101880000023BB6000237B617B687B617B88DBB2CC
:101890005B09DBB23B617B8803F01F03FB60FB68E5
:1018A000012202FA03F3BB603B69012B03D17B6980
:1018B0000C337B6109E03B69022B03D17B69103358
:1018C0007B6102E07B6914337B617B78002B06D05F
:1018D0007B697A691168BA680A431A6006E07B6915
:1018E0007A691168BA68D2430A401A601C37BD464B
:1018F0005DF8047B704700BF80B485B000AF7860AE
:101900000B467B800023FB737B681B889AB27B8825
:1019100013409BB2002B02D00123FB7301E0002394
:10192000FB73FB7B18461437BD465DF8047B70479C
:1019300080B400AF064BD3E90023013243F100032A
:101940000349C1E90023BD465DF8047B704700BF31
:101950004809002080B500AF00F010F802460B46A1
:10196000104619464FF47A724FF0000309F044FE16
:1019700002460B461046194680BD00BF80B400AF3A
:10198000094BD3E90023921843EB0303990041EA82
:1019900092719000121843EB010310461946BD46A0
:1019A0005DF8047B704700BF4809002080B500AF98
:1019B000014804F061FB80BDACC5273780B584B019
:1019C00000AFC7E900010023FB60FFF7C3FF024639
:1019D0000B461346FB6000BFFFF7BCFFFB681A46CF
:1019E0004FEAE273821A61EB0303D7E900019042E8
:1019F00071EB0303F0DA1037BD4680BD80B582B0CD
:101A000000AFC7E90001D7E90001FFF7D7FF0837AA
:101A1000BD4680BD80B582B000AF0F4B7B600F4BE1
:101A20003B6007E03B681A1D3A607A68111D7960D7
:101A300012681A603B680A4A9342F3D309480A497C
:101A40004FF000028842B8BF40F8042BFADB03F0E5
:101A5000B1FC0837BD4680BDD00C02080000002054
:101A60000C090020100900203418002080B400AFB9
:101A7000FEE700BF80B584B000AF786007F10803CF
:101A80007868194605F02AFC3B7A03F01F03012B06
:101A90000AD0022B0FD0002B14D107F1080378686D
:101AA000194605F045F816E007F10803786819466D
:101AB00005F08EF80FE007F108037868194605F085
:101AC000BBF808E03B7A23F07F03DBB27868194665
:101AD00006F0CAFE00BF002318461037BD4680BD81
:101AE00080B584B000AF78600B46FB70FB78002BAC
:101AF00044D17B6803F55C73FB607B6893F811311C
:101B0000032B4ED1FB68DA69FB689B689A4220D9A7
:101B1000FB68DA69FB689B68D21AFB68DA617B684C
:101B2000DB78012B06D1FB68DA68FB689B681A44F6
:101B3000FB68DA60FB68D968FB689A68FB68DB6958
:101B4000934228BF13469BB278681A4606F0E0FF1E
:101B500027E07B68D3F8E0351B69002B0AD07B684F
:101B600093F81231032B05D17B68D3F8E0351B695C
:101B700078689847786806F0DFFF12E07B68D3F852
:101B8000E0359B69002B0CD07B6893F81231032B56
:101B900007D17B68D3F8E0359B69FA7878681146FD
:101BA0009847002318461037BD4680BD80B584B0E5
:101BB00000AF78600B46FB70FB78002B60D17B6830
:101BC00003F58C73FB607B6893F81131022B6AD1AB
:101BD000FB68DA69FB689B689A421CD9FB68DA6982
:101BE000FB689B68D21AFB68DA617B68DB78012BA3
:101BF00006D1FB68DA68FB689B681A44FB68DA6008
:101C0000FB68DA68FB68DB699BB2786811461A46A4
:101C100006F06AFF47E0FB681B6AFA689268B3FB4C
:101C2000F2F102FB01F29B1A002B14D1FB681A6A35
:101C3000FB689B689A420ED3FB681A6AFB685B6A72
:101C40009A4208D278680021002206F04DFFFB6816
:101C500000225A6227E07B68D3F8E035DB68002B6E
:101C60000AD07B6893F81231032B05D17B68D3F837
:101C7000E035DB6878689847786806F075FF12E011
:101C80007B68D3F8E0355B69002B0CD07B6893F858
:101C90001231032B07D17B68D3F8E0355B69FA7802
:101CA000786811469847002318461037BD4680BD16
:101CB00080B582B000AF78607868002140220023B0
:101CC00006F000FD786880214022002306F0FAFC2F
:101CD0007B68012283F812217B68D3F8E4355B68C6
:101CE0007A68927810469847002318460837BD4610
:101CF00080BD00BF80B582B000AF78607B68D3F84C
:101D0000E4351B6998477B68032283F8122100237E
:101D100018460837BD4680BD80B582B000AF7860F8
:101D20007B68042283F812217B68D3F8E435DB68F2
:101D30009847002318460837BD4680BD80B582B05D
:101D400000AF78607B68D3F8E035DB69002B05D005
:101D50007B68D3F8E035DB6978689847002318463C
:101D60000837BD4680BD00BF80B582B000AF786047
:101D70000B46FB707B68D3F8E0351B68FA7878680F
:101D8000114698477B68D3F8E4359B689847002351
:101D900018460837BD4680BD80B582B000AF786078
:101DA0000B46FB707B68D3F8E0355B68FA7878689F
:101DB00011469847002318460837BD4680BD00BF2E
:101DC00080B582B000AF78607B68D3F8E0351B6ADD
:101DD00078689847002318460837BD4680BD00BF85
:101DE00080B582B000AF78607B68D3F8E0355B6A7D
:101DF00078689847002318460837BD4680BD00BF65
:101E000080B483B000AF786039600C37BD465DF8B0
:101E1000047B704780B582B000AF78607B68064A6B
:101E20001A607B681033184603F08AF97B681846FD
:101E30000837BD4680BD00BFE0DC010880B582B038
:101E400000AF786039607B681846FFF7E3FF7B6876
:101E5000074A1A607B683A68C3F820217B68002231
:101E6000C3F81C217B6818460837BD4680BD00BFFB
:101E7000F0DA010880B582B000AF78600B46FB70E5
:101E80007B6803F11002FB781046194603F06CF9E9
:101E90000346002B0CBF01230023DBB2002B0AD02A
:101EA000FB780D2B13D17B68D3F81C315A1C7B684F
:101EB000C3F81C210BE07B68D3F81C31002B06D142
:101EC000FB780D2B03D17B680122C3F81C21083756
:101ED000BD4680BD80B582B000AF78607B681033AE
:101EE000184603F071F90346002B0CBF01230023B1
:101EF000DBB218460837BD4680BD00BF80B483B052
:101F000000AF78607B68D3F81C3118460C37BD46AB
:101F10005DF8047B704700BF80B582B000AF786089
:101F20007B681033184603F065F9034618460837F6
:101F3000BD4680BD90B585B000AF786039607B68E4
:101F40001033184603F040F90346002B14BF012359
:101F50000023DBB2002B08D03B6800221A707B689C
:101F60000022C3F81C21002354E00023FB604DE055
:101F7000FB683A68D4187B681033184603F03AF9C6
:101F800003462370FB683A6813441B780D2B02D07C
:101F9000FB68FE2B1FDDFB683A68134400221A70B1
:101FA0007B681033184603F00FF90346002B14BF6B
:101FB00001230023DBB2002B04D07B680022C3F88E
:101FC0001C2106E07B68D3F81C315A1E7B68C3F8DD
:101FD0001C21FB681EE07B681033184603F0F4F800
:101FE0000346002B14BF01230023DBB2002B0AD0D1
:101FF000FB683A68134400221A707B680022C3F819
:102000001C21FB6806E0FB680133FB60FB68FF2BCB
:10201000AEDD002318461437BD4690BD80B582B0B2
:1020200000AF78607B689B68012B06D17B685B689A
:102030001846FFF763FF034600E000231846083701
:10204000BD4680BD80B582B000AF786039603B6826
:1020500000221A707B689B68012B07D17B685B6844
:1020600018463968FFF766FF034600E0002318466C
:102070000837BD4680BD00BF80B582B000AF786034
:102080007B689B68012B06D17B685B681846FFF76D
:1020900021FF034600E0002318460837BD4680BDF7
:1020A00080B582B000AF78607B689B68012B06D159
:1020B0007B685B681846FFF72FFF034600E00023AC
:1020C00018460837BD4680BD80B584B000AF786043
:1020D00039600023FB600DE07B681B6804331B68DC
:1020E000FA6839680A441278786811469847FB689C
:1020F0000133FB60FB683A6813441B78002BEBD17B
:102100001037BD4680BD00BF90B587B002AFF86004
:10211000B9607A603B60FB6802229A60FB681B68CA
:102120001C683B680093F868B9687A683B6AA04706
:10213000034618461437BD4690BD00BF90B587B022
:1021400002AFF860B9607A603B60FB6801229A6078
:102150004FF4927010F058FD04462046F968FFF7DE
:102160006DFEFB685C60FB681B681C68FB685B6855
:102170001A467B680093F868B9683B68A047034635
:1021800018461437BD4690BD80B584B000AF786066
:102190007B681B680C331B68786898470346FB60B4
:1021A000FB68002B01D0FB6803E07B6801225A60CA
:1021B000002318461037BD4680BD00BF80B584B0EF
:1021C00000AF78607B681B6810331B68786898479D
:1021D0000346FB60FB68002B01D0FB6803E07B68D3
:1021E00002225A60002318461037BD4680BD00BF4A
:1021F00080B584B000AF78607B681B6814331B68BF
:10220000786898470346FB60FB68002B01D0FB68A9
:1022100003E07B6803225A60002318461037BD464E
:1022200080BD00BF80B584B000AF78607B681B685C
:1022300018331B68786898470346FB60FB68002BDF
:1022400001D0FB6803E07B6804225A600023184633
:102250001037BD4680BD00BF80B582B000AF78604A
:1022600039607B685B68002B00D125E07B685B6888
:10227000022B07D17B681B6804331B6878683968B8
:10228000984719E03B68012B06D17B681B68243313
:102290001B68786898470FE03B68002B06D17B6885
:1022A0001B6828331B687868984705E07B681B68C3
:1022B0001C331B68786898470837BD4680BD00BF4F
:1022C00080B582B000AF78607B685B68002B01D17D
:1022D000002311E07B685B68012B07D17B681B68DA
:1022E00008331B6878689847034605E07B681B68DD
:1022F0001B6878689847034618460837BD4680BD76
:1023000080B582B000AF78607B681B682C331B6897
:102310007868012198470837BD4680BD80B582B0F6
:1023200000AF78607B681B682C331B6878680021DD
:1023300098470837BD4680BD90B583B000AF786040
:102340007B681B682C331C687B681B6830331B68F8
:10235000786898470346002B0CBF01230023DBB2AB
:1023600078681946A0470C37BD4690BD80B582B04D
:1023700000AF78607B681B681B68786898470346E5
:1023800018460837BD4680BD80B582B000AF786082
:102390007B681B6804331B687868984703461846B7
:1023A0000837BD4680BD00BF80B584B000AFF8607F
:1023B000B9607A60FB681B681B68F868B9687A685E
:1023C0009847034618461037BD4680BD80B582B099
:1023D00000AF786039607B681B6804331B687868DD
:1023E000396898470837BD4680BD00BF80B582B0C8
:1023F00000AF78607B681B6808331B687868984773
:10240000034618460837BD4680BD00BF80B483B080
:1024100000AF786040F6FF7318460C37BD465DF894
:10242000047B7047A0F10800F0E700BF80B483B0E0
:1024300000AF7860034B18460C37BD465DF8047B4F
:10244000704700BF33335340A0F10800EEE700BFF0
:1024500080B483B000AF786040F6FF7318460C3745
:10246000BD465DF8047B7047A0F10800F0E700BFAF
:1024700080B483B000AF7860034B18460C37BD467C
:102480005DF8047B704700BF33335340A0F1080070
:10249000EEE700BF80B483B000AF786040F6FF7312
:1024A00018460C37BD465DF8047B7047A0F1080064
:1024B000F0E700BF80B483B000AF7860034B1846EC
:1024C0000C37BD465DF8047B704700BF3333534083
:1024D000A0F10800EEE700BF80B483B000AF7860E1
:1024E00040F6FF7318460C37BD465DF8047B704715
:1024F000A0F10800F0E700BF80B483B000AF7860BF
:10250000034B18460C37BD465DF8047B704700BF8F
:1025100033335340A0F10800EEE700BF80B483B02E
:1025200000AF786040F6FF7318460C37BD465DF883
:10253000047B7047A0F10800F0E700BF80B483B0CF
:1025400000AF7860034B18460C37BD465DF8047B3E
:10255000704700BF33335340A0F10800EEE700BFDF
:1025600080B582B000AF786004484FF4805103F02A
:10257000EFFE034618460837BD4680BD0004024002
:1025800080B582B000AF786039603B68002B05D120
:1025900006484FF4805103F003FF04E003484FF472
:1025A000805103F0EFFE0837BD4680BD00040240B5
:1025B00080B582B000AF786004484FF4805103F0DA
:1025C000ADFE034618460837BD4680BD00040240F4
:1025D00080B584B002AF78600023009300200549E5
:1025E0004FF480520023FEF7EFFC00231846083713
:1025F000BD4680BD0004024080B584B002AF786063
:1026000000230093012005494FF480520023FEF778
:10261000DBFC002318460837BD4680BD000402409D
:1026200080B584B002AF7860002300930020054994
:102630004FF480520123FEF7C7FC002318460837E9
:10264000BD4680BD0004024080B584B002AF786012
:1026500000230093002005494FF480520223FEF727
:10266000B3FC002318460837BD4680BD0004024075
:1026700080B582B000AF786004484FF4004103F0A9
:1026800067FE034618460837BD4680BD001002406D
:1026900080B582B000AF786039603B68002B05D10F
:1026A00006484FF4004103F07BFE04E003484FF47A
:1026B000004103F067FE0837BD4680BD00100240B0
:1026C00080B582B000AF786004484FF4004103F059
:1026D00025FE034618460837BD4680BD001002405F
:1026E00080B584B002AF78600023009300200549D4
:1026F0004FF400420023FEF767FC01231846083719
:10270000BD4680BD0010024080B584B002AF786045
:1027100000230093012005494FF400420023FEF7F7
:1027200053FC002318460837BD4680BD0010024008
:1027300080B584B002AF7860002300930020054983
:102740004FF400420123FEF73FFC012318460837EF
:10275000BD4680BD0010024080B584B002AF7860F5
:1027600000230093002005494FF400420223FEF7A6
:102770002BFC002318460837BD4680BD00100240E0
:1027800080B582B000AF786004484FF4804103F018
:10279000DFFD034618460837BD4680BD00040240F1
:1027A00080B582B000AF786039603B68002B05D1FE
:1027B00006484FF4804103F0F3FD04E003484FF472
:1027C000804103F0DFFD0837BD4680BD00040240B4
:1027D00080B582B000AF786004484FF4804103F0C8
:1027E0009DFD034618460837BD4680BD00040240E3
:1027F00080B584B002AF78600023009300200549C3
:102800004FF480420023FEF7DFFB00231846083711
:10281000BD4680BD0004024080B584B002AF786040
:1028200000230093012005494FF480420023FEF766
:10283000CBFB002318460837BD4680BD000402408C
:1028400080B584B002AF7860002300930020054972
:102850004FF480420123FEF7B7FB002318460837E8
:10286000BD4680BD0004024080B584B002AF7860F0
:1028700000230093002005494FF480420223FEF715
:10288000A3FB002318460837BD4680BD0004024064
:1028900080B582B000AF786004484FF4004103F087
:1028A00057FD034618460837BD4680BD0004024068
:1028B00080B582B000AF786039603B68002B05D1ED
:1028C00006484FF4004103F06BFD04E003484FF469
:1028D000004103F057FD0837BD4680BD00040240AB
:1028E00080B582B000AF786004484FF4004103F037
:1028F00015FD034618460837BD4680BD000402405A
:1029000080B584B002AF78600023009300200549B1
:102910004FF400420023FEF757FB00231846083708
:10292000BD4680BD0004024080B584B002AF78602F
:1029300000230093012005494FF400420023FEF7D5
:1029400043FB002318460837BD4680BD0004024003
:1029500080B584B002AF7860002300930020054961
:102960004FF400420123FEF72FFB002318460837DF
:10297000BD4680BD0004024080B584B002AF7860DF
:1029800000230093002005494FF400420223FEF784
:102990001BFB002318460837BD4680BD00040240DB
:1029A00080B582B000AF786004484FF4004103F076
:1029B000CFFC034618460837BD4680BD00000240E4
:1029C00080B582B000AF786039603B68002B05D1DC
:1029D00006484FF4004103F0E3FC04E003484FF4E1
:1029E000004103F0CFFC0837BD4680BD0000024027
:1029F00080B582B000AF786004484FF4004103F026
:102A00008DFC034618460837BD4680BD00000240D5
:102A100080B584B002AF78600023009300200549A0
:102A20004FF400420023FEF7CFFA00231846083780
:102A3000BD4680BD0000024080B483B000AF786026
:102A4000012318460C37BD465DF8047B704700BF74
:102A500080B584B002AF7860002300930020054960
:102A60004FF400420123FEF7AFFA0023184608375F
:102A7000BD4680BD0000024080B584B002AF7860E2
:102A800000230093002005494FF400420223FEF783
:102A90009BFA002318460837BD4680BD000002405F
:102AA00080B582B000AF786004484FF4005103F065
:102AB0004FFC034618460837BD4680BD000402405F
:102AC00080B582B000AF786039603B68002B05D1DB
:102AD00006484FF4005103F063FC04E003484FF450
:102AE000005103F04FFC0837BD4680BD0004024092
:102AF00080B582B000AF786004484FF4005103F015
:102B00000DFC034618460837BD4680BD0004024050
:102B100080B584B002AF786000230093002005499F
:102B20004FF400520023FEF74FFA002318460837EF
:102B3000BD4680BD0004024080B483B000AF786021
:102B4000012318460C37BD465DF8047B704700BF73
:102B500080B584B002AF786000230093002005495F
:102B60004FF400520123FEF72FFA002318460837CE
:102B7000BD4680BD0004024080B584B002AF7860DD
:102B800000230093002005494FF400520223FEF772
:102B90001BFA002318460837BD4680BD00040240DA
:102BA00080B582B000AF786004484FF4006103F054
:102BB000CFFB034618460837BD4680BD000C0240D7
:102BC00080B582B000AF786039603B68002B05D1DA
:102BD00006484FF4006103F0E3FB04E003484FF4C0
:102BE000006103F0CFFB0837BD4680BD000C0240FA
:102BF00080B582B000AF786004484FF4006103F004
:102C00008DFB034618460837BD4680BD000C0240C8
:102C100080B584B002AF786000230093002005499E
:102C20004FF400620023FEF7CFF90023184608375F
:102C3000BD4680BD000C024080B483B000AF786018
:102C4000012318460C37BD465DF8047B704700BF72
:102C500080B584B002AF786000230093002005495E
:102C60004FF400620123FEF7AFF90023184608373E
:102C7000BD4680BD000C024080B584B002AF7860D4
:102C800000230093002005494FF400620223FEF761
:102C90009BF9002318460837BD4680BD000C024052
:102CA00080B582B000AF786004484FF4806103F0D3
:102CB0004FFB034618460837BD4680BD000C024056
:102CC00080B582B000AF786039603B68002B05D1D9
:102CD00006484FF4806103F063FB04E003484FF4BF
:102CE000806103F04FFB0837BD4680BD000C0240F9
:102CF00080B582B000AF786004484FF4806103F083
:102D00000DFB034618460837BD4680BD000C024047
:102D100080B584B002AF786000230093002005499D
:102D20004FF480620023FEF74FF90023184608375E
:102D3000BD4680BD000C024080B483B000AF786017
:102D4000012318460C37BD465DF8047B704700BF71
:102D500080B584B002AF786000230093002005495D
:102D60004FF480620123FEF72FF90023184608373D
:102D7000BD4680BD000C024080B584B002AF7860D3
:102D800000230093002005494FF480620223FEF7E0
:102D90001BF9002318460837BD4680BD000C0240D1
:102DA00080B582B000AF78600448022103F0D0FA09
:102DB000034618460837BD4680BD00BF00040240E8
:102DC00080B582B000AF786039603B68002B04D1D9
:102DD0000548022103F0E4FA03E00348022103F06E
:102DE000D1FA0837BD4680BD0004024080B582B0EC
:102DF00000AF78600448022103F090FA03461846B9
:102E00000837BD4680BD00BF0004024080B584B0D5
:102E100002AF7860002300930020054902220023BE
:102E2000FEF7D2F8002318460837BD4680BD00BF24
:102E30000004024080B584B002AF786000230093A4
:102E40000120054902220023FEF7BEF800231846A0
:102E50000837BD4680BD00BF0004024080B584B085
:102E600002AF78600023009300200549022201236D
:102E7000FEF7AAF8002318460837BD4680BD00BFFC
:102E80000004024080B584B002AF78600023009354
:102E90000020054902220223FEF796F80023184677
:102EA0000837BD4680BD00BF0004024080B582B037
:102EB00000AF78600448102103F04AFA0346184630
:102EC0000837BD4680BD00BF0000024080B582B01B
:102ED00000AF786039603B68002B04D105481021B1
:102EE00003F05EFA03E00348102103F04BFA0837C1
:102EF000BD4680BD0000024080B582B000AF786062
:102F00000448102103F00AFA034618460837BD4664
:102F100080BD00BF0000024080B584B002AF786081
:102F2000002300930020054910220023FEF74CF8EF
:102F3000002318460837BD4680BD00BF0000024090
:102F400080B584B002AF786000230093012005496A
:102F500010220023FEF738F8002318460837BD4634
:102F600080BD00BF0000024080B584B002AF786031
:102F7000002300930020054910220123FEF724F8C6
:102F8000002318460837BD4680BD00BF0000024040
:102F900080B584B002AF786000230093002005491B
:102FA00010220223FEF710F8002318460837BD460A
:102FB00080BD00BF0000024080B582B000AF7860E5
:102FC0000448012103F0C4F9034618460837BD46FA
:102FD00080BD00BF0008024080B582B000AF7860BD
:102FE00039603B68002B04D10548012103F0D8F972
:102FF00003E00348012103F0C5F90837BD4680BD51
:103000000008024080B582B000AF7860044801211A
:1030100003F084F9034618460837BD4680BD00BF5B
:103020000008024080B584B002AF786000230093AE
:103030000020054901220023FDF7C6FF00231846A2
:103040000837BD4680BD00BF0008024080B584B08F
:1030500002AF78600023009301200549012200237C
:10306000FDF7B2FF002318460837BD4680BD00BFFC
:103070000008024080B584B002AF7860002300935E
:103080000020054901220123FDF79EFF0023184679
:103090000837BD4680BD00BF0008024080B584B03F
:1030A00002AF78600023009300200549012202232B
:1030B000FDF78AFF002318460837BD4680BD00BFD4
:1030C0000008024080B582B000AF786004484FF439
:1030D000805103F03DF9034618460837BD4680BDD0
:1030E0000010024080B582B000AF786039603B6864
:1030F000002B05D106484FF4805103F051F904E04C
:1031000003484FF4805103F03DF90837BD4680BDB8
:103110000010024080B582B000AF786004484FF4E0
:10312000805103F0FBF8034618460837BD4680BDC2
:103130000010024080B584B002AF78600023009395
:10314000002005494FF480520023FDF73DFF002386
:1031500018460837BD4680BD0010024080B584B0D7
:1031600002AF786000230093012005494FF480529C
:103170000023FDF729FF002318460837BD4680BD10
:103180000010024080B584B002AF78600023009345
:10319000002005494FF480520123FDF715FF00235D
:1031A00018460837BD4680BD0010024080B584B087
:1031B00002AF786000230093002005494FF480524D
:1031C0000223FDF701FF002318460837BD4680BDE6
:1031D0000010024080B582B000AF78600448202122
:1031E00003F0B6F8034618460837BD4680BD00BF59
:1031F0000000024080B582B000AF786039603B6863
:10320000002B04D10548202103F0CAF803E003484D
:10321000202103F0B7F80837BD4680BD000002400A
:1032200080B582B000AF78600448202103F076F8C2
:10323000034618460837BD4680BD00BF0000024067
:1032400080B584B002AF7860002300930020054968
:1032500020220023FDF7B8FE002318460837BD469C
:1032600080BD00BF0000024080B584B002AF78602E
:10327000002300930120054920220023FDF7A4FE2E
:10328000002318460837BD4680BD00BF000002403D
:1032900080B584B002AF7860002300930020054918
:1032A00020220123FDF790FE002318460837BD4673
:1032B00080BD00BF0000024080B584B002AF7860DE
:1032C000002300930020054920220223FDF77CFE05
:1032D000002318460837BD4680BD00BF00000240ED
:1032E00080B582B000AF78600448042103F030F864
:1032F000034618460837BD4680BD00BF00040240A3
:1033000080B582B000AF786039603B68002B04D193
:103310000548042103F044F803E00348042103F0C6
:1033200031F80837BD4680BD0004024080B582B048
:1033300000AF78600448042102F0F0FF034618460D
:103340000837BD4680BD00BF0004024080B584B090
:1033500002AF786000230093002005490422002377
:10336000FDF732FE002318460837BD4680BD00BF7A
:103370000004024080B584B002AF7860002300935F
:103380000120054904220023FDF71EFE00231846F4
:103390000837BD4680BD00BF0004024080B584B040
:1033A00002AF786000230093002005490422012326
:1033B000FDF70AFE002318460837BD4680BD00BF52
:1033C0000004024080B584B002AF7860002300930F
:1033D0000020054904220223FDF7F6FD00231846CC
:1033E0000837BD4680BD00BF0004024080B582B0F2
:1033F00000AF78600448802102F0AAFF0346184617
:103400000837BD4680BD00BF0010024080B582B0C5
:1034100000AF786039603B68002B04D105488021FB
:1034200002F0BEFF03E00348802102F0ABFF083743
:10343000BD4680BD0010024080B582B000AF78600C
:103440000448802102F06AFF034618460837BD464B
:1034500080BD00BF0010024080B584B002AF78602C
:10346000002300930020054980220023FDF7ACFDD6
:10347000002318460837BD4680BD00BF001002403B
:1034800080B584B002AF7860002300930120054925
:1034900080220023FDF798FD002318460837BD461B
:1034A00080BD00BF0010024080B584B002AF7860DC
:1034B000002300930020054980220123FDF784FDAD
:1034C000002318460837BD4680BD00BF00100240EB
:1034D00080B584B002AF78600023009300200549D6
:1034E00080220223FDF770FD002318460837BD46F1
:1034F00080BD00BF0010024080B582B000AF786090
:1035000004484FF4806102F023FF03461846083751
:10351000BD4680BD0010024080B582B000AF78602B
:1035200039603B68002B05D106484FF4806102F0FA
:1035300037FF04E003484FF4806102F023FF0837AF
:10354000BD4680BD0010024080B582B000AF7860FB
:1035500004484FF4806102F0E1FE03461846083744
:10356000BD4680BD0010024080B584B002AF7860D7
:1035700000230093002005494FF480620023FDF7EB
:1035800023FD002318460837BD4680BD00100240C9
:1035900080B584B002AF7860002300930120054914
:1035A0004FF480620023FDF70FFD00231846083713
:1035B000BD4680BD0010024080B584B002AF786087
:1035C00000230093002005494FF480620123FDF79A
:1035D000FBFC002318460837BD4680BD00100240A2
:1035E00080B584B002AF78600023009300200549C5
:1035F0004FF480620223FDF7E7FC002318460837EA
:10360000BD4680BD0010024080B582B000AF78603A
:103610000448012102F09CFE034618460837BD46C7
:1036200080BD00BF0004024080B582B000AF78606A
:1036300039603B68002B04D10548012102F0B0FE3F
:1036400003E00348012102F09DFE0837BD4680BD1E
:103650000004024080B582B000AF786004480121C8
:1036600002F05CFE034618460837BD4680BD00BF29
:103670000004024080B584B002AF7860002300935C
:103680000020054901220023FDF79EFC0023184677
:103690000837BD4680BD00BF0004024080B584B03D
:1036A00002AF786000230093012005490122002326
:1036B000FDF78AFC002318460837BD4680BD00BFD1
:1036C0000004024080B584B002AF7860002300930C
:1036D0000020054901220123FDF776FC002318464E
:1036E0000837BD4680BD00BF0004024080B584B0ED
:1036F00002AF7860002300930020054901220223D5
:10370000FDF762FC002318460837BD4680BD00BFA8
:103710000004024080B582B000AF786004481021F8
:1037200002F016FE034618460837BD4680BD00BFAE
:103730000010024080B582B000AF786039603B680D
:10374000002B04D10548102102F02AFE03E00348B3
:10375000102102F017FE0837BD4680BD0010024060
:1037600080B582B000AF78600448102102F0D6FD29
:10377000034618460837BD4680BD00BF0010024012
:1037800080B584B002AF7860002300930020054923
:1037900010220023FDF718FC002318460837BD4609
:1037A00080BD00BF0010024080B584B002AF7860D9
:1037B000002300930120054910220023FDF704FC9B
:1037C000002318460837BD4680BD00BF00100240E8
:1037D00080B584B002AF78600023009300200549D3
:1037E00010220123FDF7F0FB002318460837BD46E1
:1037F00080BD00BF0010024080B584B002AF786089
:10380000002300930020054910220223FDF7DCFB72
:10381000002318460837BD4680BD00BF0010024097
:1038200080B582B000AF78600448042102F090FDBA
:10383000034618460837BD4680BD00BF0010024051
:1038400080B582B000AF786039603B68002B04D14E
:103850000548042102F0A4FD03E00348042102F01E
:1038600091FD0837BD4680BD0010024080B582B092
:1038700000AF78600448042102F050FD034618466A
:103880000837BD4680BD00BF0010024080B584B03F
:1038900002AF786000230093002005490422002332
:1038A000FDF792FB002318460837BD4680BD00BFD8
:1038B0000010024080B584B002AF7860002300930E
:1038C0000120054904220023FDF77EFB0023184652
:1038D0000837BD4680BD00BF0010024080B584B0EF
:1038E00002AF7860002300930020054904220123E1
:1038F000FDF76AFB002318460837BD4680BD00BFB0
:103900000010024080B584B002AF786000230093BD
:103910000020054904220223FDF756FB0023184628
:103920000837BD4680BD00BF0010024080B582B0A0
:1039300000AF786004484FF4807102F009FD03463F
:1039400018460837BD4680BD0010024080B582B0E1
:1039500000AF786039603B68002B05D106484FF412
:10396000807102F01DFD04E003484FF4807102F005
:1039700009FD0837BD4680BD0010024080B582B009
:1039800000AF786004484FF4807102F0C7FC034632
:1039900018460837BD4680BD0010024080B584B08F
:1039A00002AF786000230093002005494FF4807235
:1039B0000023FDF709FB002318460837BD4680BDEC
:1039C0000010024080B584B002AF786000230093FD
:1039D000012005494FF480720023FDF7F5FA00231A
:1039E00018460837BD4680BD0010024080B584B03F
:1039F00002AF786000230093002005494FF48072E5
:103A00000123FDF7E1FA002318460837BD4680BDC3
:103A10000010024080B584B002AF786000230093AC
:103A2000002005494FF480720223FDF7CDFA0023F0
:103A300018460837BD4680BD0010024080B582B0F0
:103A400000AF78600448082102F082FC0346184663
:103A50000837BD4680BD00BF0010024080B582B06F
:103A600000AF786039603B68002B04D1054808211D
:103A700002F096FC03E00348082102F083FC0837BB
:103A8000BD4680BD0010024080B582B000AF7860B6
:103A90000448082102F042FC034618460837BD4698
:103AA00080BD00BF0010024080B584B002AF7860D6
:103AB000002300930020054908220023FDF784FA23
:103AC000002318460837BD4680BD00BF00100240E5
:103AD00080B584B002AF78600023009301200549CF
:103AE00008220023FDF770FA002318460837BD4668
:103AF00080BD00BF0010024080B584B002AF786086
:103B0000002300930020054908220123FDF75CFAF9
:103B1000002318460837BD4680BD00BF0010024094
:103B200080B584B002AF786000230093002005497F
:103B300008220223FDF748FA002318460837BD463D
:103B400080BD00BF0010024080B582B000AF786039
:103B50000448202102F0FCFB034618460837BD4606
:103B600080BD00BF0008024080B582B000AF786021
:103B700039603B68002B04D10548202102F010FC7D
:103B800003E00348202102F0FDFB0837BD4680BD5D
:103B90000008024080B582B000AF78600448202160
:103BA00002F0BCFB034618460837BD4680BD00BF87
:103BB0000008024080B584B002AF78600023009313
:103BC0000020054920220023FDF7FEF900231846B6
:103BD0000837BD4680BD00BF0008024080B584B0F4
:103BE00002AF78607B680222DA6000230093012034
:103BF000044920220023FDF7E7F90023184608377F
:103C0000BD4680BD0008024080B584B002AF786038
:103C1000002300930020054920220123FDF7D4F959
:103C2000002318460837BD4680BD00BF000802408B
:103C300080B584B002AF786000230093002005496E
:103C400020220223FDF7C0F9002318460837BD469D
:103C500080BD00BF0008024080B582B000AF786030
:103C60000448022102F074FB034618460837BD469B
:103C700080BD00BF0008024080B582B000AF786010
:103C800039603B68002B04D10548022102F088FB13
:103C900003E00348022102F075FB0837BD4680BDF2
:103CA0000008024080B582B000AF7860044802216D
:103CB00002F034FB034618460837BD4680BD00BFFE
:103CC0000008024080B584B002AF78600023009302
:103CD0000020054902220023FDF776F9002318464B
:103CE0000837BD4680BD00BF0008024080B584B0E3
:103CF00002AF78607B680222DA6000230093012023
:103D0000044902220023FDF75FF900231846083713
:103D1000BD4680BD0008024080B584B002AF786027
:103D2000002300930020054902220123FDF74CF9EE
:103D3000002318460837BD4680BD00BF000802407A
:103D400080B584B002AF786000230093002005495D
:103D500002220223FDF738F9002318460837BD4632
:103D600080BD00BF0008024080B582B000AF78601F
:103D70000448042102F0ECFA034618460837BD4611
:103D800080BD00BF0008024080B582B000AF7860FF
:103D900039603B68002B04D10548042102F000FB88
:103DA00003E00348042102F0EDFA0837BD4680BD68
:103DB0000008024080B582B000AF7860044804215A
:103DC00002F0ACFA034618460837BD4680BD00BF76
:103DD0000008024080B584B002AF786000230093F1
:103DE0000020054904220023FDF7EEF800231846C1
:103DF0000837BD4680BD00BF0008024080B584B0D2
:103E000002AF78607B680222DA6000230093012011
:103E1000044904220023FDF7D7F800231846083789
:103E2000BD4680BD0008024080B584B002AF786016
:103E3000002300930020054904220123FDF7C4F864
:103E4000002318460837BD4680BD00BF0008024069
:103E500080B584B002AF786000230093002005494C
:103E600004220223FDF7B0F8002318460837BD46A8
:103E700080BD00BF0008024080B582B000AF78600E
:103E80000448082102F064FA034618460837BD4684
:103E900080BD00BF0008024080B582B000AF7860EE
:103EA00039603B68002B04D10548082102F078FAFC
:103EB00003E00348082102F065FA0837BD4680BDDB
:103EC0000008024080B582B000AF78600448082145
:103ED00002F024FA034618460837BD4680BD00BFED
:103EE0000008024080B584B002AF786000230093E0
:103EF0000020054908220023FDF766F80023184634
:103F00000837BD4680BD00BF0008024080B584B0C0
:103F100002AF78607B680222DA6000230093012000
:103F2000044908220023FDF74FF8002318460837FC
:103F3000BD4680BD0008024080B584B002AF786005
:103F4000002300930020054908220123FDF73CF8D7
:103F5000002318460837BD4680BD00BF0008024058
:103F600080B584B002AF786000230093002005493B
:103F700008220223FDF728F8002318460837BD461B
:103F800080BD00BF0008024080B582B000AF7860FD
:103F90000448102102F0DCF9034618460837BD46F4
:103FA00080BD00BF0008024080B582B000AF7860DD
:103FB00039603B68002B04D10548102102F0F0F96C
:103FC00003E00348102102F0DDF90837BD4680BD4B
:103FD0000008024080B582B000AF7860044810212C
:103FE00002F09CF9034618460837BD4680BD00BF65
:103FF0000008024080B584B002AF786000230093CF
:104000000020054910220023FCF7DEFF002318469C
:104010000837BD4680BD00BF0008024080B584B0AF
:1040200002AF78607B680222DA60002300930120EF
:10403000044910220023FCF7C7FF00231846083765
:10404000BD4680BD0008024080B584B002AF7860F4
:10405000002300930020054910220123FCF7B4FF40
:10406000002318460837BD4680BD00BF0008024047
:1040700080B584B002AF786000230093002005492A
:1040800010220223FCF7A0FF002318460837BD4684
:1040900080BD00BF0008024080B582B000AF7860EC
:1040A00004484FF4006102F053F9034618460837FC
:1040B000BD4680BD0010024080B582B000AF786080
:1040C00039603B68002B05D106484FF4006102F0CF
:1040D00067F904E003484FF4006102F053F9083730
:1040E000BD4680BD0010024080B582B000AF786050
:1040F00004484FF4006102F011F9034618460837EE
:10410000BD4680BD0010024080B584B002AF78602B
:1041100000230093002005494FF400620023FCF7C0
:1041200053FF002318460837BD4680BD00100240EB
:1041300080B584B002AF78607B680222DA60002329
:104140000093012005494FF400620023FCF73CFF77
:10415000002318460837BD4680BD00BF001002404E
:1041600080B584B002AF7860002300930020054939
:104170004FF400620123FCF727FF0023184608379D
:10418000BD4680BD0010024080B584B002AF7860AB
:1041900000230093002005494FF400620223FCF73E
:1041A00013FF002318460837BD4680BD00100240AB
:1041B00080B582B000AF78600448402102F0C8F8B2
:1041C000034618460837BD4680BD00BF00100240B8
:1041D00080B582B000AF786039603B68002B04D1B5
:1041E0000548402102F0DCF803E00348402102F0DA
:1041F000C9F80837BD4680BD0010024080B582B0C6
:1042000000AF78600448402102F088F80346184661
:104210000837BD4680BD00BF0010024080B584B0A5
:1042200002AF78600023009300200549402200235C
:10423000FCF7CAFE002318460837BD4680BD00BF04
:104240000010024080B584B002AF78607B68022223
:10425000DA60002300930120044940220023FCF788
:10426000B3FE002318460837BD4680BD001002404B
:1042700080B584B002AF7860002300930020054928
:1042800040220123FCF7A0FE002318460837BD4654
:1042900080BD00BF0010024080B584B002AF7860DE
:1042A000002300930020054940220223FCF78CFEE6
:1042B000002318460837BD4680BD00BF00100240ED
:1042C00080B582B000AF78600448202102F040F849
:1042D000034618460837BD4680BD00BF00100240A7
:1042E00080B582B000AF786039603B68002B04D1A4
:1042F0000548202102F054F803E00348202102F091
:1043000041F80837BD4680BD0010024080B582B03C
:1043100000AF78600448202102F000F803461846F8
:104320000837BD4680BD00BF0010024080B584B094
:1043300002AF78600023009300200549202200236B
:10434000FCF742FE002318460837BD4680BD00BF7B
:104350000010024080B584B002AF78607B68022212
:10436000DA60002300930120044920220023FCF797
:104370002BFE002318460837BD4680BD00100240C2
:1043800080B584B002AF7860002300930020054917
:1043900020220123FCF718FE002318460837BD46EB
:1043A00080BD00BF0010024080B584B002AF7860CD
:1043B000002300930020054920220223FCF704FE7D
:1043C000002318460837BD4680BD00BF00100240DC
:1043D00080B582B000AF786004484FF4007101F0FE
:1043E000B7FF034618460837BD4680BD001002409F
:1043F00080B582B000AF786039603B68002B05D192
:1044000006484FF4007101F0CBFF04E003484FF47D
:10441000007101F0B7FF0837BD4680BD00100240B3
:1044200080B582B000AF786004484FF4007101F0AD
:1044300075FF034618460837BD4680BD0010024090
:1044400080B584B002AF7860002300930020054956
:104450004FF400720023FCF7B7FD0023184608371D
:10446000BD4680BD0010024080B584B002AF7860C8
:104470007B680222DA6000230093012005494FF493
:1044800000720023FCF7A0FD002318460837BD4644
:1044900080BD00BF0010024080B584B002AF7860DC
:1044A00000230093002005494FF400720123FCF71C
:1044B0008BFD002318460837BD4680BD0010024022
:1044C00080B584B002AF78600023009300200549D6
:1044D0004FF400720223FCF777FD002318460837DB
:1044E000BD4680BD0010024080B582B000AF78604C
:1044F00004484FF4804101F02BFF0346184608376B
:10450000BD4680BD0010024080B582B000AF78602B
:1045100039603B68002B05D106484FF4804101F01B
:104520003FFF04E003484FF4804101F02BFF0837C0
:10453000BD4680BD0010024080B582B000AF7860FB
:1045400004484FF4804101F0E9FE0346184608375D
:10455000BD4680BD0010024080B584B002AF7860D7
:1045600000230093002005494FF480420023FCF70C
:104570002BFD002318460837BD4680BD00100240C1
:1045800080B584B002AF78607B680222DA600023D5
:104590000093012005494FF480420023FCF714FDED
:1045A000002318460837BD4680BD00BF00100240FA
:1045B00080B584B002AF78600023009300200549E5
:1045C0004FF480420123FCF7FFFC00231846083714
:1045D000BD4680BD0010024080B584B002AF786057
:1045E00000230093002005494FF480420223FCF78A
:1045F000EBFC002318460837BD4680BD0010024082
:1046000080B582B000AF786004484FF4005101F0EB
:104610009FFE034618460837BD4680BD0010024085
:1046200080B582B000AF786039603B68002B05D15F
:1046300006484FF4005101F0B3FE04E003484FF484
:10464000005101F09FFE0837BD4680BD00100240BA
:1046500080B582B000AF786004484FF4005101F09B
:104660005DFE034618460837BD4680BD0010024077
:1046700080B584B002AF7860002300930020054924
:104680004FF400520023FCF79FFC00231846083724
:10469000BD4680BD0010024080B584B002AF786096
:1046A0007B680222DA6000230093012005494FF461
:1046B00000520023FCF788FC002318460837BD464B
:1046C00080BD00BF0010024080B584B002AF7860AA
:1046D00000230093002005494FF400520123FCF70A
:1046E00073FC002318460837BD4680BD0010024009
:1046F00080B584B002AF78600023009300200549A4
:104700004FF400520223FCF75FFC002318460837E1
:10471000BD4680BD0010024080B582B000AF786019
:104720007B680122DA600448202101F0CFFA0023DF
:1047300018460837BD4680BD00080240A0F10800B9
:10474000FFF7EABF90B583B000AF78600C48202136
:1047500001F0A4FB04467B681B6848331B6878683B
:1047600098470346184606F0E7FC034620461946DC
:1047700006F0EAFD034618460C37BD4690BD00BF63
:1047800000080240A0F10800FFF7DCBF80B582B04E
:1047900000AF78607B680122DA600448022101F0F2
:1047A00095FA002318460837BD4680BD0008024030
:1047B000A0F10800FFF7EABF90B583B000AF7860C2
:1047C0000C48022101F06AFB04467B681B684833F1
:1047D0001B68786898470346184606F0ADFC034608
:1047E0002046194606F0B0FD034618460C37BD4674
:1047F00090BD00BF00080240A0F10800FFF7DCBF39
:1048000080B582B000AF78607B680122DA6004482E
:10481000042101F05BFA002318460837BD4680BD2D
:1048200000080240A0F10800FFF7EABF90B583B08E
:1048300000AF78600C48042101F030FB04467B682F
:104840001B6848331B68786898470346184606F08B
:1048500073FC03462046194606F076FD03461846CB
:104860000C37BD4690BD00BF00080240A0F1080013
:10487000FFF7DCBF80B582B000AF78607B680122B3
:10488000DA600448082101F021FA002318460837AD
:10489000BD4680BD00080240A0F10800FFF7EABF56
:1048A00090B583B000AF78600C48082101F0F6FAAB
:1048B00004467B681B6848331B6878689847034642
:1048C000184606F039FC03462046194606F03CFD22
:1048D000034618460C37BD4690BD00BF0008024095
:1048E000A0F10800FFF7DCBF80B582B000AF7860B0
:1048F0007B680122DA600448102101F0E7F9002307
:1049000018460837BD4680BD00080240A0F10800E7
:10491000FFF7EABF90B583B000AF78600C48102174
:1049200001F0BCFA04467B681B6848331B68786852
:1049300098470346184606F0FFFB034620461946F3
:1049400006F002FD034618460C37BD4690BD00BF79
:1049500000080240A0F10800FFF7DCBF80B582B07C
:1049600000AF7860054806494FF44052FCF742FD1D
:10497000002318460837BD4680BD00BF0008004030
:10498000000C024080B582B000AF78607B681B7A73
:10499000002B05D00648FCF7B9FD03465B4203E057
:1049A0000348FCF7B3FD034618460837BD4680BDF3
:1049B0000008004080B582B000AF78600448054927
:1049C000C022FCF717FD002318460837BD4680BDFE
:1049D000000400400000024080B582B000AF786063
:1049E0007B681B7A002B05D00648FCF78FFD034639
:1049F0005B4203E00348FCF789FD0346184608378D
:104A0000BD4680BD0004004080B582B000AF786034
:104A1000044805490322FCF7EDFC0023184608373B
:104A2000BD4680BD000C00400000024080B582B051
:104A300000AF78607B681B7A002B05D00648FCF736
:104A400065FD03465B4203E00348FCF75FFD034658
:104A500018460837BD4680BD000C004080B586B0C2
:104A600000AFF860B9607A60FB680122DA60B8686C
:104A700006F07CFD0346094809494FF40062FBF744
:104A800047FC03467B61054802217A68FBF7AAFBD5
:104A90007B6918461837BD4680BD00BF0000014045
:104AA00000100240A0F10800FFF7D8BF80B582B027
:104AB00000AF78603960044802213A68FBF792FB46
:104AC0000837BD4680BD00BF00000140A0F10800CE
:104AD000FFF7ECBF80B582B000AF786004480221D8
:104AE000FBF7E2FB034618460837BD4680BD00BF12
:104AF00000000140A0F10800FFF7ECBF80B586B0D0
:104B000000AFF860B9607A60FB680122DA60B868CB
:104B100006F02CFD0346084808494022FBF7F8FB45
:104B200003467B61044802217A68FBF75BFB7B69E3
:104B300018461837BD4680BD0040014000100240B5
:104B4000A0F10800FFF7DABF80B582B000AF78604F
:104B50003960044802213A68FBF744FB0837BD4638
:104B600080BD00BF00400140A0F10800FFF7ECBF8E
:104B700080B582B000AF786004480221FBF794FB57
:104B8000034618460837BD4680BD00BF00400140BF
:104B9000A0F10800FFF7ECBF80B586B000AFF86069
:104BA000B9607A60FB680122DA60B86806F0DEFC62
:104BB0000346084808492022FBF7AAFB03467B610D
:104BC000044801217A68FBF70DFB7B69184618370A
:104BD000BD4680BD0040014000100240A0F1080029
:104BE000FFF7DABF80B582B000AF78603960044863
:104BF00001213A68FBF7F6FA0837BD4680BD00BFD1
:104C000000400140A0F10800FFF7ECBF80B582B082
:104C100000AF786004480121FBF746FB03461846C5
:104C20000837BD4680BD00BF00400140A0F108002C
:104C3000FFF7ECBF80B586B000AFF860B9607A606E
:104C4000FB680122DA60B86806F090FC0346094868
:104C500009494FF40072FBF75BFB03467B61054893
:104C600001217A68FBF7BEFA7B6918461837BD4602
:104C700080BD00BF0000014000100240A0F108000C
:104C8000FFF7D8BF80B582B000AF786039600448C4
:104C900001213A68FBF7A6FA0837BD4680BD00BF80
:104CA00000000140A0F10800FFF7ECBF80B582B022
:104CB00000AF786004480121FBF7F6FA0346184676
:104CC0000837BD4680BD00BF00000140A0F10800CC
:104CD000FFF7ECBF80B586B000AFF860B9607A60CE
:104CE000FB680122DA60B86806F040FC0346094818
:104CF00009494FF48042FBF70BFB03467B610548F3
:104D000004217A68FBF76EFA7B6918461837BD46AE
:104D100080BD00BF0000014000100240A0F108006B
:104D2000FFF7D8BF80B582B000AF78603960044823
:104D300004213A68FBF756FA0837BD4680BD00BF2C
:104D400000000140A0F10800FFF7ECBF80B582B081
:104D500000AF786004480421FBF7A6FA0346184622
:104D60000837BD4680BD00BF00000140A0F108002B
:104D7000FFF7ECBF80B586B000AFF860B9607A602D
:104D8000FB680122DA60B86806F0F0FB03460948C8
:104D900009494FF40052FBF7BBFA03467B61054813
:104DA00003217A68FBF71EFA7B6918461837BD465F
:104DB00080BD00BF0000014000100240A0F10800CB
:104DC000FFF7D8BF80B582B000AF78603960044883
:104DD00003213A68FBF706FA0837BD4680BD00BFDD
:104DE00000000140A0F10800FFF7ECBF80B582B0E1
:104DF00000AF786004480321FBF756FA03461846D3
:104E00000837BD4680BD00BF00000140A0F108008A
:104E1000FFF7ECBF80B586B000AFF860B9607A608C
:104E2000FB680122DA60B86806F0A0FB0346094877
:104E300009494FF48042FBF76BFA03467B61054852
:104E400002217A68FBF7CEF97B6918461837BD4610
:104E500080BD00BF0004014000040240A0F1080032
:104E6000FFF7D8BF80B582B000AF786039600448E2
:104E700002213A68FBF7B6F90837BD4680BD00BF8E
:104E800000040140A0F10800FFF7ECBF80B582B03C
:104E900000AF786004480221FBF706FA0346184683
:104EA0000837BD4680BD00BF00040140A0F10800E6
:104EB000FFF7ECBF80B586B000AFF860B9607A60EC
:104EC000FB680122DA60B86806F050FB0346094827
:104ED00009494FF40042FBF71BFA03467B61054882
:104EE00003217A68FBF77EF97B6918461837BD46BF
:104EF00080BD00BF0004014000040240A0F1080092
:104F0000FFF7D8BF80B582B000AF78603960044841
:104F100003213A68FBF766F90837BD4680BD00BF3C
:104F200000040140A0F10800FFF7ECBF80B582B09B
:104F300000AF786004480321FBF7B6F90346184632
:104F40000837BD4680BD00BF00040140A0F1080045
:104F5000FFF7ECBF80B586B000AFF860B9607A604B
:104F6000FB680122DA60B86806F000FB03460848D7
:104F700008490222FBF7CCF903467B610448032170
:104F80007A68FBF72FF97B6918461837BD4680BD54
:104F90000004014000040240A0F10800FFF7DABF5E
:104FA00080B582B000AF78603960044803213A6868
:104FB000FBF718F90837BD4680BD00BF000401406B
:104FC000A0F10800FFF7ECBF80B582B000AF7860B9
:104FD00004480321FBF768F9034618460837BD4625
:104FE00080BD00BF00040140A0F10800FFF7ECBF46
:104FF00090B589B004AFF860B9607A603B60BC6876
:105000003B689AB23B6A9BB2094900910821019121
:105010000292039307482146054A042303F0BCFD8E
:10502000054A7B681360002318461437BD4690BDBF
:1050300000000240004400405009002080B582B0CA
:1050400000AF78600B46FB7000BF0A488021FCF778
:1050500053FC0346002B0CBF01230023DBB2002BC3
:10506000F3D1FB789BB203481946FCF7EBFB0837FA
:10507000BD4680BD0044004090B589B004AFF860E3
:10508000B9607A603B60BC683B689AB23B6A9BB28D
:105090000A4900914FF4006101910292039308487C
:1050A0002146064A4FF4806303F076FD054A7B688B
:1050B0001360002318461437BD4690BD000402401B
:1050C000004800405409002080B582B000AF7860ED
:1050D0000B46FB7000BF0A488021FCF70DFC03461D
:1050E000002B0CBF01230023DBB2002BF3D1FB7894
:1050F0009BB203481946FCF7A5FB0837BD4680BDA7
:105100000048004080B582B000AF0346FB7100BF8D
:105110000A488021FCF7F0FB0346002B0CBF01235B
:105120000023DBB2002BF3D1FB799BB20348194675
:10513000FCF788FB0837BD4680BD00BF0044004037
:1051400080B483B000AF78607B680022C3F804218C
:105150007B680022C3F808217B6818460C37BD46DF
:105160005DF8047B704700BF80B485B000AF786005
:105170000B46FB707B68D3F808315A1C114B83FB3C
:105180000213D911D317C91A0B461B020B44D31AA9
:10519000FB607B68D3F80421FB689A4201D10123AC
:1051A0000AE07B68D3F808317A68F978D1547B68D3
:1051B000FA68C3F80821002318461437BD465DF885
:1051C000047B7047817F807F80B483B000AF7860BC
:1051D0007B68D3F804217B68D3F808319A4201D167
:1051E000012300E0002318460C37BD465DF8047B20
:1051F000704700BF80B485B000AF78607B68D3F89B
:1052000004217B68D3F808319A4201D1002317E0CA
:105210007B68D3F804317A68D35CFB737B68D3F87E
:105220000431591C094B83FB0123DA11CB17D21A25
:1052300013461B021344CA1A7B68C3F80421FB7B84
:1052400018461437BD465DF8047B7047817F807F28
:1052500080B483B000AF786039607B683A681A60C8
:105260007B6818460C37BD465DF8047B704700BF6D
:1052700080B483B000AF78607B68044A1A607B68B2
:1052800018460C37BD465DF8047B7047A8DB010863
:1052900080B483B000AF78607B68044A1A607B6892
:1052A00018460C37BD465DF8047B704788DB010863
:1052B00080B582B000AF78607B681846FFF7D8FFF2
:1052C0007B6808331846FFF7E3FF7B68064A1A60DD
:1052D0007B68064A9A607B680022DA607B68184621
:1052E0000837BD4680BD00BF20CF010878CF010838
:1052F00080B483B000AF78607B68044A1A607B6832
:1053000018460C37BD465DF8047B704768DB010822
:1053100080B582B000AF78607B681846FFF7A8FFC1
:105320007B68034A1A607B6818460837BD4680BD13
:10533000B8D6010880B582B000AF78607B681846A7
:10534000FFF796FF7B68034A1A607B6818460837A8
:10535000BD4680BD70D6010880B582B000AF7860D0
:105360007B681846FFF784FF7B6808331846FFF711
:10537000BFFF7B68044A1A607B68044A9A607B68B6
:1053800018460837BD4680BDF8D501084CD601083F
:1053900080B582B000AF78607B681846FFF768FF81
:1053A0007B68034A1A607B6818460837BD4680BD93
:1053B00038D5010880B596B000AF00F007FA07F1C4
:1053C00040031846FFF7A4FF07F140031846FCF717
:1053D000F5FE07F140031846FCF792FF07F134028F
:1053E00007F1400310461946FFF732FF07F12C037F
:1053F0001846FFF79FFF07F12C031846FCF7DEFE67
:1054000007F12C031846FCF77BFF07F11C03184635
:10541000FFF7A2FF07F11C030833184657494FF066
:105420000002FCF7C1FF07F11C03083318464FF0D8
:105430000001FCF7CBFF07F10C031846FFF738FF1C
:1054400007F10C031846FCF7B9FE07F10C031846E8
:10545000FCF756FF3B1D1846FFF79AFF3B1D184609
:10546000FCF792FE00237B6500233B654FF00003B1
:10547000FB64434BBB64FCF76DFA7B6D1A464FEA45
:10548000E273821A61EB03034FF4FA704FF00001EC
:10549000904271EB0303B4BF01230023DBB2002B66
:1054A0000AD0FCF757FA02460B4613467B6507F114
:1054B00040031846FCF740FFFCF74CFA3B6D1A46D8
:1054C0004FEAE273821A61EB03034FF47A704FF0F4
:1054D0000001904271EB0303B4BF01230023DBB250
:1054E000002B0AD0FCF736FA02460B4613463B6502
:1054F00007F10C031846FCF71FFF3B1D1846FCF78D
:10550000DFFE0346002B14BF01230023DBB2002B78
:1055100005D007F12C031846FCF700FF04E007F163
:105520002C031846FCF7ECFEF86C4FF0000105F078
:10553000EBFF0346002B02D0124BBB6409E0F86C72
:105540004FF07E5105F0E0FF0346002B01D00C4BDD
:10555000BB64F86CB96C05F03BFD0346FB6407F1D6
:105560001C0308331846F96CFCF730FF4FF00A00B3
:105570004FF00001FCF742FA7DE700BF00401C46F7
:105580000AD723BC0AD7233C80B489B000AF786027
:105590000023BB6100237B610023FB6102233B618D
:1055A0000023FB600223BB60484B9B6803F00C03A5
:1055B000BB61BB69042B07D0082B09D0002B3FD15E
:1055C0007B68434A1A603FE07B68424A1A603BE0CE
:1055D0003E4B5B6803F480039B0DFB603B4B5B68B9
:1055E00003F03F03BB60FB68002B0DD0394ABB685A
:1055F000B2FBF3F2354B596847F6C0730B409B0979
:1056000003FB02F3FB610CE0314ABB68B2FBF3F22F
:105610002E4B596847F6C0730B409B0903FB02F3FE
:10562000FB612A4B5B6803F440331B0C01335B00C6
:105630003B61FA693B69B2FBF3F27B681A6003E0F5
:105640007B68234A1A6000BF204B9B6803F0F0037D
:10565000BB61BB691B09BB611F4ABB6913441B7853
:10566000DBB27B617B681A687B69DA407B685A60D1
:10567000164B9B6803F4E053BB61BB699B0ABB619B
:10568000154ABB6913441B78DBB27B617B685A689F
:105690007B69DA407B689A600C4B9B6803F460433B
:1056A000BB61BB695B0BBB610B4ABB6913441B78D5
:1056B000DBB27B617B685A687B69DA407B68DA60C1
:1056C0002437BD465DF8047B704700BF00380240B8
:1056D0000024F40000127A003000002080B483B06F
:1056E00000AF78600B46FB70FB78002B06D00949B1
:1056F000084B1A6B7B6813430B6306E00549054BA7
:105700001A6B7B68DB4313400B630C37BD465DF8B7
:10571000047B70470038024080B483B000AF7860EB
:105720000B46FB70FB78002B06D00949084B1A6C1E
:105730007B6813430B6406E00549054B1A6C7B68D4
:10574000DB4313400B640C37BD465DF8047B7047A8
:105750000038024080B483B000AF78600B46FB7025
:10576000FB78002B06D00949084B5A6C7B68134321
:105770004B6406E00549054B5A6C7B68DB431340DC
:105780004B640C37BD465DF8047B7047003802401F
:1057900080B483B000AF78600B46FB70FB78002BC1
:1057A00006D00949084B5A6A7B6813434B6206E0EE
:1057B0000549054B5A6A7B68DB4313404B620C3743
:1057C000BD465DF8047B70470038024080B500AFED
:1057D00000F03CFE064B1B689B6818460021022225
:1057E000002307F099FAFCF7E1F80023184680BD82
:1057F0008004002080B500AF4FF480700121FFF7D6
:10580000C7FF4FF480700021FFF7C2FF80BD00BFCB
:1058100080B485B000AF786039600023FB6000235E
:10582000FB727B685B68FB60FB6823F0407323F4CA
:105830008073FB603B681B791A023B681B6813434B
:10584000FA681343FB607B68FA685A607B689B6860
:10585000FB60FA68174B1340FB603B681A693B68B2
:10586000DB681A433B689B681A433B685B795B00C3
:105870001343FA681343FB607B68FA689A607B689D
:10588000DB6AFB60FB6823F47003FB603B681B7DF5
:10589000013BDAB2FB7A1343FB72FB7A1B05FA6811
:1058A0001343FB607B68FA68DA621437BD465DF823
:1058B000047B7047FDF7FFC080B483B000AF786011
:1058C0007B6800221A607B6800221A717B680022C4
:1058D0005A717B6800229A607B680022DA607B68DC
:1058E00000221A617B6801221A750C37BD465DF8EB
:1058F000047B704780B485B000AF78600023FB6004
:105900000E4B5B68FB60FA680D4B1340FB607B68D5
:105910001A687B685B681A437B689B681A437B68DC
:10592000DB681343FA681343FB60044AFB68536067
:105930001437BD465DF8047B704700BF002301406B
:10594000E030FCFF80B483B000AF78607B68002259
:105950001A607B6800225A607B6800229A607B682C
:105960000022DA600C37BD465DF8047B704700BF4B
:1059700080B483B000AF78600B46FB70FB78002BDF
:1059800006D07B689B6843F001027B689A6005E063
:105990007B689B6823F001027B689A600C37BD46E8
:1059A0005DF8047B704700BF80B485B000AF7860BD
:1059B000084611461A460346FB700B46BB70134659
:1059C0007B700023FB600023BB60FB78092B23D98D
:1059D0007B68DB68FB60FB78A3F10A0213465B007F
:1059E0001344072202FA03F3BB60BB68DB43FA6887
:1059F0001340FB607978FB78A3F10A0213465B0041
:105A0000134401FA03F3BB60FA68BB681343FB60FD
:105A10007B68FA68DA601EE07B681B69FB60FA78D5
:105A200013465B001344072202FA03F3BB60BB6812
:105A3000DB43FA681340FB607978FA7813465B0021
:105A4000134401FA03F3BB60FA68BB681343FB60BD
:105A50007B68FA681A61BB78062B21D87B685B6B80
:105A6000FB60BB785A1E13469B0013441F2202FAA8
:105A700003F3BB60BB68DB43FA681340FB60F97853
:105A8000BB785A1E13469B00134401FA03F3BB6014
:105A9000FA68BB681343FB607B68FA685A6347E0A7
:105AA000BB780C2B21D87B681B6BFB60BB78DA1FA3
:105AB00013469B0013441F2202FA03F3BB60BB682A
:105AC000DB43FA681340FB60F978BB78DA1F1346B2
:105AD0009B00134401FA03F3BB60FA68BB681343ED
