:020000040800F2
:10000000D85801203126000871B400088DB40008CA
:10001000A9B40008C5B40008E1B40008000000005D
:10002000000000000000000000000000FDB4000817
:1000300019B500080000000035B500082D230008A0
:100040008D2600088D2600088D2600088D260008C4
:100050008D2600088D2600088D2600088D260008B4
:100060008D2600088D2600088D2600088D260008A4
:100070008D2600088D2600088D2600088D26000894
:100080008D2600088D2600088D2600088D26000884
:100090009D6200088D2600088D2600088D26000828
:1000A0008D260008191100088D2600088D260008ED
:1000B00061110008AD110008F51100088D26000837
:1000C0008D2600088D2600088D2600088D26000844
:1000D0008D2600088D260008155D0008AD5D00081E
:1000E0008D2600088D26000859160008CD1200083C
:1000F000851200088D2600088D2600088D26000830
:100100008D26000825B700083D1200088D2600083E
:100110008D2600088D2600088D2600088D260008F3
:100120008D2600088D2600088D26000831B70008AE
:100130008D2600088D2600088D2600088D260008D3
:100140008D2600088D2600088D2600084916000817
:100150008D2600088D2600088D2600088D260008B3
:100160008D2600088D2600088D2600088D260008A3
:100170008D2600088D2600088D2600088D26000893
:100180008D2600088D26000810B5054C237833B95C
:10019000044B13B10448AFF300800123237010BD5A
:1001A000100900200000000080800208084B10B5F4
:1001B0001BB108480849AFF300800848036803B939
:1001C00010BD074B002BFBD0BDE81040184700BF07
:1001D00000000000808002081409002008090020A7
:1001E0000000000080B584B000AFF8600B467A6074
:1001F000FB72FB7A013B032B52D801A252F823F089
:100200001102000835020008590200087D020008AA
:10021000FB68DB6A184612F007FC0346184679684B
:1002200012F05AFC0346184612F042FE0246FB68E2
:100230005A6336E0FB68DB6A184612F0F5FB0346AA
:100240001846796812F048FC0346184612F030FE52
:100250000246FB689A6324E0FB68DB6A184612F0EA
:10026000E3FB03461846796812F036FC034618464D
:1002700012F01EFE0246FB68DA6312E0FB68DB6ADE
:10028000184612F0D1FB03461846796812F024FC98
:100290000346184612F00CFE0246FB681A6400E0A2
:1002A00000BF1037BD4680BD80B582B000AF78601A
:1002B0000B46FB70FB78012B06D17B685B6B184605
:1002C00012F0B2FB03461FE0FB78022B06D17B68DD
:1002D0009B6B184612F0A8FB034615E0FB78032B36
:1002E00006D17B68DB6B184612F09EFB03460BE0E1
:1002F000FB78042B06D17B681B6C184612F094FB2C
:10030000034601E04FF0000318460837BD4680BDA4
:1003100090B5ADB002AFF860B9603B601346FB80AA
:100320000023C7F8A4300023C7F8A0300023C7F883
:100330009C300123C7F898300023A7F896300BF0C3
:1003400069FB07F14403184608F052FDFB68B3F15E
:10035000804F03D3FB68944A934207D9FB68934AC2
:10036000934211D9FB68924A93420DD8FB6C914A93
:10037000D2F88C20120E02F00102013202FB03F3CC
:100380005B00C7F8A4300CE03B6D8A4AD2F88C20A1
:10039000120E02F00102013202FB03F35B00C7F808
:1003A000A4303B68002B0ADDD7F8A430824A82FBD8
:1003B00003125211DB17D21A3B689A4201DA012369
:1003C000EEE01FE0D7F8A0300133C7F8A030D7F82F
:1003D000A420D7F8A03092FBF3F23B6892FBF3F332
:1003E000C7F89C30D7F89C30B3F5803F02DA002381
:1003F000C7F89830D7F8A0304FF6FE72934201DD6F
:100400000123CDE0D7F89830002BDBD1D7F8A4201A
:10041000D7F8A03092FBF3F2D7F89C3092FBF3F3BD
:100420003B60F8680DF03EF9FA8800230093022043
:10043000B968002300F0C8FDD7F89C30013BFB638E
:10044000D7F8A0309BB2013B9BB23B870023A7F8B3
:10045000403000237B87002387F8423007F13803C0
:10046000F86819460DF0C2FF6023BB8400233B8669
:100470000123FB8404233B8508237B864FF4807390
:10048000BB864FF40073FB8607F12403F868194616
:100490000EF084F8F86800210EF06EFA07F12403DC
:1004A000F86819460EF0F4F8F86800210EF080FAAA
:1004B00007F12403F86819460EF072F9F868002174
:1004C0000EF094FA07F12403F86819460EF0EEF9DD
:1004D000F86800210EF0A6FAFB68384A934203D070
:1004E000FB68374A934211D107F1140318460EF006
:1004F000DFFA4FF480433B8407F11403F868194690
:100500000EF0AEFAF86801210EF0F0FAFA8807F161
:100510005403104619460CF043FF0023A7F8963009
:1005200025E0B7F896305B0007F1A802134433F8D2
:10053000543C012B16D1B7F8963010335B0007F10D
:10054000A802134433F8523C18460DF02FFA034624
:100550009CB2F8680DF0A0FA0346B86821461A4626
:100560000BF0E4F9B7F896300133A7F89630B7F8F6
:1005700096300F2BD5D9FB6800225A63FB68002206
:100580009A63FB680022DA63FB6800221A64F86849
:1005900001210DF0C3FFF86801210DF0DFFF0023FA
:1005A0001846AC37BD4690BD00140040FF17004010
:1005B00000200040003802401F85EB510000014040
:1005C0000004014080B489B000AFF860B960114602
:1005D0001A460B46FB711346BB800023FB76FB6873
:1005E000DB78002B22D100237B610023FB61BB88D9
:1005F0000333002B00DA03339B107B61FB79FA682D
:1006000032339B0013449B683B610023FB6109E08C
:10061000BB681A683B691A60FB690133FB61BB6800
:100620000433BB60FA697B699A42F1D3FB7E1846BA
:100630002437BD465DF8047B704700BF80B489B0A5
:1006400000AFF860B9601346FB800023FB61FB88B4
:100650000333002B00DA03339B10BB61FB68D3F834
:10066000D0307B610023FB6109E07B691A68BB68BD
:100670001A60FB690133FB61BB680433BB60FA6934
:10068000BB699A42F1D3BB6818462437BD465DF872
:10069000047B704780B586B000AF78603960002376
:1006A000FB7400237B610023FB60FB6843F02003A5
:1006B000FB603B68DBB203F01F03DBB203F01F03F8
:1006C0009B01FA6822F4F8621343FB607B68DB68E5
:1006D000FA681A617B68DB681B69FB607B69013320
:1006E0007B617B69094A934200D906E0FB685B099C
:1006F00003F00103DBB2012BECD003200BF0ACFCC8
:10070000FB7C18461837BD4680BD00BF400D030076
:1007100080B483B000AF78607B68DB685B6903F00E
:10072000010318460C37BD465DF8047B704700BFD7
:1007300080B582B000AF78607868FFF7E9FF0346C4
:10074000012B14BF01230023DBB218460837BD4636
:1007500080BD00BF80B485B000AF78600023FB602F
:100760007B68DB685B69FB607B68DB689B69FA68B8
:100770001340FB60FB6818461437BD465DF8047BE8
:10078000704700BF80B485B000AF78600023FB7372
:100790007B681B699B68BB603B7AC3F34103DBB298
:1007A000022B09D0032B04D0012B02D00323FB73AF
:1007B00005E00223FB7302E00123FB7300BFFB7B18
:1007C00018461437BD465DF8047B704780B487B087
:1007D00000AF78600023FB750023BB607B681B695A
:1007E0009B683B617B689B691B68FB603B7CC3F338
:1007F0004103DBB2022B04D0BB896FF30A03BB8138
:1008000005E0BB89032262F30A03BB8100BF7B685A
:100810009B69FA681A607B7A43F001037B727B68FC
:100820001B697A6812695168BA68D2431140BA6884
:100830000A435A60FB7D18461C37BD465DF8047BB1
:10084000704700BF80B487B000AF78603960002384
:10085000FB740023FB600023BB603B685B78012BCB
:100860000FD13B681B787A6804339B0013449B6864
:100870007B613B681B781A46012393409BB23B8106
:100880000EE03B681B787A6814339B0013445B6866
:100890007B613B681B781A46012393409BB27B81A6
:1008A0007B691B68FB607B7B23F07F03DBB2002B43
:1008B00027D13B689B689BB2C3F30A039AB2BB89FA
:1008C00062F30A03BB813B68DB7803F00303DAB20F
:1008D000BB7B62F38303BB733B68DB88DBB203F053
:1008E0000F03DAB2FB8962F38913FB81FB7B43F0D0
:1008F0001003FB737B7B43F080037B73FA687B6997
:100900001A607B681B697A681269D169BA680A4300
:10091000DA61FB7C18461C37BD465DF8047B7047E6
:1009200080B588B000AF786039600023FB77002382
:10093000BB6100237B6100233B613B685B78012B3B
:1009400040F0AB803B681B787A6804339B0013440B
:100950009B681B687B613B681B787A6804339B004B
:1009600013449B681B693B613B685B69002B09D1A1
:100970003B696FF312033B617B8A012262F3CC0374
:100980007B8222E03B685B69C3F312023B6962F33E
:1009900012033B613B685A693B689B6813445A1ECB
:1009A0003B689B68B2FBF3F39BB2C3F309039AB2B3
:1009B0007B8A62F3CC037B823B68DB78012B04D11A
:1009C000FB7C012262F34613FB743B681B787A6858
:1009D00004339B0013449B683A691A617B68DB7897
:1009E000012B0AD13B681B787A6804339B001344BF
:1009F0009B683A6812695A6115E03B68DB78012B05
:100A000011D03B685B69002B0DD03B681B781A4600
:100A100001239340BB617B681B697A681269516B43
:100A2000BA690A435A633B68DB78012B14D17B68AF
:100A30001B699B68FB60FB68C3F30D239BB203F04B
:100A40000103002B04D1FB7D43F02003FB7503E081
:100A5000FB7D43F01003FB75FB7D43F00403FB7546
:100A6000FB7D43F08003FB753B681B787A68043399
:100A70009B0013449B687A691A603B68DB78012B02
:100A800040F089803B68D9683B681A783B685B69AD
:100A90009BB27868FFF796FD7DE03B681B787A682B
:100AA00014339B0013445B681B687B613B681B78B5
:100AB0007A6814339B0013445B681B693B613B6895
:100AC0005B69002B0DD13B689B68C3F312023B6945
:100AD00062F312033B617B8A012262F3CC037B82C7
:100AE00020E03B685A693B689B6813445A1E3B6888
:100AF0009B68B2FBF3F39BB2C3F309039AB27B8A00
:100B000062F3CC037B827B8AC3F3C9039BB21A4690
:100B10003B689B6803FB02F3C3F312023B6962F379
:100B200012033B613B681B787A6814339B001344C3
:100B30005B683A691A617B68DB78012B09D13B68F5
:100B40001B787A6814339B0013445B683A68126917
:100B50005A613B68DB78012B0CD13B685B79002B39
:100B600004D0FB7D43F02003FB7503E0FB7D43F0E5
:100B70001003FB75FB7D43F00403FB75FB7D43F025
:100B80008003FB753B681B787A6814339B00134421
:100B90005B687A691A60FB7F18462037BD4680BDC6
:100BA00080B489B000AF786039600023FB77002300
:100BB000BB6100233B610023BB603B685B78012B7A
:100BC00070D17B689B697B617B691B683B617B693A
:100BD0001B69BB603B685B69002B09D13B7A6FF3F3
:100BE00006033B72BB7A012262F3C403BB7223E0AB
:100BF0003B685A693B689B689A420ED93B689A6881
:100C00003B685A613B689B68DBB203F07F03DAB252
:100C10003B7A62F306033B7209E03B685B69DBB237
:100C200003F07F03DAB23B7A62F306033B72BB7ACE
:100C3000012262F3C403BB72BA687B691A617B68E4
:100C4000DB78012B09D13B681B787A6804339B0061
:100C500013449B683A6812695A61FB7C43F00403B1
:100C6000FB74FB7C43F08003FB743A697B691A6078
:100C70007B68DB78002B76D13B685B69002B72D0F8
:100C80003B681B781A46012393401A46BB691343FD
:100C9000BB617B681B697A681269516BBA690A4348
:100CA0005A6360E03B681B787A6814339B001344F6
:100CB0005B681B683B613B681B787A6814339B0058
:100CC00013445B681B69BB603B685B69002B0FD1F9
:100CD0003B689B68DBB203F07F03DAB23B7A62F3D6
:100CE00006033B72BB7A012262F3C403BB7212E0BB
:100CF0003B689A683B685A613B689B68DBB203F0CB
:100D00007F03DAB23B7A62F306033B72BB7A0122BD
:100D100062F3C403BB723B681B787A6814339B0090
:100D200013445B68BA681A617B68DB78012B09D1D0
:100D30003B681B787A6814339B0013445B683A68FD
:100D400012695A61FB7C43F00403FB74FB7C43F0A3
:100D50008003FB743B681B787A6814339B00134450
:100D60005B683A691A60FB7F18462437BD465DF818
:100D7000047B704780B487B000AF7860396000238F
:100D8000FB750023FB603B685B78012B1CD13B6843
:100D90001B787A6804339B0013449B683B613B6972
:100DA0001B68FB60FB7B23F07F03DBB2002B03D0CF
:100DB000FB7B43F04003FB73BB7B43F02003BB731F
:100DC000FA683B691A6011E03B681B787A68143353
:100DD0009B0013445B683B613B691B68FB60BB7B0A
:100DE00043F02003BB73FA683B691A60FB7D184629
:100DF0001C37BD465DF8047B704700BF80B487B0E8
:100E000000AF786039600023FB740023FB603B680F
:100E10005B78012B08D13B681B787A6804339B0010
:100E200013449B687B6107E03B681B787A68143346
:100E30009B0013445B687B617B691B68FB60BB7B29
:100E40006FF34513BB733B68DB78032B03D03B6820
:100E5000DB78022B03D1FB7B43F01003FB73FA68B2
:100E60007B691A60FB7C18461C37BD465DF8047B25
:100E7000704700BF80B485B000AF78607B681B69A5
:100E80009B69FB607B681B69DB69FA681340FB6048
:100E9000FB681B0C18461437BD465DF8047B704791
:100EA00080B485B000AF78600B46FB70FB787A6841
:100EB00014339B0013445B689B68FB607B681B6971
:100EC0005B69FA681340FB60FB6818461437BD463F
:100ED0005DF8047B704700BF80B485B000AF7860D8
:100EE0007B681B699B69FB607B681B69DB69FA682F
:100EF0001340FB60FB689BB218461437BD465DF893
:100F0000047B704780B487B000AF786000233B61FA
:100F1000FB7C43F0C003FB74BB7C012262F3C4037F
:100F2000BB743B7C182262F306033B747B685B6DE9
:100F30003A691A617B68DB78012B16D10023FB60CC
:100F40007B685B6D7A6802F5B9625A617B685B6D9C
:100F50001B68FB60FB7B43F08003FB734FF0802337
:100F6000FB607B685B6DFA681A601C37BD465DF8F4
:100F7000047B704780B485B000AF78607B689B7A53
:100F8000002B1BD07B681B699B68FB603B7B03F0DD
:100F90000103DBB2002B11D07B6803F586731B685D
:100FA000BB603B7A6FF341033B723B7A6FF3000304
:100FB0003B727B68D3F80C31BA681A601437BD46AF
:100FC0005DF8047B704700BF80B584B000AF396026
:100FD00011461A460346FB710B46BB801346BB7194
:100FE0003B68254A934204D10120012107F0AAFF62
:100FF00022E03B68214A934204D10220012107F0FC
:10100000A1FF19E03B681E4A934204D1042001214C
:1010100007F098FF10E03B681A4A934204D1082079
:10102000012107F08FFF07E03B68174A934203D185
:101030001020012107F086FF07F1080318460AF087
:101040000BFCBB88BB60FB793B733B7EBB73BB79FE
:10105000FB7303237B7307F10803386819460AF012
:101060006DFBFB79012B04D1BB88386819460AF067
:101070004FFC1037BD4680BD000002400004024016
:1010800000080240000C02400010024080B483B00F
:1010900000AF78600B46FB70FB78002B06D0094947
:1010A000084BDA6B7B681343CB6306E00549054BBD
:1010B000DA6B7B68DB431340CB630C37BD465DF8CE
:1010C000047B7047002C014080B485B000AF78608D
:1010D0000023FB73084B5A6B7B681340002B02D034
:1010E0000123FB7301E00023FB73FB7B18461437DD
:1010F000BD465DF8047B7047002C014080B483B08E
:1011000000AF7860034A7B6893630C37BD465DF897
:10111000047B7047002C014080B500AF0E4B1B884C
:101120009BB21B099BB2002B05D00C4B1B68013BEB
:101130000A4A13600BE0084B1B889BB21B099BB249
:10114000002B04D1054B1B680133044A136002488D
:1011500001210DF015FD80BD000001402C0900208B
:1011600080B500AF4FF080431B889BB21B099BB238
:10117000002B05D00C4B1B68013B0B4A13600CE0A5
:101180004FF080431B889BB21B099BB2002B04D1FC
:10119000054B1B680133044A13604FF08040012166
:1011A0000DF0EEFC80BD00BF3009002080B500AF1F
:1011B0000E4B1B889BB21B099BB2002B05D00C4B1E
:1011C0001B68013B0A4A13600BE0084B1B889BB26B
:1011D0001B099BB2002B04D1054B1B680133044A49
:1011E0001360024801210DF0CBFC80BD00040040DB
:1011F0003409002080B500AF0E4B1B889BB21B0941
:101200009BB2002B05D00C4B1B68013B0A4A1360B4
:101210000BE0084B1B889BB21B099BB2002B04D12F
:10122000054B1B680133044A1360024801210DF08D
:10123000A7FC80BD000800403809002080B500AF41
:101240000E4B1B889BB21B099BB2002B05D00C4B8D
:101250001B68013B0A4A13600BE0084B1B889BB2DA
:101260001B099BB2002B04D1054B1B680133044AB8
:101270001360024801210DF083FC80BD000C00408A
:101280003C09002080B500AF0E4B1B889BB21B09A8
:101290009BB2002B05D00C4B1B68013B0A4A136024
:1012A0000BE0084B1B889BB21B099BB2002B04D19F
:1012B000054B1B680133044A1360024801210DF0FD
:1012C0005FFC80BD000401404009002080B500AFF4
:1012D0000E4B1B889BB21B099BB2002B05D00C4BFD
:1012E0001B68013B0A4A13600BE0084B1B889BB24A
:1012F0001B099BB2002B04D1054B1B680133044A28
:101300001360024801210DF03BFC80BD0018004035
:101310004409002080B500AF04480DF0F3F8024600
:10132000034B1B681B041344184680BD000001409A
:101330002C09002080B500AF4FF080400DF0E2F89E
:101340000246034B1B681B041344184680BD00BFB4
:101350003009002080B500AF04480DF0D3F80246F4
:10136000034B1B681B041344184680BD0004004057
:101370003409002080B500AF04480DF0C3F80246E0
:10138000034B1B681B041344184680BD0008004033
:101390003809002080B500AF04480DF0B3F80246CC
:1013A000034B1B681B041344184680BD000C00400F
:1013B0003C09002080B500AF04480DF0A3F80246B8
:1013C000034B1B681B041344184680BD00040140F6
:1013D0004009002080B500AF04480DF093F80246A4
:1013E000034B1B681B041344184680BD00180040C3
:1013F0004409002090B59DB002AFF860B960134673
:10140000FB800023A7F866300023A7F86430F86853
:101410000CF048F9FA88002300930220B9680123F0
:10142000FFF7D2FDFA8807F12003104619460BF0AA
:10143000B7FF0023A7F8663025E0B7F866305B00F9
:1014400007F16802134433F8483C012B16D1B7F872
:10145000663010335B0007F16802134433F8463CF2
:1014600018460CF0A3FA03469CB2F8680CF014FB83
:101470000346B86821461A460AF058FAB7F86630AB
:101480000133A7F86630B7F866300F2BD5D91D4B5E
:101490001B681D4AA2FB03235B0E9BB2013BA7F80E
:1014A00064304FF6FE73BB610023BB820023BB8315
:1014B0000023FB8207F11403F86819460CF096FF2D
:1014C000B7F86430F868194601220CF0F9FFF868A3
:1014D0000321002200230DF063FBF86801210122A3
:1014E0000DF02AFBF86801210DF038F8F8680CF0CF
:1014F0008FF8034618460CF043FA00F055F86C37A5
:10150000BD4690BD4000002029D9426680B582B01A
:1015100000AF78607B681E4A934203D1FFF7FAFE62
:10152000034630E07B68B3F1804F03D1FFF702FF41
:10153000034628E07B68174A934203D1FFF70AFF6E
:10154000034620E07B68144A934203D1FFF712FF61
:10155000034618E07B68114A934203D1FFF71AFF54
:10156000034610E07B680E4A934203D1FFF722FF47
:10157000034608E07B680B4A934203D1FFF72AFF3A
:10158000034600E0002318460837BD4680BD00BF73
:10159000000001400004004000080040000C004032
:1015A000000401400018004080B500AF194B002234
:1015B0001A60194B00221A60184B00221A60184B4F
:1015C00000221A60174B00221A60174B00221A6083
:1015D000164B00221A60164800210CF085FF4FF0D0
:1015E000804000210CF080FF124800210CF07CFFAD
:1015F000114800210CF078FF104800210CF074FF16
:101600000F4800210CF070FF0E4800210CF06CFF19
:1016100080BD00BF2C0900203009002034090020C3
:10162000380900203C09002040090020440900201E
:10163000000001400004004000080040000C004091
:10164000000401400018004080B500AF01480BF0D5
:1016500069F980BDE012002080B500AF094B9B7A8C
:10166000002B0AD0084A084B1B6823F006031360BE
:101670000AF0A4F90348FFF77DFC4FF480200BF03B
:1016800081FE80BDE012002010ED00E080B58AB040
:1016900000AF7860396000237B6200233B62002347
:1016A000FB610023BB617B681B8A9BB27B627B6A08
:1016B00023F440537B623B68DB881A467B6A134302
:1016C0007B627B6A9AB27B681A827B689B899BB239
:1016D0007B627B6A23F4B05323F00C037B623B688C
:1016E0009A883B681B8913439AB23B685B89134312
:1016F0009BB21A467B6A13437B627B6A9AB27B6811
:101700009A817B689B8A9BB27B627B6A23F44073DD
:101710007B623B689B891A467B6A13437B627B6AC8
:101720009AB27B689A8207F10803184607F060FBBB
:101730007B68314A934203D07B68304A934202D19E
:101740007B693B6201E03B693B627B689B899BB2A2
:101750009BB21BB2002B0CDA3A6A13469B0013446F
:101760009A001A443B681B685B00B2FBF3F3FB6111
:101770000BE03A6A13469B0013449A001A443B68F4
:101780001B689B00B2FBF3F3FB61FB691C4AA2FBE5
:1017900003235B091B017B627B6A1B09642202FB3A
:1017A00003F3FA69D31ABB617B689B899BB29BB236
:1017B0001BB2002B0CDABB69DB003233104AA2FBF0
:1017C00003235B0903F007037A6A13437B620BE090
:1017D000BB691B0132330A4AA2FB03235B0903F0F6
:1017E0000F037A6A13437B627B6A9AB27B681A8121
:1017F0002837BD4680BD00BF0010014000140140E5
:101800001F85EB5180B483B000AF78600B46FB704E
:10181000FB78002B08D07B689B899BB243F4005374
:101820009AB27B689A8107E07B689B899BB223F41C
:1018300000539AB27B689A810C37BD465DF8047BF1
:10184000704700BF80B483B000AF78600B467B80E8
:101850007B88C3F308039AB27B689A800C37BD4635
:101860005DF8047B704700BF80B483B000AF786040
:101870007B689B889BB2C3F308039BB218460C3766
:10188000BD465DF8047B704780B487B000AF7860D8
:101890000B467B8013467B7000233B610023FB607B
:1018A0000023BB6000237B617B687B617B88DBB2AC
:1018B0005B09DBB23B617B8803F01F03FB60FB68C5
:1018C000012202FA03F3BB603B69012B03D17B6960
:1018D0000C337B6109E03B69022B03D17B69103338
:1018E0007B6102E07B6914337B617B78002B06D03F
:1018F0007B697A691168BA680A431A6006E07B69F5
:101900007A691168BA68D2430A401A601C37BD462A
:101910005DF8047B704700BF80B485B000AF78608D
:101920000B467B800023FB737B681B889AB27B8805
:1019300013409BB2002B02D00123FB7301E0002374
:10194000FB73FB7B18461437BD465DF8047B70477C
:1019500080B485B000AF78607B681B783B737B6890
:101960005B787B737B689B78BB737B68DB78FB73EE
:10197000FB6818461437BD465DF8047B704700BF0E
:1019800080B485B000AF78600B467B807B88BB81DC
:101990003A7B7B681A707B6801337A7B1A70143744
:1019A000BD465DF8047B704780B582B000AF7860BB
:1019B0007B680D4A93420AD14FF00070012107F075
:1019C0001BFB4FF00070002107F016FB09E04FF001
:1019D0008060012107F010FB4FF08060002107F0CC
:1019E0000BFB0837BD4680BD0064004080B485B065
:1019F00000AF786039600023FB730023BB607B6815
:101A00001B6823F002027B681A607B681B6843F046
:101A100001027B681A6002E0BB680133BB607B682F
:101A20005B6803F00103002B04D1BB684FF6FF7223
:101A30009342F1D17B685B6803F00103002B02D174
:101A40000023FB739CE03B689B79012B06D17B68EC
:101A50001B6843F080027B681A6005E07B681B68A6
:101A600023F080027B681A603B68DB79012B06D18A
:101A70007B681B6843F040027B681A6005E07B6866
:101A80001B6823F040027B681A603B681B7A012BBD
:101A900006D17B681B6843F020027B681A6005E072
:101AA0007B681B6823F020027B681A603B685B7AC6
:101AB000012B06D17B681B6843F010027B681A601B
:101AC00005E07B681B6823F010027B681A603B68A6
:101AD0009B7A012B06D17B681B6843F008027B6868
:101AE0001A6005E07B681B6823F008027B681A60B7
:101AF0003B68DB7A012B06D17B681B6843F004024C
:101B00007B681A6005E07B681B6823F004027B6831
:101B10001A603B689B789A073B68DB781B061A4380
:101B20003B681B791B041A433B685B791B051A430E
:101B30003B681B88013B1A437B68DA617B681B6842
:101B400023F001027B681A600023BB6002E0BB68DF
:101B50000133BB607B685B6803F00103002B04D09A
:101B6000BB684FF6FF729342F1D17B685B6803F06C
:101B70000103002B02D00023FB7301E00123FB7360
:101B8000FB7B18461437BD465DF8047B704700BFE9
:101B900080B485B000AF78600023FB607B689B7ADF
:101BA0001A4601239340FB60554A554BD3F8003247
:101BB00043F00103C2F800325149514BD3F81C22C3
:101BC000FB68DB431340C1F81C327B681B7B002B96
:101BD00025D14B494A4BD3F80C22FB68DB43134019
:101BE000C1F80C3246497B689B7A18467B68DB88D3
:101BF0001B047A6852881A4300F1480341F83320E5
:101C00003F497B689B7A18467B689B881B047A68EF
:101C100012881A4300F14803DB000B445A607B68CA
:101C20001B7B012B24D13649354BD3F80C22FB68A2
:101C30001343C1F80C3232497B689B7A18467B68A3
:101C40001B881B047A6852881A4300F1480341F844
:101C500033202B497B689B7A18467B689B881B0442
:101C60007A68D2881A4300F14803DB000B445A60BB
:101C70007B68DB7A002B09D12149214BD3F8042260
:101C8000FB68DB431340C1F8043207E01C491C4BDE
:101C9000D3F80422FB681343C1F804327B681B8924
:101CA000002B08D11649164BD3F81422FB68DB43EE
:101CB0001340C1F814327B681B89012B07D11049EE
:101CC0000F4BD3F81422FB681343C1F814327B681E
:101CD0005B7B012B07D10A49094BD3F81C22FB6817
:101CE0001343C1F81C32064A054BD3F8003223F0E7
:101CF0000103C2F800321437BD465DF8047B70471B
:101D00000064004080B483B000AF78607B6800223C
:101D10009A717B680022DA717B6800221A727B68F4
:101D200000225A727B6800229A727B680022DA7263
:101D30007B6800229A707B680022DA707B6803223D
:101D40001A717B6802225A717B6801221A800C3753
:101D5000BD465DF8047B704780B485B000AF786005
:101D600039600023FB737B689B6803F08063002B62
:101D700002D00023FB7313E07B689B6803F00063D1
:101D8000002B02D00123FB730AE07B689B6803F001
:101D90008053002B02D00223FB7301E00423FB736A
:101DA000FB7B042B00F09880FB7BFA7B7968183270
:101DB00012010A44126802F00102796818331B010B
:101DC0000B441A603B681B7A002B13D1FB7BFA7B18
:101DD0007968183212010A4411683A68126852058B
:101DE0003868407A02430A43796818331B010B4470
:101DF0001A6015E0FB7BFA7B7968183212010A44FD
:101E000011683A685268D2003868007A024338682C
:101E1000407A02430A43796818331B010B441A6065
:101E20003B689B7A03F00F03DAB23B689A72FB7B44
:101E3000FA7B7968183212010A44526822F00F02C4
:101E4000796818331B010B445A60FB7BFA7B796875
:101E5000183212010A4452683968897A0A4379684B
:101E600018331B010B445A60FB7B3A68927B1106C6
:101E70003A68527B120411433A68127B12020A43F9
:101E80003968C97A0A4379681B010B4403F5C473A6
:101E90001A60FB7B3A68927C11063A68527C120405
:101EA00011433A68127C12020A433968C97B0A431B
:101EB00079681B010B4403F5C4735A60FB7BFA7B02
:101EC0007968183212010A44126842F001027968F6
:101ED00018331B010B441A60FB7B18461437BD46B0
:101EE0005DF8047B704700BF80B485B000AF7860B8
:101EF0000B46FB700023FB60FB78012B09D0022B03
:101F00000DD0002B11D17B689A68264B1340FB60E3
:101F10000EE07B689A68244B1340FB6008E07B6806
:101F20009A68224B1340FB6002E00023FB6000BF75
:101F3000FB681F4A93421BD01D4A934208D81D4A92
:101F4000934212D0174A934218D0002B0AD01EE0B9
:101F5000194A93420FD0154A934215D0124A934220
:101F60000FD014E00223FB6014E00023FB6011E0BB
:101F70000023FB600EE00023FB600BE00123FB600D
:101F800008E00123FB6005E00123FB6002E0002381
:101F9000FB6000BFFB68DBB218461437BD465DF836
:101FA000047B7047030000040003000800000310D6
:101FB00000010008010000040000011080B485B099
:101FC00000AFF8600B467A60FB72FB7AFA681B334D
:101FD0001B0113441B68DBB203F00403DAB27B6815
:101FE0001A727B681B7A002B09D1FB7AFA681B33C3
:101FF0001B0113441B685A0D7B681A6008E0FB7ACA
:10200000FA681B331B0113441B68DA087B685A60AB
:10201000FB7AFA681B331B0113441B68DBB203F025
:102020000203DAB27B685A72FB7AFA681B331B012F
:1020300013445B68DBB203F00F03DAB27B689A7279
:10204000FB7AFA681B331B0113445B681B0ADAB284
:102050007B68DA74FB7AFA681B01134403F5DC73BE
:102060001B68DAB27B68DA72FB7AFA681B011344E8
:1020700003F5DC731B681B0ADAB27B681A73FB7A00
:10208000FA681B01134403F5DC731B681B0CDAB2FE
:102090007B685A73FB7AFA681B01134403F5DC73FF
:1020A0001B681B0EDAB27B689A73FB7AFA681B0115
:1020B000134403F5DC735B68DAB27B68DA73FB7A8E
:1020C000FA681B01134403F5DC735B681B0ADAB280
:1020D0007B681A74FB7AFA681B01134403F5DC73FE
:1020E0005B681B0CDAB27B685A74FB7AFA681B01D6
:1020F000134403F5DC735B681B0EDAB27B689A74D9
:10210000FB7A002B06D1FB68DB6843F02002FB68FA
:10211000DA6005E0FB681B6943F02002FB681A6186
:102120001437BD465DF8047B704700BF80B485B0AE
:1021300000AFF860B9601346FB71FB79002B06D045
:10214000FB685A69BB681A43FB685A6106E0FB6882
:102150005A69BB68DB431A40FB685A611437BD46B5
:102160005DF8047B704700BF80B584B000AF786035
:1021700039600023FB737B685A693B681340002B6E
:1021800000F0B2803B68402B62D0402B0FD8042B6C
:102190003AD0042B04D8012B24D0022B2BD09FE063
:1021A000102B43D0202B4AD0082B36D098E0B3F523
:1021B000006F00F08380B3F5006F09D8B3F5007F9E
:1021C0006AD0B3F5806F70D0B3F5807F5BD087E0C5
:1021D000B3F5803F45D0B3F5003F4BD0B3F5004F8A
:1021E00075D07DE07B689B681846434900F086F80F
:1021F0000346FB7377E07B68DB681846032100F039
:102200007DF80346FB736EE07B68DB6818460821A7
:1022100000F074F80346FB7365E07B68DB681846E2
:10222000102100F06BF80346FB735CE07B681B69D0
:102230001846032100F062F80346FB7353E07B6805
:102240001B691846082100F059F80346FB734AE061
:102250007B681B691846102100F050F80346FB7399
:1022600041E07B685B681846082100F047F80346A8
:10227000FB7338E07B685B681846102100F03EF87D
:102280000346FB732FE07B689B691846012100F031
:1022900035F80346FB7326E07B689B6918460221EC
:1022A00000F02CF80346FB731DE07B689B69184621
:1022B000042100F023F80346FB7314E07B689B695C
:1022C0001846702100F01AF80346FB730BE07B6898
:1022D0005B681846042100F011F80346FB7302E026
:1022E0000023FB7300BF01E00023FB73FB7B184658
:1022F0001037BD4680BD00BF0101010080B485B02C
:1023000000AF786039600023FB737A683B68134044
:10231000002B02D00123FB7301E00023FB73FB7B46
:1023200018461437BD465DF8047B704780B400AF93
:10233000064BD3E90023013243F100030349C1E90D
:102340000023BD465DF8047B704700BF48090020AC
:1023500080B500AF00F010F802460B461046194653
:102360004FF47A724FF0000310F0C2FD02460B46A4
:102370001046194680BD00BF80B400AF094BD3E9B9
:102380000023921843EB0303990041EA92719000F5
:10239000121843EB010310461946BD465DF8047B55
:1023A000704700BF4809002080B500AF014809F020
:1023B0001BF980BDACC5273780B58AB002AFF86085
:1023C0007A601A460B46FB7213463B8107F11403F1
:1023D0001846FFF797FCFB68012B08D14E48FFF722
:1023E000E3FA4FF00070012106F0CAFD0AE0FB6835
:1023F000022B07D14948FFF7D7FA4FF0806001213F
:1024000006F0BEFD3A89002300930220796801237B
:10241000FEF7DAFDBA8D002300930220B96A01238A
:10242000FEF7D2FDFB68012B16D13B8918460BF055
:10243000BDFA03469BB278681946092209F076FA7C
:10244000BB8D18460BF0B2FA03469BB2B86A194628
:10245000092209F06BFA18E0FB68022B15D13B89C1
:1024600018460BF0A3FA03469BB278681946092276
:1024700009F05CFABB8D18460BF098FA03469BB244
:10248000B86A1946092209F051FA0123BB760023E4
:10249000FB7600233B7700237B770023BB77002369
:1024A000FB77FB7ABB750023FB7505233B76062380
:1024B0007B760323BB82FB68012B06D107F1140353
:1024C00015481946FFF792FA08E0FB68022B05D180
:1024D00007F1140311481946FFF788FA4FF4E0603A
:1024E0000BF036FBFB68012B08D114200BF048FAE7
:1024F000094802210122FFF719FE0AE0FB68022BBE
:1025000007D140200BF03CFA044802210122FFF7DA
:102510000DFE2037BD4680BD0064004000680040CD
:1025200080B586B000AF7860084611461A4603466B
:10253000FB700B463B801346BB700023FB820023DD
:10254000FB8210E0FB8ADBB2BB7400233B820023DA
:102550007B7507F108031846FFF71AFBFB8A9BB24D
:1025600001339BB2FB82B7F916300D2BEADD7B6895
:10257000DBB2BB7400233B8201237B75FB78002B0D
:1025800002D10023FB7404E0FB78012B01D101236D
:10259000FB7400233B75B7F900305B019AB2BB783E
:1025A0001B019BB213439BB29BB27B81B7F92030D6
:1025B0005B019AB297F824301B019BB213439BB284
:1025C0009BB2FB81B7F928305B019AB297F82C30A7
:1025D0001B019BB213439BB29BB23B81B7F93030D6
:1025E0005B019AB297F834301B019BB213439BB244
:1025F0009BB2BB8107F108031846FFF7C9FA1837E9
:10260000BD4680BD80B582B000AF7860074879686C
:10261000FFF7A2FB00BF05480021FFF765FC03465A
:10262000012BF8D10837BD4680BD00BF00640040D3
:1026300080B582B000AF104B7B60104B3B6007E071
:102640003B681A1D3A607A68111D796012681A6039
:102650003B680B4A9342F3D30A480B494FF0000200
:102660008842B8BF40F8042BFADB06F001FD04F005
:1026700067FA0837BD4680BDC08E02080000002002
:102680000C09002010090020D418002080B400AFED
:10269000FEE700BF80B584B000AF786007F10803A3
:1026A000786819460AF0D2F83B7A03F01F03012B31
:1026B0000AD0022B0FD0002B14D107F10803786841
:1026C000194609F0EDFC16E007F108037868194691
:1026D00009F036FD0FE007F108037868194609F0A4
:1026E00063FD08E03B7A23F07F03DBB2786819468C
:1026F0000BF072FB00BF002318461037BD4680BDAB
:1027000080B584B000AF78600B46FB70FB78002B7F
:1027100044D17B6803F55C73FB607B6893F81131EF
:10272000032B4ED1FB68DA69FB689B689A4220D97B
:10273000FB68DA69FB689B68D21AFB68DA617B6820
:10274000DB78012B06D1FB68DA68FB689B681A44CA
:10275000FB68DA60FB68D968FB689A68FB68DB692C
:10276000934228BF13469BB278681A460BF08CFD43
:1027700027E07B68D3F8E0351B69002B0AD07B6823
:1027800093F81231032B05D17B68D3F8E0351B6930
:102790007868984778680BF08BFD12E07B68D3F877
:1027A000E0359B69002B0CD07B6893F81231032B2A
:1027B00007D17B68D3F8E0359B69FA7878681146D1
:1027C0009847002318461037BD4680BD80B584B0B9
:1027D00000AF78600B46FB70FB78002B60D17B6804
:1027E00003F58C73FB607B6893F81131022B6AD17F
:1027F000FB68DA69FB689B689A421CD9FB68DA6956
:10280000FB689B68D21AFB68DA617B68DB78012B76
:1028100006D1FB68DA68FB689B681A44FB68DA60DB
:10282000FB68DA68FB68DB699BB2786811461A4678
:102830000BF016FD47E0FB681B6AFA689268B3FB71
:10284000F2F102FB01F29B1A002B14D1FB681A6A09
:10285000FB689B689A420ED3FB681A6AFB685B6A46
:102860009A4208D27868002100220BF0F9FCFB683C
:1028700000225A6227E07B68D3F8E035DB68002B42
:102880000AD07B6893F81231032B05D17B68D3F80B
:10289000E035DB687868984778680BF021FD12E036
:1028A0007B68D3F8E0355B69002B0CD07B6893F82C
:1028B0001231032B07D17B68D3F8E0355B69FA78D6
:1028C000786811469847002318461037BD4680BDEA
:1028D00080B582B000AF7860786800214022002384
:1028E0000BF0A8F978688021402200230BF0A2F9B0
:1028F0007B68012283F812217B68D3F8E4355B689A
:102900007A68927810469847002318460837BD46E3
:1029100080BD00BF80B582B000AF78607B68D3F81F
:10292000E4351B6998477B68032283F81221002352
:1029300018460837BD4680BD80B582B000AF7860CC
:102940007B68042283F812217B68D3F8E435DB68C6
:102950009847002318460837BD4680BD80B582B031
:1029600000AF78607B68D3F8E035DB69002B05D0D9
:102970007B68D3F8E035DB69786898470023184610
:102980000837BD4680BD00BF80B582B000AF78601B
:102990000B46FB707B68D3F8E0351B68FA787868E3
:1029A000114698477B68D3F8E4359B689847002325
:1029B00018460837BD4680BD80B582B000AF78604C
:1029C0000B46FB707B68D3F8E0355B68FA78786873
:1029D00011469847002318460837BD4680BD00BF02
:1029E00080B582B000AF78607B68D3F8E0351B6AB1
:1029F00078689847002318460837BD4680BD00BF59
:102A000080B582B000AF78607B68D3F8E0355B6A50
:102A100078689847002318460837BD4680BD00BF38
:102A200080B483B000AF786039607B683A689A60A0
:102A30007B6800225A60002318460C37BD465DF8BB
:102A4000047B704780B483B000AF786039600C3786
:102A5000BD465DF8047B704780B582B000AF7860FA
:102A60007B68064A1A607B681033184603F01CFC2A
:102A70007B6818460837BD4680BD00BF80590208F4
:102A800080B582B000AF786039607B681846FFF788
:102A9000E3FF7B68074A1A607B683A68C3F8202125
:102AA0007B680022C3F81C217B6818460837BD46A6
:102AB00080BD00BF2055020880B582B000AF7860AD
:102AC0000B46FB707B6803F11002FB781046194639
:102AD00003F0FEFB0346002B0CBF01230023DBB2F7
:102AE000002B0AD0FB780D2B13D17B68D3F81C3157
:102AF0005A1C7B68C3F81C210BE07B68D3F81C319F
:102B0000002B06D1FB780D2B03D17B680122C3F883
:102B10001C210837BD4680BD80B582B000AF78600B
:102B20007B681033184603F003FC0346002B0CBFF0
:102B300001230023DBB218460837BD4680BD00BF25
:102B400080B483B000AF78607B68D3F81C3118463E
:102B50000C37BD465DF8047B704700BF80B582B07E
:102B600000AF78607B681033184603F0F7FB03462C
:102B700018460837BD4680BD90B585B000AF786077
:102B800039607B681033184603F0D2FB0346002BF4
:102B900014BF01230023DBB2002B08D03B680022C6
:102BA0001A707B680022C3F81C21002354E0002324
:102BB000FB604DE0FB683A68D4187B681033184618
:102BC00003F0CCFB03462370FB683A6813441B7880
:102BD0000D2B02D0FB68FE2B1FDDFB683A68134407
:102BE00000221A707B681033184603F0A1FB0346DD
:102BF000002B14BF01230023DBB2002B04D07B6821
:102C00000022C3F81C2106E07B68D3F81C315A1E51
:102C10007B68C3F81C21FB681EE07B6810331846F4
:102C200003F086FB0346002B14BF01230023DBB215
:102C3000002B0AD0FB683A68134400221A707B68A4
:102C40000022C3F81C21FB6806E0FB680133FB602F
:102C5000FB68FF2BAEDD002318461437BD4690BD40
:102C600080B582B000AF78607B689B68012B06D18D
:102C70007B685B681846FFF763FF034600E00023AC
:102C800018460837BD4680BD80B582B000AF786079
:102C900039603B6800221A707B689B68012B07D162
:102CA0007B685B6818463968FFF766FF034600E0FB
:102CB000002318460837BD4680BD00BF80B582B0EE
:102CC00000AF78607B689B68012B06D17B685B68EE
:102CD0001846FFF721FF034600E000231846083797
:102CE000BD4680BD80B582B000AF78607B689B68D0
:102CF000012B06D17B685B681846FFF72FFF034660
:102D000000E0002318460837BD4680BD80B584B07A
:102D100000AF786039600023FB600DE07B681B68C2
:102D200004331B68FA6839680A44127878681146D7
:102D30009847FB680133FB60FB683A6813441B78D3
:102D4000002BEBD11037BD4680BD00BF90B587B0DA
:102D500002AFF860B9607A603B60FB6802229A605B
:102D6000FB681B681C683B680093F868B9687A6860
:102D70003B6AA047034618461437BD4690BD00BFC6
:102D800090B587B002AFF860B9607A603B60FB68CD
:102D900001229A604FF4927017F0E2FB044620463D
:102DA000F968FFF76DFEFB685C60FB681B681C68D8
:102DB000FB685B681A467B680093F868B9683B68F3
:102DC000A047034618461437BD4690BD80B584B071
:102DD00000AF78607B681B680C331B687868984785
:102DE0000346FB60FB68002B01D0FB6803E07B68B7
:102DF00001225A60002318461037BD4680BD00BF2F
:102E000080B584B000AF78607B681B6810331B68A6
:102E1000786898470346FB60FB68002B01D0FB688D
:102E200003E07B6802225A60002318461037BD4633
:102E300080BD00BF80B584B000AF78607B681B6840
:102E400014331B68786898470346FB60FB68002BC7
:102E500001D0FB6803E07B6803225A600023184618
:102E60001037BD4680BD00BF80B584B000AF78602C
:102E70007B681B6818331B68786898470346FB60BB
:102E8000FB68002B01D0FB6803E07B6804225A60DA
:102E9000002318461037BD4680BD00BF80B582B004
:102EA00000AF786039607B685B68002B00D125E05B
:102EB0007B685B68022B07D17B681B6804331B6847
:102EC00078683968984719E03B68012B06D17B6820
:102ED0001B6824331B68786898470FE03B68002B19
:102EE00006D17B681B6828331B687868984705E023
:102EF0007B681B681C331B68786898470837BD4699
:102F000080BD00BF80B582B000AF78607B685B6831
:102F1000002B01D1002311E07B685B68012B07D1F6
:102F20007B681B6808331B6878689847034605E090
:102F30007B681B681B687868984703461846083703
:102F4000BD4680BD80B582B000AF78607B681B68ED
:102F50002C331B687868012198470837BD4680BD2F
:102F600080B582B000AF78607B681B682C331B682B
:102F70007868002198470837BD4680BD90B583B07A
:102F800000AF78607B681B682C331C687B681B680B
:102F900030331B68786898470346002B0CBF012329
:102FA0000023DBB278681946A0470C37BD4690BDB8
:102FB00080B582B000AF78607B681B681B6878685A
:102FC0009847034618460837BD4680BD80B582B095
:102FD00000AF78607B681B6804331B68786898478B
:102FE000034618460837BD4680BD00BF80B584B093
:102FF00000AFF860B9607A60FB681B681B68F8680E
:10300000B9687A689847034618461037BD4680BDB0
:1030100080B582B000AF786039607B681B6804338C
:103020001B687868396898470837BD4680BD00BF7F
:1030300080B582B000AF78607B681B6808331B687E
:1030400078689847034618460837BD4680BD00BFDC
:1030500080B483B000AF786040F6FF7318460C3739
:10306000BD465DF8047B7047A0F10800F0E700BFA3
:1030700080B483B000AF7860034B18460C37BD4670
:103080005DF8047B704700BF33335340A0F1080064
:10309000EEE700BF80B483B000AF786040F6FF7306
:1030A00018460C37BD465DF8047B7047A0F1080058
:1030B000F0E700BF80B483B000AF7860034B1846E0
:1030C0000C37BD465DF8047B704700BF3333534077
:1030D000A0F10800EEE700BF80B483B000AF7860D5
:1030E00040F6FF7318460C37BD465DF8047B704709
:1030F000A0F10800F0E700BF80B483B000AF7860B3
:10310000034B18460C37BD465DF8047B704700BF83
:1031100033335340A0F10800EEE700BF80B483B022
:1031200000AF786040F6FF7318460C37BD465DF877
:10313000047B7047A0F10800F0E700BF80B483B0C3
:1031400000AF7860034B18460C37BD465DF8047B32
:10315000704700BF33335340A0F10800EEE700BFD3
:1031600080B483B000AF786040F6FF7318460C3728
:10317000BD465DF8047B7047A0F10800F0E700BF92
:1031800080B483B000AF7860034B18460C37BD465F
:103190005DF8047B704700BF33335340A0F1080053
:1031A000EEE700BF80B582B000AF786004484FF40E
:1031B000805108F085FB034618460837BD4680BDA0
:1031C0000004024080B582B000AF786039603B688F
:1031D000002B05D106484FF4805108F099FB04E01C
:1031E00003484FF4805108F085FB0837BD4680BD89
:1031F0000004024080B582B000AF786004484FF40C
:10320000805108F043FB034618460837BD4680BD91
:103210000004024080B584B002AF786000230093C0
:10322000002005494FF480520023FDF7CDFE002316
:1032300018460837BD4680BD0004024080B584B002
:1032400002AF786000230093012005494FF48052BB
:103250000023FDF7B9FE002318460837BD4680BDA0
:103260000004024080B584B002AF78600023009370
:10327000002005494FF480520123FDF7A5FE0023ED
:1032800018460837BD4680BD0004024080B584B0B2
:1032900002AF786000230093002005494FF480526C
:1032A0000223FDF791FE002318460837BD4680BD76
:1032B0000004024080B582B000AF786004484FF44B
:1032C000004108F0FDFA034618460837BD4680BDA8
:1032D0000010024080B582B000AF786039603B6872
:1032E000002B05D106484FF4004108F011FB04E023
:1032F00003484FF4004108F0FDFA0837BD4680BD91
:103300000010024080B582B000AF786004484FF4EE
:10331000004108F0BBFA034618460837BD4680BD99
:103320000010024080B584B002AF786000230093A3
:10333000002005494FF400420023FDF745FE01231C
:1033400018460837BD4680BD0010024080B584B0E5
:1033500002AF786000230093012005494FF400423A
:103360000023FDF731FE002318460837BD4680BD17
:103370000010024080B584B002AF78600023009353
:10338000002005494FF400420123FDF71DFE0123F3
:1033900018460837BD4680BD0010024080B584B095
:1033A00002AF786000230093002005494FF40042EB
:1033B0000223FDF709FE002318460837BD4680BDED
:1033C0000010024080B582B000AF786004484FF42E
:1033D000804108F075FA034618460837BD4680BD9F
:1033E0000004024080B582B000AF786039603B686D
:1033F000002B05D106484FF4804108F089FA04E01B
:1034000003484FF4804108F075FA0837BD4680BD87
:103410000004024080B582B000AF786004484FF4E9
:10342000804108F033FA034618460837BD4680BD90
:103430000004024080B584B002AF7860002300939E
:10344000002005494FF480420023FDF7BDFD002315
:1034500018460837BD4680BD0004024080B584B0E0
:1034600002AF786000230093012005494FF48042A9
:103470000023FDF7A9FD002318460837BD4680BD8F
:103480000004024080B584B002AF7860002300934E
:10349000002005494FF480420123FDF795FD0023EC
:1034A00018460837BD4680BD0004024080B584B090
:1034B00002AF786000230093002005494FF480425A
:1034C0000223FDF781FD002318460837BD4680BD65
:1034D0000004024080B582B000AF786004484FF429
:1034E000004108F0EDF9034618460837BD4680BD97
:1034F0000004024080B582B000AF786039603B685C
:10350000002B05D106484FF4004108F001FA04E011
:1035100003484FF4004108F0EDF90837BD4680BD7F
:103520000004024080B582B000AF786004484FF4D8
:10353000004108F0ABF9034618460837BD4680BD88
:103540000004024080B584B002AF7860002300938D
:10355000002005494FF400420023FDF735FD00230C
:1035600018460837BD4680BD0004024080B584B0CF
:1035700002AF786000230093012005494FF4004218
:103580000023FDF721FD002318460837BD4680BD06
:103590000004024080B584B002AF7860002300933D
:1035A000002005494FF400420123FDF70DFD0023E3
:1035B00018460837BD4680BD0004024080B584B07F
:1035C00002AF786000230093002005494FF40042C9
:1035D0000223FDF7F9FC002318460837BD4680BDDD
:1035E0000004024080B582B000AF786004484FF418
:1035F000004108F065F9034618460837BD4680BD0E
:103600000000024080B582B000AF786039603B684E
:10361000002B05D106484FF4004108F079F904E089
:1036200003484FF4004108F065F90837BD4680BDF6
:103630000000024080B582B000AF786004484FF4CB
:10364000004108F023F9034618460837BD4680BDFF
:103650000000024080B584B002AF78600023009380
:10366000002005494FF400420023FDF7ADFC002384
:1036700018460837BD4680BD0000024080B483B0C4
:1036800000AF7860012318460C37BD465DF8047B17
:10369000704700BF80B584B002AF7860002300930C
:1036A000002005494FF400420123FDF78DFC002363
:1036B00018460837BD4680BD0000024080B584B082
:1036C00002AF786000230093002005494FF40042C8
:1036D0000223FDF779FC002318460837BD4680BD5C
:1036E0000000024080B582B000AF786004484FF41B
:1036F000005108F0E5F8034618460837BD4680BD7E
:103700000004024080B582B000AF786039603B6849
:10371000002B05D106484FF4005108F0F9F804E0F9
:1037200003484FF4005108F0E5F80837BD4680BD66
:103730000004024080B582B000AF786004484FF4C6
:10374000005108F0A3F8034618460837BD4680BD6F
:103750000004024080B584B002AF7860002300937B
:10376000002005494FF400520023FDF72DFC0023F3
:1037700018460837BD4680BD0004024080B483B0BF
:1037800000AF7860012318460C37BD465DF8047B16
:10379000704700BF80B584B002AF7860002300930B
:1037A000002005494FF400520123FDF70DFC0023D2
:1037B00018460837BD4680BD0004024080B584B07D
:1037C00002AF786000230093002005494FF40052B7
:1037D0000223FDF7F9FB002318460837BD4680BDDC
:1037E0000004024080B582B000AF786004484FF416
:1037F000006108F065F8034618460837BD4680BDED
:10380000000C024080B582B000AF786039603B6840
:10381000002B05D106484FF4006108F079F804E068
:1038200003484FF4006108F065F80837BD4680BDD5
:10383000000C024080B582B000AF786004484FF4BD
:10384000006108F023F8034618460837BD4680BDDE
:10385000000C024080B584B002AF78600023009372
:10386000002005494FF400620023FDF7ADFB002363
:1038700018460837BD4680BD000C024080B483B0B6
:1038800000AF7860012318460C37BD465DF8047B15
:10389000704700BF80B584B002AF7860002300930A
:1038A000002005494FF400620123FDF78DFB002342
:1038B00018460837BD4680BD000C024080B584B074
:1038C00002AF786000230093002005494FF40062A6
:1038D0000223FDF779FB002318460837BD4680BD5B
:1038E000000C024080B582B000AF786004484FF40D
:1038F000806107F0E5FF034618460837BD4680BDE6
:10390000000C024080B582B000AF786039603B683F
:10391000002B05D106484FF4806107F0F9FF04E061
:1039200003484FF4806107F0E5FF0837BD4680BDCE
:10393000000C024080B582B000AF786004484FF4BC
:10394000806107F0A3FF034618460837BD4680BDD7
:10395000000C024080B584B002AF78600023009371
:10396000002005494FF480620023FDF72DFB002362
:1039700018460837BD4680BD000C024080B483B0B5
:1039800000AF7860012318460C37BD465DF8047B14
:10399000704700BF80B584B002AF78600023009309
:1039A000002005494FF480620123FDF70DFB002341
:1039B00018460837BD4680BD000C024080B584B073
:1039C00002AF786000230093002005494FF4806225
:1039D0000223FDF7F9FA002318460837BD4680BDDB
:1039E000000C024080B582B000AF7860044802212C
:1039F00007F066FF034618460837BD4680BD00BF86
:103A00000004024080B582B000AF786039603B6846
:103A1000002B04D10548022107F07AFF03E0034898
:103A2000022107F067FF0837BD4680BD0004024051
:103A300080B582B000AF78600448022107F026FF0D
:103A4000034618460837BD4680BD00BF000402404B
:103A500080B584B002AF7860002300930020054950
:103A600002220023FDF7B0FA002318460837BD46AE
:103A700080BD00BF0004024080B584B002AF786012
:103A8000002300930120054902220023FDF79CFA40
:103A9000002318460837BD4680BD00BF0004024021
:103AA00080B584B002AF7860002300930020054900
:103AB00002220123FDF788FA002318460837BD4685
:103AC00080BD00BF0004024080B584B002AF7860C2
:103AD000002300930020054902220223FDF774FA17
:103AE000002318460837BD4680BD00BF00040240D1
:103AF00080B582B000AF78600448102107F0E0FE86
:103B0000034618460837BD4680BD00BF000002408E
:103B100080B582B000AF786039603B68002B04D17B
:103B20000548102107F0F4FE03E00348102107F0D8
:103B3000E1FE0837BD4680BD0000024080B582B07E
:103B400000AF78600448102107F0A0FE0346184635
:103B50000837BD4680BD00BF0000024080B584B07C
:103B600002AF786000230093002005491022002353
:103B7000FDF72AFA002318460837BD4680BD00BF6E
:103B80000000024080B584B002AF7860002300934B
:103B90000120054910220023FDF716FA00231846DC
:103BA0000837BD4680BD00BF0000024080B584B02C
:103BB00002AF786000230093002005491022012302
:103BC000FDF702FA002318460837BD4680BD00BF46
:103BD0000000024080B584B002AF786000230093FB
:103BE0000020054910220223FDF7EEF900231846B4
:103BF0000837BD4680BD00BF0000024080B582B0DE
:103C000000AF78600448012107F05AFE03461846C9
:103C10000837BD4680BD00BF0008024080B582B0B5
:103C200000AF786039603B68002B04D10548012162
:103C300007F06EFE03E00348012107F05BFE083742
:103C4000BD4680BD0008024080B582B000AF7860FC
:103C50000448012107F01AFE034618460837BD46FE
:103C600080BD00BF0008024080B584B002AF78601C
:103C7000002300930020054901220023FDF7A4F949
:103C8000002318460837BD4680BD00BF000802402B
:103C900080B584B002AF786000230093012005490D
:103CA00001220023FDF790F9002318460837BD468E
:103CB00080BD00BF0008024080B584B002AF7860CC
:103CC000002300930020054901220123FDF77CF920
:103CD000002318460837BD4680BD00BF00080240DB
:103CE00080B584B002AF78600023009300200549BE
:103CF00001220223FDF768F9002318460837BD4664
:103D000080BD00BF0008024080B582B000AF78607F
:103D100004484FF4805107F0D3FD03461846083796
:103D2000BD4680BD0010024080B582B000AF786013
:103D300039603B68002B05D106484FF4805107F0ED
:103D4000E7FD04E003484FF4805107F0D3FD083746
:103D5000BD4680BD0010024080B582B000AF7860E3
:103D600004484FF4805107F091FD03461846083788
:103D7000BD4680BD0010024080B584B002AF7860BF
:103D800000230093002005494FF480520023FDF7E3
:103D90001BF9002318460837BD4680BD00100240BD
:103DA00080B584B002AF78600023009301200549FC
:103DB0004FF480520023FDF707F900231846083717
:103DC000BD4680BD0010024080B584B002AF78606F
:103DD00000230093002005494FF480520123FDF792
:103DE000F3F8002318460837BD4680BD0010024096
:103DF00080B584B002AF78600023009300200549AD
:103E00004FF480520223FDF7DFF8002318460837ED
:103E1000BD4680BD0010024080B582B000AF786022
:103E20000448202107F04CFD034618460837BD46DC
:103E300080BD00BF0000024080B582B000AF786056
:103E400039603B68002B04D10548202107F060FD54
:103E500003E00348202107F04DFD0837BD4680BD33
:103E60000000024080B582B000AF78600448202195
:103E700007F00CFD034618460837BD4680BD00BF5D
:103E80000000024080B584B002AF78600023009348
:103E90000020054920220023FDF796F8002318464C
:103EA0000837BD4680BD00BF0000024080B584B029
:103EB00002AF7860002300930120054920220023EF
:103EC000FDF782F8002318460837BD4680BD00BFC5
:103ED0000000024080B584B002AF786000230093F8
:103EE0000020054920220123FDF76EF80023184623
:103EF0000837BD4680BD00BF0000024080B584B0D9
:103F000002AF78600023009300200549202202239D
:103F1000FDF75AF8002318460837BD4680BD00BF9C
:103F20000000024080B582B000AF786004480421F0
:103F300007F0C6FC034618460837BD4680BD00BFE3
:103F40000004024080B582B000AF786039603B6801
:103F5000002B04D10548042107F0DAFC03E00348F4
:103F6000042107F0C7FC0837BD4680BD00040240AD
:103F700080B582B000AF78600448042107F086FC69
:103F8000034618460837BD4680BD00BF0004024006
:103F900080B584B002AF786000230093002005490B
:103FA00004220023FDF710F8002318460837BD4609
:103FB00080BD00BF0004024080B584B002AF7860CD
:103FC000002300930120054904220023FCF7FCFF95
:103FD000002318460837BD4680BD00BF00040240DC
:103FE00080B584B002AF78600023009300200549BB
:103FF00004220123FCF7E8FF002318460837BD46DA
:1040000080BD00BF0004024080B584B002AF78607C
:10401000002300930020054904220223FCF7D4FF6B
:10402000002318460837BD4680BD00BF000402408B
:1040300080B582B000AF78600448802107F040FC72
:10404000034618460837BD4680BD00BF0010024039
:1040500080B582B000AF786039603B68002B04D136
:104060000548802107F054FC03E00348802107F055
:1040700041FC0837BD4680BD0010024080B582B0CB
:1040800000AF78600448802107F000FC0346184622
:104090000837BD4680BD00BF0010024080B584B027
:1040A00002AF78600023009300200549802200239E
:1040B000FCF78AFF002318460837BD4680BD00BFC5
:1040C0000010024080B584B002AF786000230093F6
:1040D0000120054980220023FCF776FF00231846C3
:1040E0000837BD4680BD00BF0010024080B584B0D7
:1040F00002AF78600023009300200549802201234D
:10410000FCF762FF002318460837BD4680BD00BF9C
:104110000010024080B584B002AF786000230093A5
:104120000020054980220223FCF74EFF0023184699
:104130000837BD4680BD00BF0010024080B582B088
:1041400000AF786004484FF4806107F0B9FB034684
:1041500018460837BD4680BD0010024080B582B0C9
:1041600000AF786039603B68002B05D106484FF4FA
:10417000806107F0CDFB04E003484FF4806107F055
:10418000B9FB0837BD4680BD0010024080B582B043
:1041900000AF786004484FF4806107F077FB034676
:1041A00018460837BD4680BD0010024080B584B077
:1041B00002AF786000230093002005494FF480622D
:1041C0000023FCF701FF002318460837BD4680BDD9
:1041D0000010024080B584B002AF786000230093E5
:1041E000012005494FF480620023FCF7EDFE002317
:1041F00018460837BD4680BD0010024080B584B027
:1042000002AF786000230093002005494FF48062DC
:104210000123FCF7D9FE002318460837BD4680BDB0
:104220000010024080B584B002AF78600023009394
:10423000002005494FF480620223FCF7C5FE0023ED
:1042400018460837BD4680BD0010024080B582B0D8
:1042500000AF78600448012107F032FB034618469E
:104260000837BD4680BD00BF0004024080B582B063
:1042700000AF786039603B68002B04D1054801210C
:1042800007F046FB03E00348012107F033FB083742
:10429000BD4680BD0004024080B582B000AF7860AA
:1042A0000448012107F0F2FA034618460837BD46D4
:1042B00080BD00BF0004024080B584B002AF7860CA
:1042C000002300930020054901220023FCF77CFE17
:1042D000002318460837BD4680BD00BF00040240D9
:1042E00080B584B002AF78600023009301200549B7
:1042F00001220023FCF768FE002318460837BD465C
:1043000080BD00BF0004024080B584B002AF786079
:10431000002300930020054901220123FCF754FEED
:10432000002318460837BD4680BD00BF0004024088
:1043300080B584B002AF7860002300930020054967
:1043400001220223FCF740FE002318460837BD4631
:1043500080BD00BF0004024080B582B000AF78602D
:104360000448102107F0ACFA034618460837BD464A
:1043700080BD00BF0010024080B582B000AF786001
:1043800039603B68002B04D10548102107F0C0FAC2
:1043900003E00348102107F0ADFA0837BD4680BDA1
:1043A0000010024080B582B000AF78600448102150
:1043B00007F06CFA034618460837BD4680BD00BFBB
:1043C0000010024080B584B002AF786000230093F3
:1043D0000020054910220023FCF7F6FD00231846B3
:1043E0000837BD4680BD00BF0010024080B584B0D4
:1043F00002AF7860002300930120054910220023BA
:10440000FCF7E2FD002318460837BD4680BD00BF1B
:104410000010024080B584B002AF786000230093A2
:104420000020054910220123FCF7CEFD0023184689
:104430000837BD4680BD00BF0010024080B584B083
:1044400002AF786000230093002005491022022368
:10445000FCF7BAFD002318460837BD4680BD00BFF3
:104460000010024080B582B000AF7860044804219B
:1044700007F026FA034618460837BD4680BD00BF40
:104480000010024080B582B000AF786039603B68B0
:10449000002B04D10548042107F03AFA03E0034851
:1044A000042107F027FA0837BD4680BD00100240FE
:1044B00080B582B000AF78600448042107F0E6F9C7
:1044C000034618460837BD4680BD00BF00100240B5
:1044D00080B584B002AF78600023009300200549C6
:1044E00004220023FCF770FD002318460837BD4660
:1044F00080BD00BF0010024080B584B002AF78607C
:10450000002300930120054904220023FCF75CFDF1
:10451000002318460837BD4680BD00BF001002408A
:1045200080B584B002AF7860002300930020054975
:1045300004220123FCF748FD002318460837BD4636
:1045400080BD00BF0010024080B584B002AF78602B
:10455000002300930020054904220223FCF734FDC8
:10456000002318460837BD4680BD00BF001002403A
:1045700080B582B000AF786004484FF4807107F0D6
:104580009FF9034618460837BD4680BD001002401B
:1045900080B582B000AF786039603B68002B05D1F0
:1045A00006484FF4807107F0B3F904E003484FF474
:1045B000807107F09FF90837BD4680BD00100240AA
:1045C00080B582B000AF786004484FF4807107F086
:1045D0005DF9034618460837BD4680BD001002400D
:1045E00080B584B002AF78600023009300200549B5
:1045F0004FF480720023FCF7E7FC002318460837CD
:10460000BD4680BD0010024080B584B002AF786026
:1046100000230093012005494FF480720023FCF72A
:10462000D3FC002318460837BD4680BD0010024069
:1046300080B584B002AF7860002300930020054964
:104640004FF480720123FCF7BFFC002318460837A3
:10465000BD4680BD0010024080B584B002AF7860D6
:1046600000230093002005494FF480720223FCF7D9
:10467000ABFC002318460837BD4680BD0010024041
:1046800080B582B000AF78600448082107F018F9BF
:10469000034618460837BD4680BD00BF00100240E3
:1046A00080B582B000AF786039603B68002B04D1E0
:1046B0000548082107F02CF903E00348082107F01A
:1046C00019F90837BD4680BD0010024080B582B0A0
:1046D00000AF78600448082107F0D8F80346184670
:1046E0000837BD4680BD00BF0010024080B584B0D1
:1046F00002AF7860002300930020054908220023C0
:10470000FCF762FC002318460837BD4680BD00BF99
:104710000010024080B584B002AF7860002300939F
:104720000120054908220023FCF74EFC002318460F
:104730000837BD4680BD00BF0010024080B584B080
:1047400002AF78600023009300200549082201236E
:10475000FCF73AFC002318460837BD4680BD00BF71
:104760000010024080B584B002AF7860002300934F
:104770000020054908220223FCF726FC00231846E6
:104780000837BD4680BD00BF0010024080B582B032
:1047900000AF78600448202107F092F803461846DD
:1047A0000837BD4680BD00BF0008024080B582B01A
:1047B00000AF786039603B68002B04D105482021A8
:1047C00007F0A6F803E00348202107F093F8083724
:1047D000BD4680BD0008024080B582B000AF786061
:1047E0000448202107F052F8034618460837BD4612
:1047F00080BD00BF0008024080B584B002AF786081
:10480000002300930020054920220023FCF7DCFB55
:10481000002318460837BD4680BD00BF000802408F
:1048200080B584B002AF78607B680222DA60002332
:1048300000930120044920220023FCF7C5FB00233C
:1048400018460837BD4680BD0008024080B584B0D8
:1048500002AF786000230093002005492022012345
:10486000FCF7B2FB002318460837BD4680BD00BFE9
:104870000008024080B584B002AF78600023009346
:104880000020054920220223FCF79EFB0023184646
:104890000837BD4680BD00BF0008024080B582B029
:1048A00000AF78600448022107F00AF80346184672
:1048B0000837BD4680BD00BF0008024080B582B009
:1048C00000AF786039603B68002B04D105480221B5
:1048D00007F01EF803E00348022107F00BF8083741
:1048E000BD4680BD0008024080B582B000AF786050
:1048F0000448022106F0CAFF034618460837BD46A1
:1049000080BD00BF0008024080B584B002AF78606F
:10491000002300930020054902220023FCF754FBEA
:10492000002318460837BD4680BD00BF000802407E
:1049300080B584B002AF78607B680222DA60002321
:1049400000930120044902220023FCF73DFB0023D1
:1049500018460837BD4680BD0008024080B584B0C7
:1049600002AF786000230093002005490222012352
:10497000FCF72AFB002318460837BD4680BD00BF60
:104980000008024080B584B002AF78600023009335
:104990000020054902220223FCF716FB00231846DB
:1049A0000837BD4680BD00BF0008024080B582B018
:1049B00000AF78600448042106F082FF03461846E1
:1049C0000837BD4680BD00BF0008024080B582B0F8
:1049D00000AF786039603B68002B04D105480421A2
:1049E00006F096FF03E00348042106F083FF083732
:1049F000BD4680BD0008024080B582B000AF78603F
:104A00000448042106F042FF034618460837BD4615
:104A100080BD00BF0008024080B584B002AF78605E
:104A2000002300930020054904220023FCF7CCFA60
:104A3000002318460837BD4680BD00BF000802406D
:104A400080B584B002AF78607B680222DA60002310
:104A500000930120044904220023FCF7B5FA002347
:104A600018460837BD4680BD0008024080B584B0B6
:104A700002AF78600023009300200549042201233F
:104A8000FCF7A2FA002318460837BD4680BD00BFD8
:104A90000008024080B584B002AF78600023009324
:104AA0000020054904220223FCF78EFA0023184651
:104AB0000837BD4680BD00BF0008024080B582B007
:104AC00000AF78600448082106F0FAFE0346184655
:104AD0000837BD4680BD00BF0008024080B582B0E7
:104AE00000AF786039603B68002B04D1054808218D
:104AF00006F00EFF03E00348082106F0FBFE08372E
:104B0000BD4680BD0008024080B582B000AF78602D
:104B10000448082106F0BAFE034618460837BD4689
:104B200080BD00BF0008024080B584B002AF78604D
:104B3000002300930020054908220023FCF744FAD3
:104B4000002318460837BD4680BD00BF000802405C
:104B500080B584B002AF78607B680222DA600023FF
:104B600000930120044908220023FCF72DFA0023BA
:104B700018460837BD4680BD0008024080B584B0A5
:104B800002AF78600023009300200549082201232A
:104B9000FCF71AFA002318460837BD4680BD00BF4F
:104BA0000008024080B584B002AF78600023009313
:104BB0000020054908220223FCF706FA00231846C4
:104BC0000837BD4680BD00BF0008024080B582B0F6
:104BD00000AF78600448102106F072FE03461846C4
:104BE0000837BD4680BD00BF0008024080B582B0D6
:104BF00000AF786039603B68002B04D10548102174
:104C000006F086FE03E00348102106F073FE083725
:104C1000BD4680BD0008024080B582B000AF78601C
:104C20000448102106F032FE034618460837BD46F8
:104C300080BD00BF0008024080B584B002AF78603C
:104C4000002300930020054910220023FCF7BCF943
:104C5000002318460837BD4680BD00BF000802404B
:104C600080B584B002AF78607B680222DA600023EE
:104C700000930120044910220023FCF7A5F900232A
:104C800018460837BD4680BD0008024080B584B094
:104C900002AF786000230093002005491022012311
:104CA000FCF792F9002318460837BD4680BD00BFC7
:104CB0000008024080B584B002AF78600023009302
:104CC0000020054910220223FCF77EF90023184634
:104CD0000837BD4680BD00BF0008024080B582B0E5
:104CE00000AF786004484FF4006106F0E9FD034628
:104CF00018460837BD4680BD0010024080B582B01E
:104D000000AF786039603B68002B05D106484FF44E
:104D1000006106F0FDFD04E003484FF4006106F079
:104D2000E9FD0837BD4680BD0010024080B582B065
:104D300000AF786004484FF4006106F0A7FD034619
:104D400018460837BD4680BD0010024080B584B0CB
:104D500002AF786000230093002005494FF4006201
:104D60000023FCF731F9002318460837BD4680BD03
:104D70000010024080B584B002AF78607B680222E8
:104D8000DA6000230093012005494FF400620023FC
:104D9000FCF71AF9002318460837BD4680BD00BF4E
:104DA0000010024080B584B002AF78600023009309
:104DB000002005494FF400620123FCF705F90023A8
:104DC00018460837BD4680BD0010024080B584B04B
:104DD00002AF786000230093002005494FF4006281
:104DE0000223FCF7F1F8002318460837BD4680BDC2
:104DF0000010024080B582B000AF786004484021C6
:104E000006F05EFD034618460837BD4680BD00BF6C
:104E10000010024080B582B000AF786039603B6816
:104E2000002B04D10548402106F072FD03E0034841
:104E3000402106F05FFD0837BD4680BD00100240EE
:104E400080B582B000AF78600448402106F01EFDB6
:104E5000034618460837BD4680BD00BF001002401B
:104E600080B584B002AF786000230093002005492C
:104E700040220023FCF7A8F8002318460837BD4657
:104E800080BD00BF0010024080B584B002AF7860E2
:104E90007B680222DA60002300930120044940224B
:104EA0000023FCF791F8002318460837BD4680BD63
:104EB0000010024080B584B002AF786000230093F8
:104EC0000020054940220123FCF77EF80023184604
:104ED0000837BD4680BD00BF0010024080B584B0D9
:104EE00002AF78600023009300200549402202238E
:104EF000FCF76AF8002318460837BD4680BD00BF9E
:104F00000010024080B582B000AF786004482021D4
:104F100006F0D6FC034618460837BD4680BD00BFE4
:104F20000010024080B582B000AF786039603B6805
:104F3000002B04D10548202106F0EAFC03E00348D9
:104F4000202106F0D7FC0837BD4680BD0010024086
:104F500080B582B000AF78600448202106F096FC4E
:104F6000034618460837BD4680BD00BF001002400A
:104F700080B584B002AF786000230093002005491B
:104F800020220023FCF720F8002318460837BD46EE
:104F900080BD00BF0010024080B584B002AF7860D1
:104FA0007B680222DA60002300930120044920225A
:104FB0000023FCF709F8002318460837BD4680BDDA
:104FC0000010024080B584B002AF786000230093E7
:104FD0000020054920220123FBF7F6FF0023184695
:104FE0000837BD4680BD00BF0010024080B584B0C8
:104FF00002AF78600023009300200549202202239D
:10500000FBF7E2FF002318460837BD4680BD00BF0E
:105010000010024080B582B000AF786004484FF4C1
:10502000007106F04DFC034618460837BD4680BDAA
:105030000010024080B582B000AF786039603B68F4
:10504000002B05D106484FF4007106F061FC04E026
:1050500003484FF4007106F04DFC0837BD4680BD93
:105060000010024080B582B000AF786004484FF471
:10507000007106F00BFC034618460837BD4680BD9C
:105080000010024080B584B002AF78600023009326
:10509000002005494FF400720023FBF795FF002321
:1050A00018460837BD4680BD0010024080B584B068
:1050B00002AF78607B680222DA600023009301204F
:1050C00005494FF400720023FBF77EFF00231846CA
:1050D0000837BD4680BD00BF0010024080B584B0D7
:1050E00002AF786000230093002005494FF400725E
:1050F0000123FBF769FF002318460837BD4680BD32
:105100000010024080B584B002AF786000230093A5
:10511000002005494FF400720223FBF755FF0023DE
:1051200018460837BD4680BD0010024080B582B0E9
:1051300000AF786004484FF4804106F0C1FB03469D
:1051400018460837BD4680BD0010024080B582B0C9
:1051500000AF786039603B68002B05D106484FF4FA
:10516000804106F0D5FB04E003484FF4804106F08F
:10517000C1FB0837BD4680BD0010024080B582B03B
:1051800000AF786004484FF4804106F07FFB03468F
:1051900018460837BD4680BD0010024080B584B077
:1051A00002AF786000230093002005494FF480424D
:1051B0000023FBF709FF002318460837BD4680BDD2
:1051C0000010024080B584B002AF78607B68022294
:1051D000DA6000230093012005494FF48042002348
:1051E000FBF7F2FE002318460837BD4680BD00BF1E
:1051F0000010024080B584B002AF786000230093B5
:10520000002005494FF480420123FBF7DDFE002317
:1052100018460837BD4680BD0010024080B584B0F6
:1052200002AF786000230093002005494FF48042CC
:105230000223FBF7C9FE002318460837BD4680BD90
:105240000010024080B582B000AF786004484FF48F
:10525000005106F035FB034618460837BD4680BDB1
:105260000010024080B582B000AF786039603B68C2
:10527000002B05D106484FF4005106F049FB04E02D
:1052800003484FF4005106F035FB0837BD4680BD9A
:105290000010024080B582B000AF786004484FF43F
:1052A000005106F0F3FA034618460837BD4680BDA4
:1052B0000010024080B584B002AF786000230093F4
:1052C000002005494FF400520023FBF77DFE002328
:1052D00018460837BD4680BD0010024080B584B036
:1052E00002AF78607B680222DA600023009301201D
:1052F00005494FF400520023FBF766FE00231846D1
:105300000837BD4680BD00BF0010024080B584B0A4
:1053100002AF786000230093002005494FF400524B
:105320000123FBF751FE002318460837BD4680BD18
:105330000010024080B584B002AF78600023009373
:10534000002005494FF400520223FBF73DFE0023E5
:1053500018460837BD4680BD0010024080B582B0B7
:1053600000AF78607B680122DA600448202104F0F5
:105370004FF9002318460837BD4680BD000802409B
:10538000A0F10800FFF7EABF90B583B000AF7860E6
:105390000C48202104F024FA04467B681B6848333B
:1053A0001B6878689847034618460DF041FB034692
:1053B000204619460DF044FC034618460C37BD46FE
:1053C00090BD00BF00080240A0F10800FFF7DCBF5D
:1053D00080B582B000AF78607B680122DA60044853
:1053E000022104F015F9002318460837BD4680BD98
:1053F00000080240A0F10800FFF7EABF90B583B0B3
:1054000000AF78600C48022104F0EAF904467B689A
:105410001B6848331B6878689847034618460DF0A8
:1054200007FB0346204619460DF00AFC03461846C2
:105430000C37BD4690BD00BF00080240A0F1080037
:10544000FFF7DCBF80B582B000AF78607B680122D7
:10545000DA600448042104F0DBF80023184608371A
:10546000BD4680BD00080240A0F10800FFF7EABF7A
:1054700090B583B000AF78600C48042104F0B0F917
:1054800004467B681B6848331B6878689847034666
:1054900018460DF0CDFA0346204619460DF0D0FB14
:1054A000034618460C37BD4690BD00BF00080240B9
:1054B000A0F10800FFF7DCBF80B582B000AF7860D4
:1054C0007B680122DA600448082104F0A1F8002377
:1054D00018460837BD4680BD00080240A0F108000C
:1054E000FFF7EABF90B583B000AF78600C480821A1
:1054F00004F076F904467B681B6848331B687868BB
:105500009847034618460DF093FA0346204619467D
:105510000DF096FB034618460C37BD4690BD00BF04
:1055200000080240A0F10800FFF7DCBF80B582B0A0
:1055300000AF78607B680122DA600448102104F033
:1055400067F8002318460837BD4680BD00080240B2
:10555000A0F10800FFF7EABF90B583B000AF786014
:105560000C48102104F03CF904467B681B68483362
:105570001B6878689847034618460DF059FA0346A9
:10558000204619460DF05CFB034618460C37BD4615
:1055900090BD00BF00080240A0F10800FFF7DCBF8B
:1055A00080B582B000AF7860054806494FF440529C
:1055B000FBF720FF002318460837BD4680BD00BF1B
:1055C00000080040000C024080B582B000AF786057
:1055D0007B681B7A002B05D00648FBF797FF034634
:1055E0005B4203E00348FBF791FF03461846083788
:1055F000BD4680BD0008004080B582B000AF786035
:1056000004480549C022FBF7F5FE00231846083779
:10561000BD4680BD000400400000024080B582B05D
:1056200000AF78607B681B7A002B05D00648FBF73B
:105630006DFF03465B4203E00348FBF767FF034649
:1056400018460837BD4680BD0004004080B582B0D2
:1056500000AF7860044805490322FBF7CBFE002326
:1056600018460837BD4680BD000C004000000240CF
:1056700080B582B000AF78607B681B7A002B05D0C4
:105680000648FBF743FF03465B4203E00348FBF792
:105690003DFF034618460837BD4680BD000C00405C
:1056A00080B586B000AFF860B9607A60FB6801220F
:1056B000DA60B8680DF0D6FB0346094809494FF493
:1056C0000062FAF725FE03467B61054802217A68ED
:1056D000FAF788FD7B6918461837BD4680BD00BFC4
:1056E0000000014000100240A0F10800FFF7D8BF01
:1056F00080B582B000AF78603960044802213A6812
:10570000FAF770FD0837BD4680BD00BF00000140BC
:10571000A0F10800FFF7ECBF80B582B000AF786061
:1057200004480221FAF7C0FD034618460837BD4673
:1057300080BD00BF00000140A0F10800FFF7ECBFF2
:1057400080B586B000AFF860B9607A60FB6801226E
:10575000DA60B8680DF086FB034608480849402225
:10576000FAF7D6FD03467B61044802217A68FAF70E
:1057700039FD7B6918461837BD4680BD00400140A1
:1057800000100240A0F10800FFF7DABF80B582B038
:1057900000AF78603960044802213A68FAF722FDC8
:1057A0000837BD4680BD00BF00400140A0F10800A1
:1057B000FFF7ECBF80B582B000AF786004480221EB
:1057C000FAF772FD034618460837BD4680BD00BF94
:1057D00000400140A0F10800FFF7ECBF80B586B0A3
:1057E00000AFF860B9607A60FB680122DA60B868DF
:1057F0000DF038FB0346084808492022FAF788FDD7
:1058000003467B61044801217A68FAF7EBFC7B6967
:1058100018461837BD4680BD0040014000100240C8
:10582000A0F10800FFF7DABF80B582B000AF786062
:105830003960044801213A68FAF7D4FC0837BD46BC
:1058400080BD00BF00400140A0F10800FFF7ECBFA1
:1058500080B582B000AF786004480121FAF724FDDA
:10586000034618460837BD4680BD00BF00400140D2
:10587000A0F10800FFF7ECBF80B586B000AFF8607C
:10588000B9607A60FB680122DA60B8680DF0EAFA64
:105890000346094809494FF40072FAF739FD0346F7
:1058A0007B61054801217A68FAF79CFC7B69184600
:1058B0001837BD4680BD00BF000001400010024007
:1058C000A0F10800FFF7D8BF80B582B000AF7860C4
:1058D0003960044801213A68FAF784FC0837BD466C
:1058E00080BD00BF00000140A0F10800FFF7ECBF41
:1058F00080B582B000AF786004480121FAF7D4FC8B
:10590000034618460837BD4680BD00BF0000014071
:10591000A0F10800FFF7ECBF80B586B000AFF860DB
:10592000B9607A60FB680122DA60B8680DF09AFA13
:105930000346094809494FF48042FAF7E9FC034657
:105940007B61054804217A68FAF74CFC7B691846AC
:105950001837BD4680BD00BF000001400010024066
:10596000A0F10800FFF7D8BF80B582B000AF786023
:105970003960044804213A68FAF734FC0837BD4618
:1059800080BD00BF00000140A0F10800FFF7ECBFA0
:1059900080B582B000AF786004480421FAF784FC37
:1059A000034618460837BD4680BD00BF00000140D1
:1059B000A0F10800FFF7ECBF80B586B000AFF8603B
:1059C000B9607A60FB680122DA60B8680DF04AFAC3
:1059D0000346094809494FF40052FAF799FC034677
:1059E0007B61054803217A68FAF7FCFB7B6918465E
:1059F0001837BD4680BD00BF0000014000100240C6
:105A0000A0F10800FFF7D8BF80B582B000AF786082
:105A10003960044803213A68FAF7E4FB0837BD46C9
:105A200080BD00BF00000140A0F10800FFF7ECBFFF
:105A300080B582B000AF786004480321FAF734FCE7
:105A4000034618460837BD4680BD00BF0000014030
:105A5000A0F10800FFF7ECBF80B586B000AFF8609A
:105A6000B9607A60FB680122DA60B8680DF0FAF973
:105A70000346094809494FF48042FAF749FC0346B6
:105A80007B61054802217A68FAF7ACFB7B6918460E
:105A90001837BD4680BD00BF00040140000402402D
:105AA000A0F10800FFF7D8BF80B582B000AF7860E2
:105AB0003960044802213A68FAF794FB0837BD467A
:105AC00080BD00BF00040140A0F10800FFF7ECBF5B
:105AD00080B582B000AF786004480221FAF7E4FB99
