:020000040800F2
:10000000C85801208926000879BE000895BE00085E
:10001000B1BE0008CDBE0008E9BE00080000000027
:1000200000000000000000000000000005BF000804
:1000300021BF0008000000003DBF00082D2300087C
:10004000E5260008E5260008E5260008E526000864
:10005000E5260008E5260008E5260008E526000854
:10006000E5260008E5260008E5260008E526000844
:10007000E5260008E5260008E5260008E526000834
:10008000E5260008E5260008E5260008E526000824
:10009000F5620008E5260008E5260008E5260008C8
:1000A000E526000819110008E5260008E5260008E5
:1000B00061110008AD110008F5110008E5260008DF
:1000C000E5260008E5260008E5260008E5260008E4
:1000D000E5260008E52600086D5D0008055E0008BD
:1000E000E5260008E526000859160008CD1200088C
:1000F00085120008E5260008E5260008E526000828
:10010000E52600082DC100083D120008E52600087C
:10011000E5260008E5260008E5260008E526000893
:10012000E5260008E5260008E526000839C1000894
:10013000E5260008E5260008E5260008E526000873
:10014000E5260008E5260008E5260008491600080F
:10015000E5260008E5260008E5260008E526000853
:10016000E5260008E5260008E5260008E526000843
:10017000E5260008E5260008E5260008E526000833
:10018000E5260008E526000810B5054C237833B9AC
:10019000044B13B10448AFF300800123237010BD5A
:1001A0001009002000000000288C0208084B10B540
:1001B0001BB108480849AFF300800848036803B939
:1001C00010BD074B002BFBD0BDE81040184700BF07
:1001D00000000000288C02081409002008090020F3
:1001E0000000000080B584B000AFF8600B467A6074
:1001F000FB72FB7A013B032B52D801A252F823F089
:100200001102000835020008590200087D020008AA
:10021000FB68DB6A184613F00BF903461846796849
:1002200013F05EF90346184613F046FB0246FB68DE
:100230005A6336E0FB68DB6A184613F0F9F80346A8
:100240001846796813F04CF90346184613F034FB4E
:100250000246FB689A6324E0FB68DB6A184613F0E9
:10026000E7F803461846796813F03AF9034618464A
:1002700013F022FB0246FB68DA6312E0FB68DB6ADC
:10028000184613F0D5F803461846796813F028F994
:100290000346184613F010FB0246FB681A6400E0A0
:1002A00000BF1037BD4680BD80B582B000AF78601A
:1002B0000B46FB70FB78012B06D17B685B6B184605
:1002C00013F0B6F803461FE0FB78022B06D17B68DB
:1002D0009B6B184613F0ACF8034615E0FB78032B34
:1002E00006D17B68DB6B184613F0A2F803460BE0DF
:1002F000FB78042B06D17B681B6C184613F098F82A
:10030000034601E04FF0000318460837BD4680BDA4
:1003100090B5ADB002AFF860B9603B601346FB80AA
:100320000023C7F8A4300023C7F8A0300023C7F883
:100330009C300123C7F898300023A7F896300CF0C2
:100340006DF807F14403184609F046FAFB68B3F16B
:10035000804F03D3FB68944A934207D9FB68934AC2
:10036000934211D9FB68924A93420DD8FB6C914A93
:10037000D2F88C20120E02F00102013202FB03F3CC
:100380005B00C7F8A4300CE03B6D8A4AD2F88C20A1
:10039000120E02F00102013202FB03F35B00C7F808
:1003A000A4303B68002B0ADDD7F8A430824A82FBD8
:1003B00003125211DB17D21A3B689A4201DA012369
:1003C000EEE01FE0D7F8A0300133C7F8A030D7F82F
:1003D000A420D7F8A03092FBF3F23B6892FBF3F332
:1003E000C7F89C30D7F89C30B3F5803F02DA002381
:1003F000C7F89830D7F8A0304FF6FE72934201DD6F
:100400000123CDE0D7F89830002BDBD1D7F8A4201A
:10041000D7F8A03092FBF3F2D7F89C3092FBF3F3BD
:100420003B60F8680DF042FEFA880023009302203A
:10043000B968002300F0C8FDD7F89C30013BFB638E
:10044000D7F8A0309BB2013B9BB23B870023A7F8B3
:10045000403000237B87002387F8423007F13803C0
:10046000F86819460EF0C6FC6023BB8400233B8667
:100470000123FB8404233B8508237B864FF4807390
:10048000BB864FF40073FB8607F12403F868194616
:100490000EF088FDF86800210EF072FF07F12403CA
:1004A000F86819460EF0F8FDF86800210EF084FF98
:1004B00007F12403F86819460EF076FEF86800216B
:1004C0000EF098FF07F12403F86819460EF0F2FECB
:1004D000F86800210EF0AAFFFB68384A934203D067
:1004E000FB68374A934211D107F1140318460EF006
:1004F000E3FF4FF480433B8407F11403F868194687
:100500000EF0B2FFF86801210EF0F4FFFA8807F14F
:100510005403104619460DF047FC0023A7F8963007
:1005200025E0B7F896305B0007F1A802134433F8D2
:10053000543C012B16D1B7F8963010335B0007F10D
:10054000A802134433F8523C18460DF033FF03461B
:100550009CB2F8680DF0A4FF0346B86821461A461D
:100560000BF0E8FEB7F896300133A7F89630B7F8ED
:1005700096300F2BD5D9FB6800225A63FB68002206
:100580009A63FB680022DA63FB6800221A64F86849
:1005900001210EF0C7FCF86801210EF0E3FC0023F6
:1005A0001846AC37BD4690BD00140040FF17004010
:1005B00000200040003802401F85EB510000014040
:1005C0000004014080B489B000AFF860B960114602
:1005D0001A460B46FB711346BB800023FB76FB6873
:1005E000DB78002B22D100237B610023FB61BB88D9
:1005F0000333002B00DA03339B107B61FB79FA682D
:1006000032339B0013449B683B610023FB6109E08C
:10061000BB681A683B691A60FB690133FB61BB6800
:100620000433BB60FA697B699A42F1D3FB7E1846BA
:100630002437BD465DF8047B704700BF80B489B0A5
:1006400000AFF860B9601346FB800023FB61FB88B4
:100650000333002B00DA03339B10BB61FB68D3F834
:10066000D0307B610023FB6109E07B691A68BB68BD
:100670001A60FB690133FB61BB680433BB60FA6934
:10068000BB699A42F1D3BB6818462437BD465DF872
:10069000047B704780B586B000AF78603960002376
:1006A000FB7400237B610023FB60FB6843F02003A5
:1006B000FB603B68DBB203F01F03DBB203F01F03F8
:1006C0009B01FA6822F4F8621343FB607B68DB68E5
:1006D000FA681A617B68DB681B69FB607B69013320
:1006E0007B617B69094A934200D906E0FB685B099C
:1006F00003F00103DBB2012BECD003200CF0B0F9C6
:10070000FB7C18461837BD4680BD00BF400D030076
:1007100080B483B000AF78607B68DB685B6903F00E
:10072000010318460C37BD465DF8047B704700BFD7
:1007300080B582B000AF78607868FFF7E9FF0346C4
:10074000012B14BF01230023DBB218460837BD4636
:1007500080BD00BF80B485B000AF78600023FB602F
:100760007B68DB685B69FB607B68DB689B69FA68B8
:100770001340FB60FB6818461437BD465DF8047BE8
:10078000704700BF80B485B000AF78600023FB7372
:100790007B681B699B68BB603B7AC3F34103DBB298
:1007A000022B09D0032B04D0012B02D00323FB73AF
:1007B00005E00223FB7302E00123FB7300BFFB7B18
:1007C00018461437BD465DF8047B704780B487B087
:1007D00000AF78600023FB750023BB607B681B695A
:1007E0009B683B617B689B691B68FB603B7CC3F338
:1007F0004103DBB2022B04D0BB896FF30A03BB8138
:1008000005E0BB89032262F30A03BB8100BF7B685A
:100810009B69FA681A607B7A43F001037B727B68FC
:100820001B697A6812695168BA68D2431140BA6884
:100830000A435A60FB7D18461C37BD465DF8047BB1
:10084000704700BF80B487B000AF78603960002384
:10085000FB740023FB600023BB603B685B78012BCB
:100860000FD13B681B787A6804339B0013449B6864
:100870007B613B681B781A46012393409BB23B8106
:100880000EE03B681B787A6814339B0013445B6866
:100890007B613B681B781A46012393409BB27B81A6
:1008A0007B691B68FB607B7B23F07F03DBB2002B43
:1008B00027D13B689B689BB2C3F30A039AB2BB89FA
:1008C00062F30A03BB813B68DB7803F00303DAB20F
:1008D000BB7B62F38303BB733B68DB88DBB203F053
:1008E0000F03DAB2FB8962F38913FB81FB7B43F0D0
:1008F0001003FB737B7B43F080037B73FA687B6997
:100900001A607B681B697A681269D169BA680A4300
:10091000DA61FB7C18461C37BD465DF8047B7047E6
:1009200080B588B000AF786039600023FB77002382
:10093000BB6100237B6100233B613B685B78012B3B
:1009400040F0AB803B681B787A6804339B0013440B
:100950009B681B687B613B681B787A6804339B004B
:1009600013449B681B693B613B685B69002B09D1A1
:100970003B696FF312033B617B8A012262F3CC0374
:100980007B8222E03B685B69C3F312023B6962F33E
:1009900012033B613B685A693B689B6813445A1ECB
:1009A0003B689B68B2FBF3F39BB2C3F309039AB2B3
:1009B0007B8A62F3CC037B823B68DB78012B04D11A
:1009C000FB7C012262F34613FB743B681B787A6858
:1009D00004339B0013449B683A691A617B68DB7897
:1009E000012B0AD13B681B787A6804339B001344BF
:1009F0009B683A6812695A6115E03B68DB78012B05
:100A000011D03B685B69002B0DD03B681B781A4600
:100A100001239340BB617B681B697A681269516B43
:100A2000BA690A435A633B68DB78012B14D17B68AF
:100A30001B699B68FB60FB68C3F30D239BB203F04B
:100A40000103002B04D1FB7D43F02003FB7503E081
:100A5000FB7D43F01003FB75FB7D43F00403FB7546
:100A6000FB7D43F08003FB753B681B787A68043399
:100A70009B0013449B687A691A603B68DB78012B02
:100A800040F089803B68D9683B681A783B685B69AD
:100A90009BB27868FFF796FD7DE03B681B787A682B
:100AA00014339B0013445B681B687B613B681B78B5
:100AB0007A6814339B0013445B681B693B613B6895
:100AC0005B69002B0DD13B689B68C3F312023B6945
:100AD00062F312033B617B8A012262F3CC037B82C7
:100AE00020E03B685A693B689B6813445A1E3B6888
:100AF0009B68B2FBF3F39BB2C3F309039AB27B8A00
:100B000062F3CC037B827B8AC3F3C9039BB21A4690
:100B10003B689B6803FB02F3C3F312023B6962F379
:100B200012033B613B681B787A6814339B001344C3
:100B30005B683A691A617B68DB78012B09D13B68F5
:100B40001B787A6814339B0013445B683A68126917
:100B50005A613B68DB78012B0CD13B685B79002B39
:100B600004D0FB7D43F02003FB7503E0FB7D43F0E5
:100B70001003FB75FB7D43F00403FB75FB7D43F025
:100B80008003FB753B681B787A6814339B00134421
:100B90005B687A691A60FB7F18462037BD4680BDC6
:100BA00080B489B000AF786039600023FB77002300
:100BB000BB6100233B610023BB603B685B78012B7A
:100BC00070D17B689B697B617B691B683B617B693A
:100BD0001B69BB603B685B69002B09D13B7A6FF3F3
:100BE00006033B72BB7A012262F3C403BB7223E0AB
:100BF0003B685A693B689B689A420ED93B689A6881
:100C00003B685A613B689B68DBB203F07F03DAB252
:100C10003B7A62F306033B7209E03B685B69DBB237
:100C200003F07F03DAB23B7A62F306033B72BB7ACE
:100C3000012262F3C403BB72BA687B691A617B68E4
:100C4000DB78012B09D13B681B787A6804339B0061
:100C500013449B683A6812695A61FB7C43F00403B1
:100C6000FB74FB7C43F08003FB743A697B691A6078
:100C70007B68DB78002B76D13B685B69002B72D0F8
:100C80003B681B781A46012393401A46BB691343FD
:100C9000BB617B681B697A681269516BBA690A4348
:100CA0005A6360E03B681B787A6814339B001344F6
:100CB0005B681B683B613B681B787A6814339B0058
:100CC00013445B681B69BB603B685B69002B0FD1F9
:100CD0003B689B68DBB203F07F03DAB23B7A62F3D6
:100CE00006033B72BB7A012262F3C403BB7212E0BB
:100CF0003B689A683B685A613B689B68DBB203F0CB
:100D00007F03DAB23B7A62F306033B72BB7A0122BD
:100D100062F3C403BB723B681B787A6814339B0090
:100D200013445B68BA681A617B68DB78012B09D1D0
:100D30003B681B787A6814339B0013445B683A68FD
:100D400012695A61FB7C43F00403FB74FB7C43F0A3
:100D50008003FB743B681B787A6814339B00134450
:100D60005B683A691A60FB7F18462437BD465DF818
:100D7000047B704780B487B000AF7860396000238F
:100D8000FB750023FB603B685B78012B1CD13B6843
:100D90001B787A6804339B0013449B683B613B6972
:100DA0001B68FB60FB7B23F07F03DBB2002B03D0CF
:100DB000FB7B43F04003FB73BB7B43F02003BB731F
:100DC000FA683B691A6011E03B681B787A68143353
:100DD0009B0013445B683B613B691B68FB60BB7B0A
:100DE00043F02003BB73FA683B691A60FB7D184629
:100DF0001C37BD465DF8047B704700BF80B487B0E8
:100E000000AF786039600023FB740023FB603B680F
:100E10005B78012B08D13B681B787A6804339B0010
:100E200013449B687B6107E03B681B787A68143346
:100E30009B0013445B687B617B691B68FB60BB7B29
:100E40006FF34513BB733B68DB78032B03D03B6820
:100E5000DB78022B03D1FB7B43F01003FB73FA68B2
:100E60007B691A60FB7C18461C37BD465DF8047B25
:100E7000704700BF80B485B000AF78607B681B69A5
:100E80009B69FB607B681B69DB69FA681340FB6048
:100E9000FB681B0C18461437BD465DF8047B704791
:100EA00080B485B000AF78600B46FB70FB787A6841
:100EB00014339B0013445B689B68FB607B681B6971
:100EC0005B69FA681340FB60FB6818461437BD463F
:100ED0005DF8047B704700BF80B485B000AF7860D8
:100EE0007B681B699B69FB607B681B69DB69FA682F
:100EF0001340FB60FB689BB218461437BD465DF893
:100F0000047B704780B487B000AF786000233B61FA
:100F1000FB7C43F0C003FB74BB7C012262F3C4037F
:100F2000BB743B7C182262F306033B747B685B6DE9
:100F30003A691A617B68DB78012B16D10023FB60CC
:100F40007B685B6D7A6802F5B9625A617B685B6D9C
:100F50001B68FB60FB7B43F08003FB734FF0802337
:100F6000FB607B685B6DFA681A601C37BD465DF8F4
:100F7000047B704780B485B000AF78607B689B7A53
:100F8000002B1BD07B681B699B68FB603B7B03F0DD
:100F90000103DBB2002B11D07B6803F586731B685D
:100FA000BB603B7A6FF341033B723B7A6FF3000304
:100FB0003B727B68D3F80C31BA681A601437BD46AF
:100FC0005DF8047B704700BF80B584B000AF396026
:100FD00011461A460346FB710B46BB801346BB7194
:100FE0003B68254A934204D10120012108F09EFC70
:100FF00022E03B68214A934204D10220012108F0FB
:1010000095FC19E03B681E4A934204D1042001215B
:1010100008F08CFC10E03B681A4A934204D1082087
:10102000012108F083FC07E03B68174A934203D193
:101030001020012108F07AFC07F1080318460BF094
:101040000FF9BB88BB60FB793B733B7EBB73BB79FD
:10105000FB7303237B7307F10803386819460BF011
:1010600071F8FB79012B04D1BB88386819460BF065
:1010700053F91037BD4680BD000002400004024015
:1010800000080240000C02400010024080B483B00F
:1010900000AF78600B46FB70FB78002B06D0094947
:1010A000084BDA6B7B681343CB6306E00549054BBD
:1010B000DA6B7B68DB431340CB630C37BD465DF8CE
:1010C000047B7047002C014080B485B000AF78608D
:1010D0000023FB73084B5A6B7B681340002B02D034
:1010E0000123FB7301E00023FB73FB7B18461437DD
:1010F000BD465DF8047B7047002C014080B483B08E
:1011000000AF7860034A7B6893630C37BD465DF897
:10111000047B7047002C014080B500AF0E4B1B884C
:101120009BB21B099BB2002B05D00C4B1B68013BEB
:101130000A4A13600BE0084B1B889BB21B099BB249
:10114000002B04D1054B1B680133044A136002488D
:1011500001210EF019FA80BD000001402C09002089
:1011600080B500AF4FF080431B889BB21B099BB238
:10117000002B05D00C4B1B68013B0B4A13600CE0A5
:101180004FF080431B889BB21B099BB2002B04D1FC
:10119000054B1B680133044A13604FF08040012166
:1011A0000EF0F2F980BD00BF3009002080B500AF1D
:1011B0000E4B1B889BB21B099BB2002B05D00C4B1E
:1011C0001B68013B0A4A13600BE0084B1B889BB26B
:1011D0001B099BB2002B04D1054B1B680133044A49
:1011E0001360024801210EF0CFF980BD00040040D9
:1011F0003409002080B500AF0E4B1B889BB21B0941
:101200009BB2002B05D00C4B1B68013B0A4A1360B4
:101210000BE0084B1B889BB21B099BB2002B04D12F
:10122000054B1B680133044A1360024801210EF08C
:10123000ABF980BD000800403809002080B500AF40
:101240000E4B1B889BB21B099BB2002B05D00C4B8D
:101250001B68013B0A4A13600BE0084B1B889BB2DA
:101260001B099BB2002B04D1054B1B680133044AB8
:101270001360024801210EF087F980BD000C004088
:101280003C09002080B500AF0E4B1B889BB21B09A8
:101290009BB2002B05D00C4B1B68013B0A4A136024
:1012A0000BE0084B1B889BB21B099BB2002B04D19F
:1012B000054B1B680133044A1360024801210EF0FC
:1012C00063F980BD000401404009002080B500AFF3
:1012D0000E4B1B889BB21B099BB2002B05D00C4BFD
:1012E0001B68013B0A4A13600BE0084B1B889BB24A
:1012F0001B099BB2002B04D1054B1B680133044A28
:101300001360024801210EF03FF980BD0018004033
:101310004409002080B500AF04480DF0F7FD0246F7
:10132000034B1B681B041344184680BD000001409A
:101330002C09002080B500AF4FF080400DF0E6FD95
:101340000246034B1B681B041344184680BD00BFB4
:101350003009002080B500AF04480DF0D7FD0246EB
:10136000034B1B681B041344184680BD0004004057
:101370003409002080B500AF04480DF0C7FD0246D7
:10138000034B1B681B041344184680BD0008004033
:101390003809002080B500AF04480DF0B7FD0246C3
:1013A000034B1B681B041344184680BD000C00400F
:1013B0003C09002080B500AF04480DF0A7FD0246AF
:1013C000034B1B681B041344184680BD00040140F6
:1013D0004009002080B500AF04480DF097FD02469B
:1013E000034B1B681B041344184680BD00180040C3
:1013F0004409002090B59DB002AFF860B960134673
:10140000FB800023A7F866300023A7F86430F86853
:101410000CF04CFEFA88002300930220B9680123E7
:10142000FFF7D2FDFA8807F12003104619460CF0A9
:10143000BBFC0023A7F8663025E0B7F866305B00F8
:1014400007F16802134433F8483C012B16D1B7F872
:10145000663010335B0007F16802134433F8463CF2
:1014600018460CF0A7FF03469CB2F8680DF018F878
:101470000346B86821461A460AF05CFFB7F86630A2
:101480000133A7F86630B7F866300F2BD5D91D4B5E
:101490001B681D4AA2FB03235B0E9BB2013BA7F80E
:1014A00064304FF6FE73BB610023BB820023BB8315
:1014B0000023FB8207F11403F86819460DF09AFC2B
:1014C000B7F86430F868194601220DF0FDFCF868A1
:1014D0000321002200230EF067F8F86801210122A1
:1014E0000EF02EF8F86801210DF03CFDF8680CF0C4
:1014F00093FD034618460CF047FF00F055F86C3793
:10150000BD4690BD4000002029D9426680B582B01A
:1015100000AF78607B681E4A934203D1FFF7FAFE62
:10152000034630E07B68B3F1804F03D1FFF702FF41
:10153000034628E07B68174A934203D1FFF70AFF6E
:10154000034620E07B68144A934203D1FFF712FF61
:10155000034618E07B68114A934203D1FFF71AFF54
:10156000034610E07B680E4A934203D1FFF722FF47
:10157000034608E07B680B4A934203D1FFF72AFF3A
:10158000034600E0002318460837BD4680BD00BF73
:10159000000001400004004000080040000C004032
:1015A000000401400018004080B500AF194B002234
:1015B0001A60194B00221A60184B00221A60184B4F
:1015C00000221A60174B00221A60174B00221A6083
:1015D000164B00221A60164800210DF089FC4FF0CE
:1015E000804000210DF084FC124800210DF080FCA9
:1015F000114800210DF07CFC104800210DF078FC12
:101600000F4800210DF074FC0E4800210DF070FC15
:1016100080BD00BF2C0900203009002034090020C3
:10162000380900203C09002040090020440900201E
:10163000000001400004004000080040000C004091
:10164000000401400018004080B500AF01480BF0D5
:101650006DFE80BDD012002080B500AF094B9B7A93
:10166000002B0AD0084A084B1B6823F006031360BE
:101670000AF0A8FE0348FFF77DFC4FF480200CF031
:1016800085FB80BDD012002010ED00E080B58AB04F
:1016900000AF7860396000237B6200233B62002347
:1016A000FB610023BB617B681B8A9BB27B627B6A08
:1016B00023F440537B623B68DB881A467B6A134302
:1016C0007B627B6A9AB27B681A827B689B899BB239
:1016D0007B627B6A23F4B05323F00C037B623B688C
:1016E0009A883B681B8913439AB23B685B89134312
:1016F0009BB21A467B6A13437B627B6A9AB27B6811
:101700009A817B689B8A9BB27B627B6A23F44073DD
:101710007B623B689B891A467B6A13437B627B6AC8
:101720009AB27B689A8207F10803184608F054F8C9
:101730007B68314A934203D07B68304A934202D19E
:101740007B693B6201E03B693B627B689B899BB2A2
:101750009BB21BB2002B0CDA3A6A13469B0013446F
:101760009A001A443B681B685B00B2FBF3F3FB6111
:101770000BE03A6A13469B0013449A001A443B68F4
:101780001B689B00B2FBF3F3FB61FB691C4AA2FBE5
:1017900003235B091B017B627B6A1B09642202FB3A
:1017A00003F3FA69D31ABB617B689B899BB29BB236
:1017B0001BB2002B0CDABB69DB003233104AA2FBF0
:1017C00003235B0903F007037A6A13437B620BE090
:1017D000BB691B0132330A4AA2FB03235B0903F0F6
:1017E0000F037A6A13437B627B6A9AB27B681A8121
:1017F0002837BD4680BD00BF0010014000140140E5
:101800001F85EB5180B483B000AF78600B46FB704E
:10181000FB78002B08D07B689B899BB243F4005374
:101820009AB27B689A8107E07B689B899BB223F41C
:1018300000539AB27B689A810C37BD465DF8047BF1
:10184000704700BF80B483B000AF78600B467B80E8
:101850007B88C3F308039AB27B689A800C37BD4635
:101860005DF8047B704700BF80B483B000AF786040
:101870007B689B889BB2C3F308039BB218460C3766
:10188000BD465DF8047B704780B487B000AF7860D8
:101890000B467B8013467B7000233B610023FB607B
:1018A0000023BB6000237B617B687B617B88DBB2AC
:1018B0005B09DBB23B617B8803F01F03FB60FB68C5
:1018C000012202FA03F3BB603B69012B03D17B6960
:1018D0000C337B6109E03B69022B03D17B69103338
:1018E0007B6102E07B6914337B617B78002B06D03F
:1018F0007B697A691168BA680A431A6006E07B69F5
:101900007A691168BA68D2430A401A601C37BD462A
:101910005DF8047B704700BF80B485B000AF78608D
:101920000B467B800023FB737B681B889AB27B8805
:1019300013409BB2002B02D00123FB7301E0002374
:10194000FB73FB7B18461437BD465DF8047B70477C
:1019500080B485B000AF78607B681B783B737B6890
:101960005B787B737B689B78BB737B68DB78FB73EE
:10197000FB6818461437BD465DF8047B704700BF0E
:1019800080B485B000AF78600B467B807B88BB81DC
:101990003A7B7B681A707B6801337A7B1A70143744
:1019A000BD465DF8047B704780B582B000AF7860BB
:1019B0007B680D4A93420AD14FF00070012108F074
:1019C0000FF84FF00070002108F00AF809E04FF01E
:1019D0008060012108F004F84FF08060002107F0DA
:1019E000FFFF0837BD4680BD0064004080B485B06D
:1019F00000AF786039600023FB730023BB607B6815
:101A00001B6823F002027B681A607B681B6843F046
:101A100001027B681A6002E0BB680133BB607B682F
:101A20005B6803F00103002B04D1BB684FF6FF7223
:101A30009342F1D17B685B6803F00103002B02D174
:101A40000023FB739CE03B689B79012B06D17B68EC
:101A50001B6843F080027B681A6005E07B681B68A6
:101A600023F080027B681A603B68DB79012B06D18A
:101A70007B681B6843F040027B681A6005E07B6866
:101A80001B6823F040027B681A603B681B7A012BBD
:101A900006D17B681B6843F020027B681A6005E072
:101AA0007B681B6823F020027B681A603B685B7AC6
:101AB000012B06D17B681B6843F010027B681A601B
:101AC00005E07B681B6823F010027B681A603B68A6
:101AD0009B7A012B06D17B681B6843F008027B6868
:101AE0001A6005E07B681B6823F008027B681A60B7
:101AF0003B68DB7A012B06D17B681B6843F004024C
:101B00007B681A6005E07B681B6823F004027B6831
:101B10001A603B689B789A073B68DB781B061A4380
:101B20003B681B791B041A433B685B791B051A430E
:101B30003B681B88013B1A437B68DA617B681B6842
:101B400023F001027B681A600023BB6002E0BB68DF
:101B50000133BB607B685B6803F00103002B04D09A
:101B6000BB684FF6FF729342F1D17B685B6803F06C
:101B70000103002B02D00023FB7301E00123FB7360
:101B8000FB7B18461437BD465DF8047B704700BFE9
:101B900080B485B000AF78600023FB607B689B7ADF
:101BA0001A4601239340FB60554A554BD3F8003247
:101BB00043F00103C2F800325149514BD3F81C22C3
:101BC000FB68DB431340C1F81C327B681B7B002B96
:101BD00025D14B494A4BD3F80C22FB68DB43134019
:101BE000C1F80C3246497B689B7A18467B68DB88D3
:101BF0001B047A6852881A4300F1480341F83320E5
:101C00003F497B689B7A18467B689B881B047A68EF
:101C100012881A4300F14803DB000B445A607B68CA
:101C20001B7B012B24D13649354BD3F80C22FB68A2
:101C30001343C1F80C3232497B689B7A18467B68A3
:101C40001B881B047A6852881A4300F1480341F844
:101C500033202B497B689B7A18467B689B881B0442
:101C60007A68D2881A4300F14803DB000B445A60BB
:101C70007B68DB7A002B09D12149214BD3F8042260
:101C8000FB68DB431340C1F8043207E01C491C4BDE
:101C9000D3F80422FB681343C1F804327B681B8924
:101CA000002B08D11649164BD3F81422FB68DB43EE
:101CB0001340C1F814327B681B89012B07D11049EE
:101CC0000F4BD3F81422FB681343C1F814327B681E
:101CD0005B7B012B07D10A49094BD3F81C22FB6817
:101CE0001343C1F81C32064A054BD3F8003223F0E7
:101CF0000103C2F800321437BD465DF8047B70471B
:101D00000064004080B483B000AF78607B6800223C
:101D10009A717B680022DA717B6800221A727B68F4
:101D200000225A727B6800229A727B680022DA7263
:101D30007B6800229A707B680022DA707B6803223D
:101D40001A717B6802225A717B6801221A800C3753
:101D5000BD465DF8047B704780B485B000AF786005
:101D600039600023FB737B689B6803F08063002B62
:101D700002D00023FB7313E07B689B6803F00063D1
:101D8000002B02D00123FB730AE07B689B6803F001
:101D90008053002B02D00223FB7301E00423FB736A
:101DA000FB7B042B00F09880FB7BFA7B7968183270
:101DB00012010A44126802F00102796818331B010B
:101DC0000B441A603B681B7A002B13D1FB7BFA7B18
:101DD0007968183212010A4411683A68126852058B
:101DE0003868407A02430A43796818331B010B4470
:101DF0001A6015E0FB7BFA7B7968183212010A44FD
:101E000011683A685268D2003868007A024338682C
:101E1000407A02430A43796818331B010B441A6065
:101E20003B689B7A03F00F03DAB23B689A72FB7B44
:101E3000FA7B7968183212010A44526822F00F02C4
:101E4000796818331B010B445A60FB7BFA7B796875
:101E5000183212010A4452683968897A0A4379684B
:101E600018331B010B445A60FB7B3A68927B1106C6
:101E70003A68527B120411433A68127B12020A43F9
:101E80003968C97A0A4379681B010B4403F5C473A6
:101E90001A60FB7B3A68927C11063A68527C120405
:101EA00011433A68127C12020A433968C97B0A431B
:101EB00079681B010B4403F5C4735A60FB7BFA7B02
:101EC0007968183212010A44126842F001027968F6
:101ED00018331B010B441A60FB7B18461437BD46B0
:101EE0005DF8047B704700BF80B485B000AF7860B8
:101EF0000B46FB700023FB60FB78012B09D0022B03
:101F00000DD0002B11D17B689A68264B1340FB60E3
:101F10000EE07B689A68244B1340FB6008E07B6806
:101F20009A68224B1340FB6002E00023FB6000BF75
:101F3000FB681F4A93421BD01D4A934208D81D4A92
:101F4000934212D0174A934218D0002B0AD01EE0B9
:101F5000194A93420FD0154A934215D0124A934220
:101F60000FD014E00223FB6014E00023FB6011E0BB
:101F70000023FB600EE00023FB600BE00123FB600D
:101F800008E00123FB6005E00123FB6002E0002381
:101F9000FB6000BFFB68DBB218461437BD465DF836
:101FA000047B7047030000040003000800000310D6
:101FB00000010008010000040000011080B485B099
:101FC00000AFF8600B467A60FB72FB7AFA681B334D
:101FD0001B0113441B68DBB203F00403DAB27B6815
:101FE0001A727B681B7A002B09D1FB7AFA681B33C3
:101FF0001B0113441B685A0D7B681A6008E0FB7ACA
:10200000FA681B331B0113441B68DA087B685A60AB
:10201000FB7AFA681B331B0113441B68DBB203F025
:102020000203DAB27B685A72FB7AFA681B331B012F
:1020300013445B68DBB203F00F03DAB27B689A7279
:10204000FB7AFA681B331B0113445B681B0ADAB284
:102050007B68DA74FB7AFA681B01134403F5DC73BE
:102060001B68DAB27B68DA72FB7AFA681B011344E8
:1020700003F5DC731B681B0ADAB27B681A73FB7A00
:10208000FA681B01134403F5DC731B681B0CDAB2FE
:102090007B685A73FB7AFA681B01134403F5DC73FF
:1020A0001B681B0EDAB27B689A73FB7AFA681B0115
:1020B000134403F5DC735B68DAB27B68DA73FB7A8E
:1020C000FA681B01134403F5DC735B681B0ADAB280
:1020D0007B681A74FB7AFA681B01134403F5DC73FE
:1020E0005B681B0CDAB27B685A74FB7AFA681B01D6
:1020F000134403F5DC735B681B0EDAB27B689A74D9
:10210000FB7A002B06D1FB68DB6843F02002FB68FA
:10211000DA6005E0FB681B6943F02002FB681A6186
:102120001437BD465DF8047B704700BF80B485B0AE
:1021300000AFF860B9601346FB71FB79002B06D045
:10214000FB685A69BB681A43FB685A6106E0FB6882
:102150005A69BB68DB431A40FB685A611437BD46B5
:102160005DF8047B704700BF80B584B000AF786035
:1021700039600023FB737B685A693B681340002B6E
:1021800000F0B2803B68402B62D0402B0FD8042B6C
:102190003AD0042B04D8012B24D0022B2BD09FE063
:1021A000102B43D0202B4AD0082B36D098E0B3F523
:1021B000006F00F08380B3F5006F09D8B3F5007F9E
:1021C0006AD0B3F5806F70D0B3F5807F5BD087E0C5
:1021D000B3F5803F45D0B3F5003F4BD0B3F5004F8A
:1021E00075D07DE07B689B681846434900F086F80F
:1021F0000346FB7377E07B68DB681846032100F039
:102200007DF80346FB736EE07B68DB6818460821A7
:1022100000F074F80346FB7365E07B68DB681846E2
:10222000102100F06BF80346FB735CE07B681B69D0
:102230001846032100F062F80346FB7353E07B6805
:102240001B691846082100F059F80346FB734AE061
:102250007B681B691846102100F050F80346FB7399
:1022600041E07B685B681846082100F047F80346A8
:10227000FB7338E07B685B681846102100F03EF87D
:102280000346FB732FE07B689B691846012100F031
:1022900035F80346FB7326E07B689B6918460221EC
:1022A00000F02CF80346FB731DE07B689B69184621
:1022B000042100F023F80346FB7314E07B689B695C
:1022C0001846702100F01AF80346FB730BE07B6898
:1022D0005B681846042100F011F80346FB7302E026
:1022E0000023FB7300BF01E00023FB73FB7B184658
:1022F0001037BD4680BD00BF0101010080B485B02C
:1023000000AF786039600023FB737A683B68134044
:10231000002B02D00123FB7301E00023FB73FB7B46
:1023200018461437BD465DF8047B704780B400AF93
:10233000064BD3E90023013243F100030349C1E90D
:102340000023BD465DF8047B704700BF48090020AC
:1023500080B500AF00F010F802460B461046194653
:102360004FF47A724FF0000311F0C6FA02460B46A2
:102370001046194680BD00BF80B400AF094BD3E9B9
:102380000023921843EB0303990041EA92719000F5
:10239000121843EB010310461946BD465DF8047B55
:1023A000704700BF4809002080B500AF014809F020
:1023B0001FFE80BDACC5273780B584B000AFC7E92C
:1023C00000010023FB60FFF7C3FF02460B461346E4
:1023D000FB6000BFFFF7BCFFFB681A464FEAE273E1
:1023E000821A61EB0303D7E90001904271EB03030A
:1023F000F0DA1037BD4680BD80B582B000AFC7E9C6
:102400000001D7E90001FFF7D7FF0837BD4680BDBF
:1024100080B58AB002AFF8607A601A460B46FB724C
:1024200013463B8107F114031846FFF76BFCFB686A
:10243000012B08D14E48FFF7B7FA4FF00070012189
:1024400007F092FA0AE0FB68022B07D14948FFF730
:10245000ABFA4FF08060012107F086FA3A89002339
:102460000093022079680123FEF7AEFDBA8D0023A8
:1024700000930220B96A0123FEF7A6FDFB68012B39
:1024800016D13B8918460BF095FF03469BB278683E
:102490001946092209F04EFFBB8D18460BF08AFF42
:1024A00003469BB2B86A1946092209F043FF18E0B7
:1024B000FB68022B15D13B8918460BF07BFF0346C6
:1024C0009BB278681946092209F034FFBB8D184683
:1024D0000BF070FF03469BB2B86A1946092209F057
:1024E00029FF0123BB760023FB7600233B770023E3
:1024F0007B770023BB770023FB77FB7ABB75002338
:10250000FB7505233B7606237B760323BB82FB68A2
:10251000012B06D107F1140315481946FFF766FA97
:1025200008E0FB68022B05D107F114031148194696
:10253000FFF75CFA4FF4E0600CF00EF8FB68012B3B
:1025400008D114200BF020FF094802210122FFF7D7
:10255000EDFD0AE0FB68022B07D140200BF014FFD1
:10256000044802210122FFF7E1FD2037BD4680BD6E
:10257000006400400068004080B586B000AF78601D
:10258000084611461A460346FB700B463B8013462D
:10259000BB700023FB820023FB8210E0FB8ADBB2CE
:1025A000BB7400233B8200237B7507F108031846A8
:1025B000FFF7EEFAFB8A9BB201339BB2FB82B7F9BD
:1025C00016300D2BEADD7B68DBB2BB7400233B8247
:1025D00001237B75FB78002B02D10023FB7404E000
:1025E000FB78012B01D10123FB7400233B75B7F964
:1025F00000305B019AB2BB781B019BB213439BB2C4
:102600009BB27B81B7F920305B019AB297F82430F6
:102610001B019BB213439BB29BB2FB81B7F92830DD
:102620005B019AB297F82C301B019BB213439BB20B
:102630009BB23B81B7F930305B019AB297F83430E6
:102640001B019BB213439BB29BB2BB8107F10803F2
:102650001846FFF79DFA1837BD4680BD80B582B099
:1026600000AF786007487968FFF776FB00BF054840
:102670000021FFF739FC0346012BF8D10837BD468E
:1026800080BD00BF0064004080B582B000AF104B39
:102690007B60104B3B6007E03B681A1D3A607A682C
:1026A000111D796012681A603B680B4A9342F3D39C
:1026B0000A480B494FF000028842B8BF40F8042B8B
:1026C000FADB07F0C9F904F067FA0837BD4680BDA8
:1026D000689A0208000000200C0900201009002060
:1026E000C418002080B400AFFEE700BF80B584B0FE
:1026F00000AF786007F10803786819460AF0AAFD70
:102700003B7A03F01F03012B0AD0022B0FD0002BC2
:1027100014D107F10803786819460AF0C5F916E0E4
:1027200007F10803786819460AF00EFA0FE007F17E
:102730000803786819460AF03BFA08E03B7A23F070
:102740007F03DBB2786819460CF04AF800BF00231B
:1027500018461037BD4680BD80B584B000AF7860A4
:102760000B46FB70FB78002B44D17B6803F55C7350
:10277000FB607B6893F81131032B4ED1FB68DA695B
:10278000FB689B689A4220D9FB68DA69FB689B6802
:10279000D21AFB68DA617B68DB78012B06D1FB6813
:1027A000DA68FB689B681A44FB68DA60FB68D968E2
:1027B000FB689A68FB68DB69934228BF13469BB2AB
:1027C00078681A460CF064FA27E07B68D3F8E035A5
:1027D0001B69002B0AD07B6893F81231032B05D1BB
:1027E0007B68D3F8E0351B697868984778680CF007
:1027F00063FA12E07B68D3F8E0359B69002B0CD0BC
:102800007B6893F81231032B07D17B68D3F8E0354E
:102810009B69FA7878681146984700231846103764
:10282000BD4680BD80B584B000AF78600B46FB70BC
:10283000FB78002B60D17B6803F58C73FB607B68B1
:1028400093F81131022B6AD1FB68DA69FB689B6847
:102850009A421CD9FB68DA69FB689B68D21AFB684C
:10286000DA617B68DB78012B06D1FB68DA68FB68EC
:102870009B681A44FB68DA60FB68DA68FB68DB690E
:102880009BB2786811461A460CF0EEF947E0FB68F7
:102890001B6AFA689268B3FBF2F102FB01F29B1A21
:1028A000002B14D1FB681A6AFB689B689A420ED30E
:1028B000FB681A6AFB685B6A9A4208D27868002152
:1028C00000220CF0D1F9FB6800225A6227E07B68F5
:1028D000D3F8E035DB68002B0AD07B6893F812311F
:1028E000032B05D17B68D3F8E035DB68786898471F
:1028F00078680CF0F9F912E07B68D3F8E0355B6991
:10290000002B0CD07B6893F81231032B07D17B6826
:10291000D3F8E0355B69FA78786811469847002368
:1029200018461037BD4680BD80B582B000AF7860D4
:1029300078680021402200230BF080FE7868802117
:10294000402200230BF07AFE7B68012283F81221DB
:102950007B68D3F8E4355B687A68927810469847CC
:10296000002318460837BD4680BD00BF80B582B041
:1029700000AF78607B68D3F8E4351B6998477B68C3
:10298000032283F81221002318460837BD4680BD74
:1029900080B582B000AF78607B68042283F8122192
:1029A0007B68D3F8E435DB6898470023184608377E
:1029B000BD4680BD80B582B000AF78607B68D3F83B
:1029C000E035DB69002B05D07B68D3F8E035DB69A7
:1029D00078689847002318460837BD4680BD00BF79
:1029E00080B582B000AF78600B46FB707B68D3F88F
:1029F000E0351B68FA787868114698477B68D3F809
:102A0000E4359B689847002318460837BD4680BDCB
:102A100080B582B000AF78600B46FB707B68D3F85E
:102A2000E0355B68FA7878681146984700231846C5
:102A30000837BD4680BD00BF80B582B000AF78606A
:102A40007B68D3F8E0351B6A7868984700231846FE
:102A50000837BD4680BD00BF80B582B000AF78604A
:102A60007B68D3F8E0355B6A78689847002318469E
:102A70000837BD4680BD00BF80B483B000AF78602A
:102A800039607B683A689A607B6800225A6000234C
:102A900018460C37BD465DF8047B704780B483B0A0
:102AA00000AF786039600C37BD465DF8047B704735
:102AB00080B582B000AF78607B68064A1A607B6898
:102AC0001033184603F01CFC7B6818460837BD46D7
:102AD00080BD00BF2865020880B582B000AF786075
:102AE00039607B681846FFF7E3FF7B68074A1A6086
:102AF0007B683A68C3F820217B680022C3F81C2158
:102B00007B6818460837BD4680BD00BF205F0208BD
:102B100080B582B000AF78600B46FB707B6803F134
:102B20001002FB781046194603F0FEFB0346002B0B
:102B30000CBF01230023DBB2002B0AD0FB780D2B46
:102B400013D17B68D3F81C315A1C7B68C3F81C2155
:102B50000BE07B68D3F81C31002B06D1FB780D2BE2
:102B600003D17B680122C3F81C210837BD4680BD14
:102B700080B582B000AF78607B681033184603F0F0
:102B800003FC0346002B0CBF01230023DBB21846D5
:102B90000837BD4680BD00BF80B483B000AF786009
:102BA0007B68D3F81C3118460C37BD465DF8047BB2
:102BB000704700BF80B582B000AF78607B6810338B
:102BC000184603F0F7FB034618460837BD4680BD9C
:102BD00090B585B000AF786039607B6810331846D7
:102BE00003F0D2FB0346002B14BF01230023DBB20A
:102BF000002B08D03B6800221A707B680022C3F8C3
:102C00001C21002354E00023FB604DE0FB683A6880
:102C1000D4187B681033184603F0CCFB03462370AE
:102C2000FB683A6813441B780D2B02D0FB68FE2B1F
:102C30001FDDFB683A68134400221A707B6810336A
:102C4000184603F0A1FB0346002B14BF0123002309
:102C5000DBB2002B04D07B680022C3F81C2106E005
:102C60007B68D3F81C315A1E7B68C3F81C21FB68B3
:102C70001EE07B681033184603F086FB0346002BEA
:102C800014BF01230023DBB2002B0AD0FB683A6893
:102C9000134400221A707B680022C3F81C21FB68D1
:102CA00006E0FB680133FB60FB68FF2BAEDD002311
:102CB00018461437BD4690BD80B582B000AF78602D
:102CC0007B689B68012B06D17B685B681846FFF721
:102CD00063FF034600E0002318460837BD4680BD69
:102CE00080B582B000AF786039603B6800221A700E
:102CF0007B689B68012B07D17B685B681846396845
:102D0000FFF766FF034600E0002318460837BD467C
:102D100080BD00BF80B582B000AF78607B689B68E3
:102D2000012B06D17B685B681846FFF721FF03463D
:102D300000E0002318460837BD4680BD80B582B04C
:102D400000AF78607B689B68012B06D17B685B686D
:102D50001846FFF72FFF034600E000231846083708
:102D6000BD4680BD80B584B000AF78603960002377
:102D7000FB600DE07B681B6804331B68FA683968E8
:102D80000A441278786811469847FB680133FB6063
:102D9000FB683A6813441B78002BEBD11037BD4613
:102DA00080BD00BF90B587B002AFF860B9607A60AF
:102DB0003B60FB6802229A60FB681B681C683B68EA
:102DC0000093F868B9687A683B6AA04703461846DA
:102DD0001437BD4690BD00BF90B587B002AFF86014
:102DE000B9607A603B60FB6801229A604FF4927090
:102DF00018F0B6F804462046F968FFF76DFEFB6848
:102E00005C60FB681B681C68FB685B681A467B6833
:102E10000093F868B9683B68A04703461846143722
:102E2000BD4690BD80B584B000AF78607B681B68FC
:102E30000C331B68786898470346FB60FB68002BDF
:102E400001D0FB6803E07B6801225A60002318462A
:102E50001037BD4680BD00BF80B584B000AF78603C
:102E60007B681B6810331B68786898470346FB60D3
:102E7000FB68002B01D0FB6803E07B6802225A60EC
:102E8000002318461037BD4680BD00BF80B584B012
:102E900000AF78607B681B6814331B6878689847BC
:102EA0000346FB60FB68002B01D0FB6803E07B68F6
:102EB00003225A60002318461037BD4680BD00BF6C
:102EC00080B584B000AF78607B681B6818331B68DE
:102ED000786898470346FB60FB68002B01D0FB68CD
:102EE00003E07B6804225A60002318461037BD4671
:102EF00080BD00BF80B582B000AF786039607B686C
:102F00005B68002B00D125E07B685B68022B07D152
:102F10007B681B6804331B6878683968984719E038
:102F20003B68012B06D17B681B6824331B687868DB
:102F300098470FE03B68002B06D17B681B6828335D
:102F40001B687868984705E07B681B681C331B6822
:102F5000786898470837BD4680BD00BF80B582B00D
:102F600000AF78607B685B68002B01D1002311E023
:102F70007B685B68012B07D17B681B6808331B6883
:102F800078689847034605E07B681B681B6878688B
:102F90009847034618460837BD4680BD80B582B0C5
:102FA00000AF78607B681B682C331B687868012150
:102FB00098470837BD4680BD80B582B000AF7860C5
:102FC0007B681B682C331B6878680021984708379A
:102FD000BD4680BD90B583B000AF78607B681B684C
:102FE0002C331C687B681B6830331B6878689847F3
:102FF0000346002B0CBF01230023DBB2786819467F
:10300000A0470C37BD4690BD80B582B000AF786058
:103010007B681B681B687868984703461846083722
:10302000BD4680BD80B582B000AF78607B681B680C
:1030300004331B6878689847034618460837BD462E
:1030400080BD00BF80B584B000AFF860B9607A6021
:10305000FB681B681B68F868B9687A68984703467C
:1030600018461037BD4680BD80B582B000AF78608D
:1030700039607B681B6804331B6878683968984737
:103080000837BD4680BD00BF80B582B000AF786014
:103090007B681B6808331B687868984703461846A6
:1030A0000837BD4680BD00BF80B483B000AF7860F4
:1030B00040F6FF7318460C37BD465DF8047B704739
:1030C000A0F10800F0E700BF80B483B000AF7860E3
:1030D000034B18460C37BD465DF8047B704700BFB4
:1030E00033335340A0F10800EEE700BF80B483B053
:1030F00000AF786040F6FF7318460C37BD465DF8A8
:10310000047B7047A0F10800F0E700BF80B483B0F3
:1031100000AF7860034B18460C37BD465DF8047B62
:10312000704700BF33335340A0F10800EEE700BF03
:1031300080B483B000AF786040F6FF7318460C3758
:10314000BD465DF8047B7047A0F10800F0E700BFC2
:1031500080B483B000AF7860034B18460C37BD468F
:103160005DF8047B704700BF33335340A0F1080083
:10317000EEE700BF80B483B000AF786040F6FF7325
:1031800018460C37BD465DF8047B7047A0F1080077
:10319000F0E700BF80B483B000AF7860034B1846FF
:1031A0000C37BD465DF8047B704700BF3333534096
:1031B000A0F10800EEE700BF80B483B000AF7860F4
:1031C00040F6FF7318460C37BD465DF8047B704728
:1031D000A0F10800F0E700BF80B483B000AF7860D2
:1031E000034B18460C37BD465DF8047B704700BFA3
:1031F00033335340A0F10800EEE700BF80B582B042
:1032000000AF786004484FF4805109F05DF8034640
:1032100018460837BD4680BD0004024080B582B024
:1032200000AF786039603B68002B05D106484FF449
:10323000805109F071F804E003484FF4805109F01F
:103240005DF80837BD4680BD0004024080B582B0FD
:1032500000AF786004484FF4805109F01BF8034632
:1032600018460837BD4680BD0004024080B584B0D2
:1032700002AF786000230093002005494FF480528C
:103280000023FDF7A1FE002318460837BD4680BD88
:103290000004024080B584B002AF78600023009340
:1032A000012005494FF480520023FDF78DFE0023D5
:1032B00018460837BD4680BD0004024080B584B082
:1032C00002AF786000230093002005494FF480523C
:1032D0000123FDF779FE002318460837BD4680BD5F
:1032E0000004024080B584B002AF786000230093F0
:1032F000002005494FF480520223FDF765FE0023AC
:1033000018460837BD4680BD0004024080B582B033
:1033100000AF786004484FF4004108F0D5FF034641
:1033200018460837BD4680BD0010024080B582B007
:1033300000AF786039603B68002B05D106484FF438
:10334000004108F0E9FF04E003484FF4004108F0B1
:10335000D5FF0837BD4680BD0010024080B582B061
:1033600000AF786004484FF4004108F093FF034633
:1033700018460837BD4680BD0010024080B584B0B5
:1033800002AF786000230093002005494FF400420B
:103390000023FDF719FE012318460837BD4680BDFE
:1033A0000010024080B584B002AF78600023009323
:1033B000012005494FF400420023FDF705FE0023DC
:1033C00018460837BD4680BD0010024080B584B065
:1033D00002AF786000230093002005494FF40042BB
:1033E0000123FDF7F1FD012318460837BD4680BDD6
:1033F0000010024080B584B002AF786000230093D3
:10340000002005494FF400420223FDF7DDFD0023B3
:1034100018460837BD4680BD0010024080B582B016
:1034200000AF786004484FF4804108F04DFF034638
:1034300018460837BD4680BD0004024080B582B002
:1034400000AF786039603B68002B05D106484FF427
:10345000804108F061FF04E003484FF4804108F028
:103460004DFF0837BD4680BD0004024080B582B0E4
:1034700000AF786004484FF4804108F00BFF03462A
:1034800018460837BD4680BD0004024080B584B0B0
:1034900002AF786000230093002005494FF480427A
:1034A0000023FDF791FD002318460837BD4680BD77
:1034B0000004024080B584B002AF7860002300931E
:1034C000012005494FF480420023FDF77DFD0023D4
:1034D00018460837BD4680BD0004024080B584B060
:1034E00002AF786000230093002005494FF480422A
:1034F0000123FDF769FD002318460837BD4680BD4E
:103500000004024080B584B002AF786000230093CD
:10351000002005494FF480420223FDF755FD0023AA
:1035200018460837BD4680BD0004024080B582B011
:1035300000AF786004484FF4004108F0C5FE034630
:1035400018460837BD4680BD0004024080B582B0F1
:1035500000AF786039603B68002B05D106484FF416
:10356000004108F0D9FE04E003484FF4004108F0A0
:10357000C5FE0837BD4680BD0004024080B582B05C
:1035800000AF786004484FF4004108F083FE034622
:1035900018460837BD4680BD0004024080B584B09F
:1035A00002AF786000230093002005494FF40042E9
:1035B0000023FDF709FD002318460837BD4680BDEE
:1035C0000004024080B584B002AF7860002300930D
:1035D000012005494FF400420023FDF7F5FC0023CC
:1035E00018460837BD4680BD0004024080B584B04F
:1035F00002AF786000230093002005494FF4004299
:103600000123FDF7E1FC002318460837BD4680BDC5
:103610000004024080B584B002AF786000230093BC
:10362000002005494FF400420223FDF7CDFC0023A2
:1036300018460837BD4680BD0004024080B582B000
:1036400000AF786004484FF4004108F03DFE0346A7
:1036500018460837BD4680BD0000024080B582B0E4
:1036600000AF786039603B68002B05D106484FF405
:10367000004108F051FE04E003484FF4004108F017
:103680003DFE0837BD4680BD0000024080B582B0D7
:1036900000AF786004484FF4004108F0FBFD03469A
:1036A00018460837BD4680BD0000024080B584B092
:1036B00002AF786000230093002005494FF40042D8
:1036C0000023FDF781FC002318460837BD4680BD66
:1036D0000000024080B483B000AF78600123184638
:1036E0000C37BD465DF8047B704700BF80B584B0E1
:1036F00002AF786000230093002005494FF4004298
:103700000123FDF761FC002318460837BD4680BD44
:103710000000024080B584B002AF786000230093BF
:10372000002005494FF400420223FDF74DFC002321
:1037300018460837BD4680BD0000024080B582B003
:1037400000AF786004484FF4005108F0BDFD034617
:1037500018460837BD4680BD0004024080B582B0DF
:1037600000AF786039603B68002B05D106484FF404
:10377000005108F0D1FD04E003484FF4005108F077
:10378000BDFD0837BD4680BD0004024080B582B053
:1037900000AF786004484FF4005108F07BFD034609
:1037A00018460837BD4680BD0004024080B584B08D
:1037B00002AF786000230093002005494FF40052C7
:1037C0000023FDF701FC002318460837BD4680BDE5
:1037D0000004024080B483B000AF78600123184633
:1037E0000C37BD465DF8047B704700BF80B584B0E0
:1037F00002AF786000230093002005494FF4005287
:103800000123FDF7E1FB002318460837BD4680BDC4
:103810000004024080B584B002AF786000230093BA
:10382000002005494FF400520223FDF7CDFB002391
:1038300018460837BD4680BD0004024080B582B0FE
:1038400000AF786004484FF4006108F03DFD034686
:1038500018460837BD4680BD000C024080B582B0D6
:1038600000AF786039603B68002B05D106484FF403
:10387000006108F051FD04E003484FF4006108F0D6
:103880003DFD0837BD4680BD000C024080B582B0CA
:1038900000AF786004484FF4006108F0FBFC034679
:1038A00018460837BD4680BD000C024080B584B084
:1038B00002AF786000230093002005494FF40062B6
:1038C0000023FDF781FB002318460837BD4680BD65
:1038D000000C024080B483B000AF7860012318462A
:1038E0000C37BD465DF8047B704700BF80B584B0DF
:1038F00002AF786000230093002005494FF4006276
:103900000123FDF761FB002318460837BD4680BD43
:10391000000C024080B584B002AF786000230093B1
:10392000002005494FF400620223FDF74DFB002300
:1039300018460837BD4680BD000C024080B582B0F5
:1039400000AF786004484FF4806108F0BDFC034686
:1039500018460837BD4680BD000C024080B582B0D5
:1039600000AF786039603B68002B05D106484FF402
:10397000806108F0D1FC04E003484FF4806108F056
:10398000BDFC0837BD4680BD000C024080B582B04A
:1039900000AF786004484FF4806108F07BFC034678
:1039A00018460837BD4680BD000C024080B584B083
:1039B00002AF786000230093002005494FF4806235
:1039C0000023FDF701FB002318460837BD4680BDE4
:1039D000000C024080B483B000AF78600123184629
:1039E0000C37BD465DF8047B704700BF80B584B0DE
:1039F00002AF786000230093002005494FF48062F5
:103A00000123FDF7E1FA002318460837BD4680BDC3
:103A1000000C024080B584B002AF786000230093B0
:103A2000002005494FF480620223FDF7CDFA002300
:103A300018460837BD4680BD000C024080B582B0F4
:103A400000AF78600448022108F03EFC03461846A7
:103A50000837BD4680BD00BF0004024080B582B07B
:103A600000AF786039603B68002B04D10548022123
:103A700008F052FC03E00348022108F03FFC08373D
:103A8000BD4680BD0004024080B582B000AF7860C2
:103A90000448022108F0FEFB034618460837BD46DD
:103AA00080BD00BF0004024080B584B002AF7860E2
:103AB000002300930020054902220023FDF784FA29
:103AC000002318460837BD4680BD00BF00040240F1
:103AD00080B584B002AF78600023009301200549CF
:103AE00002220023FDF770FA002318460837BD466E
:103AF00080BD00BF0004024080B584B002AF786092
:103B0000002300930020054902220123FDF75CFAFF
:103B1000002318460837BD4680BD00BF00040240A0
:103B200080B584B002AF786000230093002005497F
:103B300002220223FDF748FA002318460837BD4643
:103B400080BD00BF0004024080B582B000AF786045
:103B50000448102108F0B8FB034618460837BD4654
:103B600080BD00BF0000024080B582B000AF786029
:103B700039603B68002B04D10548102108F0CCFBCC
:103B800003E00348102108F0B9FB0837BD4680BDAB
:103B90000000024080B582B000AF78600448102178
:103BA00008F078FB034618460837BD4680BD00BFC5
:103BB0000000024080B584B002AF7860002300931B
:103BC0000020054910220023FDF7FEF900231846C6
:103BD0000837BD4680BD00BF0000024080B584B0FC
:103BE00002AF7860002300930120054910220023D2
:103BF000FDF7EAF9002318460837BD4680BD00BF2F
:103C00000000024080B584B002AF786000230093CA
:103C10000020054910220123FDF7D6F9002318469C
:103C20000837BD4680BD00BF0000024080B584B0AB
:103C300002AF786000230093002005491022022380
:103C4000FDF7C2F9002318460837BD4680BD00BF06
:103C50000000024080B582B000AF786004480121C6
:103C600008F032FB034618460837BD4680BD00BF4A
:103C70000008024080B582B000AF786039603B68D0
:103C8000002B04D10548012108F046FB03E003485E
:103C9000012108F033FB0837BD4680BD0008024013
:103CA00080B582B000AF78600448012108F0F2FAD4
:103CB000034618460837BD4680BD00BF00080240D5
:103CC00080B584B002AF78600023009300200549DE
:103CD00001220023FDF778F9002318460837BD4676
:103CE00080BD00BF0008024080B584B002AF78609C
:103CF000002300930120054901220023FDF764F908
:103D0000002318460837BD4680BD00BF00080240AA
:103D100080B584B002AF786000230093002005498D
:103D200001220123FDF750F9002318460837BD464C
:103D300080BD00BF0008024080B584B002AF78604B
:103D4000002300930020054901220223FDF73CF9DE
:103D5000002318460837BD4680BD00BF000802405A
:103D600080B582B000AF786004484FF4805108F00D
:103D7000ABFA034618460837BD4680BD0010024026
:103D800080B582B000AF786039603B68002B05D108
:103D900006484FF4805108F0BFFA04E003484FF49E
:103DA000805108F0ABFA0837BD4680BD00100240D4
:103DB00080B582B000AF786004484FF4805108F0BD
:103DC00069FA034618460837BD4680BD0010024018
:103DD00080B584B002AF78600023009300200549CD
:103DE0004FF480520023FDF7EFF800231846083700
:103DF000BD4680BD0010024080B584B002AF78603F
:103E000000230093012005494FF480520023FDF761
:103E1000DBF8002318460837BD4680BD001002407D
:103E200080B584B002AF786000230093002005497C
:103E30004FF480520123FDF7C7F8002318460837D6
:103E4000BD4680BD0010024080B584B002AF7860EE
:103E500000230093002005494FF480520223FDF710
:103E6000B3F8002318460837BD4680BD0010024055
:103E700080B582B000AF78600448202108F024FAB1
:103E8000034618460837BD4680BD00BF000002400B
:103E900080B582B000AF786039603B68002B04D1F8
:103EA0000548202108F038FA03E00348202108F0F3
:103EB00025FA0837BD4680BD0000024080B582B0BB
:103EC00000AF78600448202108F0E4F90346184662
:103ED0000837BD4680BD00BF0000024080B584B0F9
:103EE00002AF7860002300930020054920220023C0
:103EF000FDF76AF8002318460837BD4680BD00BFAD
:103F00000000024080B584B002AF786000230093C7
:103F10000120054920220023FDF756F8002318460A
:103F20000837BD4680BD00BF0000024080B584B0A8
:103F300002AF78600023009300200549202201236E
:103F4000FDF742F8002318460837BD4680BD00BF84
:103F50000000024080B584B002AF78600023009377
:103F60000020054920220223FDF72EF800231846E1
:103F70000837BD4680BD00BF0000024080B582B05A
:103F800000AF78600448042108F09EF90346184603
:103F90000837BD4680BD00BF0004024080B582B036
:103FA00000AF786039603B68002B04D105480421DC
:103FB00008F0B2F903E00348042108F09FF908373C
:103FC000BD4680BD0004024080B582B000AF78607D
:103FD0000448042108F05EF9034618460837BD4638
:103FE00080BD00BF0004024080B584B002AF78609D
:103FF000002300930020054904220023FCF7E4FF7E
:10400000002318460837BD4680BD00BF00040240AB
:1040100080B584B002AF7860002300930120054989
:1040200004220023FCF7D0FF002318460837BD46C2
:1040300080BD00BF0004024080B584B002AF78604C
:10404000002300930020054904220123FCF7BCFF54
:10405000002318460837BD4680BD00BF000402405B
:1040600080B584B002AF786000230093002005493A
:1040700004220223FCF7A8FF002318460837BD4698
:1040800080BD00BF0004024080B582B000AF786000
:104090000448802108F018F9034618460837BD4641
:1040A00080BD00BF0010024080B582B000AF7860D4
:1040B00039603B68002B04D10548802108F02CF9B9
:1040C00003E00348802108F019F90837BD4680BD98
:1040D0000010024080B582B000AF786004488021B3
:1040E00008F0D8F8034618460837BD4680BD00BF23
:1040F0000010024080B584B002AF786000230093C6
:104100000020054980220023FCF75EFF00231846AB
:104110000837BD4680BD00BF0010024080B584B0A6
:1041200002AF78600023009301200549802200231C
:10413000FCF74AFF002318460837BD4680BD00BF84
:104140000010024080B584B002AF78600023009375
:104150000020054980220123FCF736FF0023184682
:104160000837BD4680BD00BF0010024080B584B056
:1041700002AF7860002300930020054980220223CB
:10418000FCF722FF002318460837BD4680BD00BF5C
:104190000010024080B582B000AF786004484FF450
:1041A000806108F091F8034618460837BD4680BD87
:1041B0000010024080B582B000AF786039603B6883
:1041C000002B05D106484FF4806108F0A5F804E003
:1041D00003484FF4806108F091F80837BD4680BD70
:1041E0000010024080B582B000AF786004484FF400
:1041F000806108F04FF8034618460837BD4680BD79
:104200000010024080B584B002AF786000230093B4
:10421000002005494FF480620023FCF7D5FE0023FF
:1042200018460837BD4680BD0010024080B584B0F6
:1042300002AF786000230093012005494FF48062AB
:104240000023FCF7C1FE002318460837BD4680BD99
:104250000010024080B584B002AF78600023009364
:10426000002005494FF480620123FCF7ADFE0023D6
:1042700018460837BD4680BD0010024080B584B0A6
:1042800002AF786000230093002005494FF480625C
:104290000223FCF799FE002318460837BD4680BD6F
:1042A0000010024080B582B000AF78600448012160
:1042B00008F00AF8034618460837BD4680BD00BF1F
:1042C0000004024080B582B000AF786039603B687E
:1042D000002B04D10548012108F01EF803E0034833
:1042E000012108F00BF80837BD4680BD00040240EC
:1042F00080B582B000AF78600448012107F0CAFFA2
:10430000034618460837BD4680BD00BF0004024082
:1043100080B584B002AF7860002300930020054987
:1043200001220023FCF750FE002318460837BD4643
:1043300080BD00BF0004024080B584B002AF786049
:10434000002300930120054901220023FCF73CFED5
:10435000002318460837BD4680BD00BF0004024058
:1043600080B584B002AF7860002300930020054937
:1043700001220123FCF728FE002318460837BD461A
:1043800080BD00BF0004024080B584B002AF7860F9
:10439000002300930020054901220223FCF714FEAC
:1043A000002318460837BD4680BD00BF0004024008
:1043B00080B582B000AF78600448102107F084FF18
:1043C000034618460837BD4680BD00BF00100240B6
:1043D00080B582B000AF786039603B68002B04D1B3
:1043E0000548102107F098FF03E00348102107F06B
:1043F00085FF0837BD4680BD0010024080B582B001
:1044000000AF78600448102107F044FF03461846C7
:104410000837BD4680BD00BF0010024080B584B0A3
:1044200002AF78600023009300200549102200238A
:10443000FCF7CAFD002318460837BD4680BD00BF03
:104440000010024080B584B002AF78600023009372
:104450000120054910220023FCF7B6FD0023184671
:104460000837BD4680BD00BF0010024080B584B053
:1044700002AF786000230093002005491022012339
:10448000FCF7A2FD002318460837BD4680BD00BFDB
:104490000010024080B584B002AF78600023009322
:1044A0000020054910220223FCF78EFD0023184648
:1044B0000837BD4680BD00BF0010024080B582B005
:1044C00000AF78600448042107F0FEFE034618465A
:1044D0000837BD4680BD00BF0010024080B582B0E5
:1044E00000AF786039603B68002B04D10548042197
:1044F00007F012FF03E00348042107F0FFFE08372E
:10450000BD4680BD0010024080B582B000AF78602B
:104510000448042107F0BEFE034618460837BD468E
:1045200080BD00BF0010024080B584B002AF78604B
:10453000002300930020054904220023FCF744FDDA
:10454000002318460837BD4680BD00BF001002405A
:1045500080B584B002AF7860002300930120054944
:1045600004220023FCF730FD002318460837BD461F
:1045700080BD00BF0010024080B584B002AF7860FB
:10458000002300930020054904220123FCF71CFDB1
:10459000002318460837BD4680BD00BF001002400A
:1045A00080B584B002AF78600023009300200549F5
:1045B00004220223FCF708FD002318460837BD46F5
:1045C00080BD00BF0010024080B582B000AF7860AF
:1045D00004484FF4807107F077FE03461846083709
:1045E000BD4680BD0010024080B582B000AF78604B
:1045F00039603B68002B05D106484FF4807107F005
:104600008BFE04E003484FF4807107F077FE083713
:10461000BD4680BD0010024080B582B000AF78601A
:1046200004484FF4807107F035FE034618460837FA
:10463000BD4680BD0010024080B584B002AF7860F6
:1046400000230093002005494FF480720023FCF7FB
:10465000BBFC002318460837BD4680BD0010024051
:1046600080B584B002AF7860002300930120054933
:104670004FF480720023FCF7A7FC0023184608378C
:10468000BD4680BD0010024080B584B002AF7860A6
:1046900000230093002005494FF480720123FCF7AA
:1046A00093FC002318460837BD4680BD0010024029
:1046B00080B584B002AF78600023009300200549E4
:1046C0004FF480720223FCF77FFC00231846083762
:1046D000BD4680BD0010024080B582B000AF78605A
:1046E0000448082107F0F0FD034618460837BD4688
:1046F00080BD00BF0010024080B582B000AF78607E
:1047000039603B68002B04D10548082107F004FEFE
:1047100003E00348082107F0F1FD0837BD4680BDDE
:104720000010024080B582B000AF786004480821D4
:1047300007F0B0FD034618460837BD4680BD00BFF0
:104740000010024080B584B002AF7860002300936F
:104750000020054908220023FCF736FC00231846F8
:104760000837BD4680BD00BF0010024080B584B050
:1047700002AF78600023009301200549082200233E
:10478000FCF722FC002318460837BD4680BD00BF59
:104790000010024080B584B002AF7860002300931F
:1047A0000020054908220123FCF70EFC00231846CF
:1047B0000837BD4680BD00BF0010024080B584B000
:1047C00002AF7860002300930020054908220223ED
:1047D000FCF7FAFB002318460837BD4680BD00BF32
:1047E0000010024080B582B000AF786004482021FC
:1047F00007F06AFD034618460837BD4680BD00BF76
:104800000008024080B582B000AF786039603B6834
:10481000002B04D10548202107F07EFD03E003486A
:10482000202107F06BFD0837BD4680BD000802401F
:1048300080B582B000AF78600448202107F02AFDDF
:10484000034618460837BD4680BD00BF0008024039
:1048500080B584B002AF7860002300930020054942
:1048600020220023FCF7B0FB002318460837BD4682
:1048700080BD00BF0008024080B584B002AF786000
:104880007B680222DA600023009301200449202281
:104890000023FCF799FB002318460837BD4680BD6E
:1048A0000008024080B584B002AF78600023009316
:1048B0000020054920220123FCF786FB002318462F
:1048C0000837BD4680BD00BF0008024080B584B0F7
:1048D00002AF7860002300930020054920220223C4
:1048E000FCF772FB002318460837BD4680BD00BFA9
:1048F0000008024080B582B000AF78600448022111
:1049000007F0E2FC034618460837BD4680BD00BFED
:104910000008024080B582B000AF786039603B6823
:10492000002B04D10548022107F0F6FC03E0034800
:10493000022107F0E3FC0837BD4680BD00080240B5
:1049400080B582B000AF78600448022107F0A2FC75
:10495000034618460837BD4680BD00BF0008024028
:1049600080B584B002AF7860002300930020054931
:1049700002220023FCF728FB002318460837BD4617
:1049800080BD00BF0008024080B584B002AF7860EF
:104990007B680222DA60002300930120044902228E
:1049A0000023FCF711FB002318460837BD4680BDE5
:1049B0000008024080B584B002AF78600023009305
:1049C0000020054902220123FCF7FEFA00231846C5
:1049D0000837BD4680BD00BF0008024080B584B0E6
:1049E00002AF7860002300930020054902220223D1
:1049F000FCF7EAFA002318460837BD4680BD00BF21
:104A00000008024080B582B000AF786004480421FD
:104A100007F05AFC034618460837BD4680BD00BF64
:104A20000008024080B582B000AF786039603B6812
:104A3000002B04D10548042107F06EFC03E0034875
:104A4000042107F05BFC0837BD4680BD000802402A
:104A500080B582B000AF78600448042107F01AFCEA
:104A6000034618460837BD4680BD00BF0008024017
:104A700080B584B002AF7860002300930020054920
:104A800004220023FCF7A0FA002318460837BD468D
:104A900080BD00BF0008024080B584B002AF7860DE
:104AA0007B680222DA60002300930120044904227B
:104AB0000023FCF789FA002318460837BD4680BD5D
:104AC0000008024080B584B002AF786000230093F4
:104AD0000020054904220123FCF776FA002318463A
:104AE0000837BD4680BD00BF0008024080B584B0D5
:104AF00002AF7860002300930020054904220223BE
:104B0000FCF762FA002318460837BD4680BD00BF97
:104B10000008024080B582B000AF786004480821E8
:104B200007F0D2FB034618460837BD4680BD00BFDC
:104B30000008024080B582B000AF786039603B6801
:104B4000002B04D10548082107F0E6FB03E00348E9
:104B5000082107F0D3FB0837BD4680BD000802409E
:104B600080B582B000AF78600448082107F092FB5E
:104B7000034618460837BD4680BD00BF0008024006
:104B800080B584B002AF786000230093002005490F
:104B900008220023FCF718FA002318460837BD4600
:104BA00080BD00BF0008024080B584B002AF7860CD
:104BB0007B680222DA600023009301200449082266
:104BC0000023FCF701FA002318460837BD4680BDD4
:104BD0000008024080B584B002AF786000230093E3
:104BE0000020054908220123FCF7EEF900231846AE
:104BF0000837BD4680BD00BF0008024080B584B0C4
:104C000002AF7860002300930020054908220223A8
:104C1000FCF7DAF9002318460837BD4680BD00BF0F
:104C20000008024080B582B000AF786004481021CF
:104C300007F04AFB034618460837BD4680BD00BF53
:104C40000008024080B582B000AF786039603B68F0
:104C5000002B04D10548102107F05EFB03E0034858
:104C6000102107F04BFB0837BD4680BD000802400D
:104C700080B582B000AF78600448102107F00AFBCD
:104C8000034618460837BD4680BD00BF00080240F5
:104C900080B584B002AF78600023009300200549FE
:104CA00010220023FCF790F9002318460837BD4670
:104CB00080BD00BF0008024080B584B002AF7860BC
:104CC0007B680222DA60002300930120044910224D
:104CD0000023FCF779F9002318460837BD4680BD4C
:104CE0000008024080B584B002AF786000230093D2
:104CF0000020054910220123FCF766F9002318461D
:104D00000837BD4680BD00BF0008024080B584B0B2
:104D100002AF78600023009300200549102202238F
:104D2000FCF752F9002318460837BD4680BD00BF86
:104D30000008024080B582B000AF786004484FF4AC
:104D4000006107F0C1FA034618460837BD4680BD2A
:104D50000010024080B582B000AF786039603B68D7
:104D6000002B05D106484FF4006107F0D5FA04E0A6
:104D700003484FF4006107F0C1FA0837BD4680BD13
:104D80000010024080B582B000AF786004484FF454
:104D9000006107F07FFA034618460837BD4680BD1C
:104DA0000010024080B584B002AF78600023009309
:104DB000002005494FF400620023FCF705F90023A9
:104DC00018460837BD4680BD0010024080B584B04B
:104DD00002AF78607B680222DA6000230093012032
:104DE00005494FF400620023FCF7EEF80023184653
:104DF0000837BD4680BD00BF0010024080B584B0BA
:104E000002AF786000230093002005494FF4006250
:104E10000123FCF7D9F8002318460837BD4680BDAA
:104E20000010024080B584B002AF78600023009388
:104E3000002005494FF400620223FCF7C5F8002367
:104E400018460837BD4680BD0010024080B582B0CC
:104E500000AF78600448402107F036FA0346184650
:104E60000837BD4680BD00BF0010024080B582B04B
:104E700000AF786039603B68002B04D105484021C1
:104E800007F04AFA03E00348402107F037FA0837F1
:104E9000BD4680BD0010024080B582B000AF786092
:104EA0000448402107F0F6F9034618460837BD4686
:104EB00080BD00BF0010024080B584B002AF7860B2
:104EC000002300930020054940220023FCF77CF8D2
:104ED000002318460837BD4680BD00BF00100240C1
:104EE00080B584B002AF78607B680222DA6000236C
:104EF00000930120044940220023FCF765F80023B9
:104F000018460837BD4680BD0010024080B584B009
:104F100002AF78600023009300200549402201235E
:104F2000FCF752F8002318460837BD4680BD00BF85
:104F30000010024080B584B002AF78600023009377
:104F40000020054940220223FCF73EF800231846C2
:104F50000837BD4680BD00BF0010024080B582B05A
:104F600000AF78600448202107F0AEF903461846E8
:104F70000837BD4680BD00BF0010024080B582B03A
:104F800000AF786039603B68002B04D105482021D0
:104F900007F0C2F903E00348202107F0AFF9083712
:104FA000BD4680BD0010024080B582B000AF786081
:104FB0000448202107F06EF9034618460837BD461D
:104FC00080BD00BF0010024080B584B002AF7860A1
:104FD000002300930020054920220023FBF7F4FF63
:104FE000002318460837BD4680BD00BF00100240B0
:104FF00080B584B002AF78607B680222DA6000235B
:1050000000930120044920220023FBF7DDFF002349
:1050100018460837BD4680BD0010024080B584B0F8
:1050200002AF78600023009300200549202201236D
:10503000FBF7CAFF002318460837BD4680BD00BFF6
:105040000010024080B584B002AF78600023009366
:105050000020054920220223FBF7B6FF0023184653
:105060000837BD4680BD00BF0010024080B582B049
:1050700000AF786004484FF4007107F025F903464B
:1050800018460837BD4680BD0010024080B582B08A
:1050900000AF786039603B68002B05D106484FF4BB
:1050A000007107F039F904E003484FF4007107F08C
:1050B00025F90837BD4680BD0010024080B582B09A
:1050C00000AF786004484FF4007107F0E3F803463E
:1050D00018460837BD4680BD0010024080B584B038
:1050E00002AF786000230093002005494FF400725E
:1050F0000023FBF769FF002318460837BD4680BD33
:105100000010024080B584B002AF78607B68022254
:10511000DA6000230093012005494FF40072002358
:10512000FBF752FF002318460837BD4680BD00BF7D
:105130000010024080B584B002AF78600023009375
:10514000002005494FF400720123FBF73DFF0023C7
:1051500018460837BD4680BD0010024080B584B0B7
:1051600002AF786000230093002005494FF40072DD
:105170000223FBF729FF002318460837BD4680BDF0
:105180000010024080B582B000AF786004484FF450
:10519000804107F099F8034618460837BD4680BDA0
:1051A0000010024080B582B000AF786039603B6883
:1051B000002B05D106484FF4804107F0ADF804E01C
:1051C00003484FF4804107F099F80837BD4680BD89
:1051D0000010024080B582B000AF786004484FF400
:1051E000804107F057F8034618460837BD4680BD92
:1051F0000010024080B584B002AF786000230093B5
:10520000002005494FF480420023FBF7DDFE002318
:1052100018460837BD4680BD0010024080B584B0F6
:1052200002AF78607B680222DA60002300930120DD
:1052300005494FF480420023FBF7C6FE00231846C1
:105240000837BD4680BD00BF0010024080B584B065
:1052500002AF786000230093002005494FF480429C
:105260000123FBF7B1FE002318460837BD4680BD79
:105270000010024080B584B002AF78600023009334
:10528000002005494FF480420223FBF79DFE0023D6
:1052900018460837BD4680BD0010024080B582B078
:1052A00000AF786004484FF4005107F00DF8034652
:1052B00018460837BD4680BD0010024080B582B058
:1052C00000AF786039603B68002B05D106484FF489
:1052D000005107F021F804E003484FF4005107F0B3
:1052E0000DF80837BD4680BD0010024080B582B081
:1052F00000AF786004484FF4005106F0CBFF03463E
:1053000018460837BD4680BD0010024080B584B005
:1053100002AF786000230093002005494FF400524B
:105320000023FBF751FE002318460837BD4680BD19
:105330000010024080B584B002AF78607B68022222
:10534000DA6000230093012005494FF40052002346
:10535000FBF73AFE002318460837BD4680BD00BF64
:105360000010024080B584B002AF78600023009343
:10537000002005494FF400520123FBF725FE0023CE
:1053800018460837BD4680BD0010024080B584B085
:1053900002AF786000230093002005494FF40052CB
:1053A0000223FBF711FE002318460837BD4680BDD7
:1053B0000010024080B582B000AF78607B680122A7
:1053C000DA600448202104F017FE0023184608374D
:1053D000BD4680BD00080240A0F10800FFF7EABF0B
:1053E00090B583B000AF78600C48202104F0ECFE4B
:1053F00004467B681B6848331B68786898470346F7
:1054000018460EF019F80346204619460EF01CF90E
:10541000034618460C37BD4690BD00BF0008024049
:10542000A0F10800FFF7DCBF80B582B000AF786064
:105430007B680122DA600448022104F0DDFD0023CC
:1054400018460837BD4680BD00080240A0F108009C
:10545000FFF7EABF90B583B000AF78600C48022137
:1054600004F0B2FE04467B681B6848331B6878680A
:105470009847034618460DF0DFFF034620461946BD
:105480000EF0E2F8034618460C37BD4690BD00BF4B
:1054900000080240A0F10800FFF7DCBF80B582B031
:1054A00000AF78607B680122DA600448042104F0D0
:1054B000A3FD002318460837BD4680BD0008024002
:1054C000A0F10800FFF7EABF90B583B000AF7860A5
:1054D0000C48042104F078FE04467B681B684833BE
:1054E0001B6878689847034618460DF0A5FF0346E9
:1054F000204619460EF0A8F8034618460C37BD465C
:1055000090BD00BF00080240A0F10800FFF7DCBF1B
:1055100080B582B000AF78607B680122DA60044811
:10552000082104F069FD002318460837BD4680BDF8
:1055300000080240A0F10800FFF7EABF90B583B071
:1055400000AF78600C48082104F03EFE04467B68FA
:105550001B6848331B6878689847034618460DF067
:105560006BFF0346204619460EF06EF803461846B8
:105570000C37BD4690BD00BF00080240A0F10800F6
:10558000FFF7DCBF80B582B000AF78607B68012296
:10559000DA600448102104F02FFD00231846083774
:1055A000BD4680BD00080240A0F10800FFF7EABF39
:1055B00090B583B000AF78600C48102104F004FE71
:1055C00004467B681B6848331B6878689847034625
:1055D00018460DF031FF0346204619460EF034F808
:1055E000034618460C37BD4690BD00BF0008024078
:1055F000A0F10800FFF7DCBF80B582B000AF786093
:10560000054806494FF44052FBF7F4FE00231846C4
:105610000837BD4680BD00BF00080040000C0240B6
:1056200080B582B000AF78607B681B7A002B05D014
:105630000648FBF76BFF03465B4203E00348FBF7BA
:1056400065FF034618460837BD4680BD0008004088
:1056500080B582B000AF786004480549C022FBF7EE
:10566000C9FE002318460837BD4680BD000400402F
:105670000000024080B582B000AF78607B681B7A82
:10568000002B05D00648FBF741FF03465B4203E0D1
:105690000348FBF73BFF034618460837BD4680BD6D
:1056A0000004004080B582B000AF7860044805492E
:1056B0000322FBF79FFE002318460837BD4680BD36
:1056C000000C00400000024080B582B000AF78605E
:1056D0007B681B7A002B05D00648FBF717FF0346B3
:1056E0005B4203E00348FBF711FF03461846083707
:1056F000BD4680BD000C004080B586B000AFF860AC
:10570000B9607A60FB680122DA60B8680EF0AEF822
:105710000346094809494FF40062FAF7F9FD0346C8
:105720007B61054802217A68FAF75CFD7B691846BF
:105730001837BD4680BD00BF000001400010024088
:10574000A0F10800FFF7D8BF80B582B000AF786045
:105750003960044802213A68FAF744FD0837BD462B
:1057600080BD00BF00000140A0F10800FFF7ECBFC2
:1057700080B582B000AF786004480221FAF794FD4A
:10578000034618460837BD4680BD00BF00000140F3
:10579000A0F10800FFF7ECBF80B586B000AFF8605D
:1057A000B9607A60FB680122DA60B8680EF05EF8D2
:1057B0000346084808494022FAF7AAFD03467B61E0
:1057C000044802217A68FAF70DFD7B6918461837FC
:1057D000BD4680BD0040014000100240A0F108001D
:1057E000FFF7DABF80B582B000AF78603960044857
:1057F00002213A68FAF7F6FC0837BD4680BD00BFC3
:1058000000400140A0F10800FFF7ECBF80B582B076
:1058100000AF786004480221FAF746FD03461846B7
:105820000837BD4680BD00BF00400140A0F1080020
:10583000FFF7ECBF80B586B000AFF860B9607A6062
:10584000FB680122DA60B8680EF010F803460848D9
:1058500008492022FAF75CFD03467B6104480121D8
:105860007A68FAF7BFFC7B6918461837BD4680BDD9
:105870000040014000100240A0F10800FFF7DABF2D
:1058800080B582B000AF78603960044801213A6881
:10589000FAF7A8FC0837BD4680BD00BF00400140B4
:1058A000A0F10800FFF7ECBF80B582B000AF7860D0
:1058B00004480121FAF7F8FC034618460837BD46AC
:1058C00080BD00BF00400140A0F10800FFF7ECBF21
:1058D00080B586B000AFF860B9607A60FB680122DD
:1058E000DA60B8680DF0C2FF0346094809494FF471
:1058F0000072FAF70DFD03467B61054801217A68C5
:10590000FAF770FC7B6918461837BD4680BD00BFAA
:105910000000014000100240A0F10800FFF7D8BFCE
:1059200080B582B000AF78603960044801213A68E0
:10593000FAF758FC0837BD4680BD00BF00000140A3
:10594000A0F10800FFF7ECBF80B582B000AF78602F
:1059500004480121FAF7A8FC034618460837BD465B
:1059600080BD00BF00000140A0F10800FFF7ECBFC0
:1059700080B586B000AFF860B9607A60FB6801223C
:10598000DA60B8680DF072FF0346094809494FF420
:105990008042FAF7BDFC03467B61054804217A6822
:1059A000FAF720FC7B6918461837BD4680BD00BF5A
:1059B0000000014000100240A0F10800FFF7D8BF2E
:1059C00080B582B000AF78603960044804213A683D
:1059D000FAF708FC0837BD4680BD00BF0000014053
:1059E000A0F10800FFF7ECBF80B582B000AF78608F
:1059F00004480421FAF758FC034618460837BD4608
:105A000080BD00BF00000140A0F10800FFF7ECBF1F
:105A100080B586B000AFF860B9607A60FB6801229B
:105A2000DA60B8680DF022FF0346094809494FF4CF
:105A30000052FAF76DFC03467B61054803217A6842
:105A4000FAF7D0FB7B6918461837BD4680BD00BF0A
:105A50000000014000100240A0F10800FFF7D8BF8D
:105A600080B582B000AF78603960044803213A689D
:105A7000FAF7B8FB0837BD4680BD00BF0000014003
:105A8000A0F10800FFF7ECBF80B582B000AF7860EE
:105A900004480321FAF708FC034618460837BD46B8
:105AA00080BD00BF00000140A0F10800FFF7ECBF7F
:105AB00080B586B000AFF860B9607A60FB680122FB
:105AC000DA60B8680DF0D2FE0346094809494FF480
:105AD0008042FAF71DFC03467B61054802217A6883
